{
	"contracts/FundMe.sol": {
		"FundMe": {
			"abi": [
				{
					"inputs": [
						{
							"internalType": "address",
							"name": "",
							"type": "address"
						}
					],
					"name": "addressToAmountFunded",
					"outputs": [
						{
							"internalType": "uint256",
							"name": "",
							"type": "uint256"
						}
					],
					"stateMutability": "view",
					"type": "function"
				},
				{
					"inputs": [],
					"name": "fund",
					"outputs": [],
					"stateMutability": "payable",
					"type": "function"
				},
				{
					"inputs": [
						{
							"internalType": "uint256",
							"name": "",
							"type": "uint256"
						}
					],
					"name": "funders",
					"outputs": [
						{
							"internalType": "address",
							"name": "",
							"type": "address"
						}
					],
					"stateMutability": "view",
					"type": "function"
				},
				{
					"inputs": [],
					"name": "minimunUSD",
					"outputs": [
						{
							"internalType": "uint256",
							"name": "",
							"type": "uint256"
						}
					],
					"stateMutability": "view",
					"type": "function"
				}
			],
			"devdoc": {
				"kind": "dev",
				"methods": {},
				"version": 1
			},
			"evm": {
				"assembly": "    /* \"contracts/FundMe.sol\":272:1895  contract FundMe {... */\n  mstore(0x40, 0x80)\n    /* \"contracts/FundMe.sol\":550:559  50 * 1e18 */\n  0x02b5e3af16b1880000\n    /* \"contracts/FundMe.sol\":522:559  uint256 public minimunUSD = 50 * 1e18 */\n  0x00\n  sstore\n    /* \"contracts/FundMe.sol\":272:1895  contract FundMe {... */\n  callvalue\n  dup1\n  iszero\n  tag_1\n  jumpi\n  0x00\n  dup1\n  revert\ntag_1:\n  pop\n  dataSize(sub_0)\n  dup1\n  dataOffset(sub_0)\n  0x00\n  codecopy\n  0x00\n  return\nstop\n\nsub_0: assembly {\n        /* \"contracts/FundMe.sol\":272:1895  contract FundMe {... */\n      mstore(0x40, 0x80)\n      jumpi(tag_1, lt(calldatasize, 0x04))\n      shr(0xe0, calldataload(0x00))\n      dup1\n      0x3e47d6f3\n      eq\n      tag_2\n      jumpi\n      dup1\n      0xb60d4288\n      eq\n      tag_3\n      jumpi\n      dup1\n      0xdc0d3dff\n      eq\n      tag_4\n      jumpi\n      dup1\n      0xf1b7c0ef\n      eq\n      tag_5\n      jumpi\n    tag_1:\n      0x00\n      dup1\n      revert\n        /* \"contracts/FundMe.sol\":736:792  mapping(address => uint256) public addressToAmountFunded */\n    tag_2:\n      callvalue\n      dup1\n      iszero\n      tag_6\n      jumpi\n      0x00\n      dup1\n      revert\n    tag_6:\n      pop\n      tag_7\n      0x04\n      dup1\n      calldatasize\n      sub\n      dup2\n      add\n      swap1\n      tag_8\n      swap2\n      swap1\n      tag_9\n      jump\t// in\n    tag_8:\n      tag_10\n      jump\t// in\n    tag_7:\n      mload(0x40)\n      tag_11\n      swap2\n      swap1\n      tag_12\n      jump\t// in\n    tag_11:\n      mload(0x40)\n      dup1\n      swap2\n      sub\n      swap1\n      return\n        /* \"contracts/FundMe.sol\":899:1893  function fund() public payable {... */\n    tag_3:\n      tag_13\n      tag_14\n      jump\t// in\n    tag_13:\n      stop\n        /* \"contracts/FundMe.sol\":603:627  address[] public funders */\n    tag_4:\n      callvalue\n      dup1\n      iszero\n      tag_15\n      jumpi\n      0x00\n      dup1\n      revert\n    tag_15:\n      pop\n      tag_16\n      0x04\n      dup1\n      calldatasize\n      sub\n      dup2\n      add\n      swap1\n      tag_17\n      swap2\n      swap1\n      tag_18\n      jump\t// in\n    tag_17:\n      tag_19\n      jump\t// in\n    tag_16:\n      mload(0x40)\n      tag_20\n      swap2\n      swap1\n      tag_21\n      jump\t// in\n    tag_20:\n      mload(0x40)\n      dup1\n      swap2\n      sub\n      swap1\n      return\n        /* \"contracts/FundMe.sol\":522:559  uint256 public minimunUSD = 50 * 1e18 */\n    tag_5:\n      callvalue\n      dup1\n      iszero\n      tag_22\n      jumpi\n      0x00\n      dup1\n      revert\n    tag_22:\n      pop\n      tag_23\n      tag_24\n      jump\t// in\n    tag_23:\n      mload(0x40)\n      tag_25\n      swap2\n      swap1\n      tag_12\n      jump\t// in\n    tag_25:\n      mload(0x40)\n      dup1\n      swap2\n      sub\n      swap1\n      return\n        /* \"contracts/FundMe.sol\":736:792  mapping(address => uint256) public addressToAmountFunded */\n    tag_10:\n      mstore(0x20, 0x02)\n      dup1\n      0x00\n      mstore\n      keccak256(0x00, 0x40)\n      0x00\n      swap2\n      pop\n      swap1\n      pop\n      sload\n      dup2\n      jump\t// out\n        /* \"contracts/FundMe.sol\":899:1893  function fund() public payable {... */\n    tag_14:\n        /* \"contracts/FundMe.sol\":1108:1137  msg.value.getConversionRate() */\n      tag_27\n        /* \"contracts/FundMe.sol\":1108:1117  msg.value */\n      callvalue\n        /* \"contracts/FundMe.sol\":1108:1135  msg.value.getConversionRate */\n      tag_28\n        /* \"contracts/FundMe.sol\":1108:1137  msg.value.getConversionRate() */\n      jump\t// in\n    tag_27:\n      pop\n        /* \"contracts/FundMe.sol\":1235:1245  minimunUSD */\n      sload(0x00)\n        /* \"contracts/FundMe.sol\":1202:1231  msg.value.getConversionRate() */\n      tag_29\n        /* \"contracts/FundMe.sol\":1202:1211  msg.value */\n      callvalue\n        /* \"contracts/FundMe.sol\":1202:1229  msg.value.getConversionRate */\n      tag_28\n        /* \"contracts/FundMe.sol\":1202:1231  msg.value.getConversionRate() */\n      jump\t// in\n    tag_29:\n        /* \"contracts/FundMe.sol\":1202:1245  msg.value.getConversionRate() >= minimunUSD */\n      lt\n      iszero\n        /* \"contracts/FundMe.sol\":1194:1271  require(msg.value.getConversionRate() >= minimunUSD, \"Didn't send enough!!!\") */\n      tag_30\n      jumpi\n      mload(0x40)\n      0x08c379a000000000000000000000000000000000000000000000000000000000\n      dup2\n      mstore\n      0x04\n      add\n      tag_31\n      swap1\n      tag_32\n      jump\t// in\n    tag_31:\n      mload(0x40)\n      dup1\n      swap2\n      sub\n      swap1\n      revert\n    tag_30:\n        /* \"contracts/FundMe.sol\":1590:1597  funders */\n      0x01\n        /* \"contracts/FundMe.sol\":1603:1613  msg.sender */\n      caller\n        /* \"contracts/FundMe.sol\":1590:1614  funders.push(msg.sender) */\n      swap1\n      dup1\n      0x01\n      dup2\n      sload\n      add\n      dup1\n      dup3\n      sstore\n      dup1\n      swap2\n      pop\n      pop\n      0x01\n      swap1\n      sub\n      swap1\n      0x00\n      mstore\n      keccak256(0x00, 0x20)\n      add\n      0x00\n      swap1\n      swap2\n      swap1\n      swap2\n      swap1\n      swap2\n      0x0100\n      exp\n      dup2\n      sload\n      dup2\n      0xffffffffffffffffffffffffffffffffffffffff\n      mul\n      not\n      and\n      swap1\n      dup4\n      0xffffffffffffffffffffffffffffffffffffffff\n      and\n      mul\n      or\n      swap1\n      sstore\n      pop\n        /* \"contracts/FundMe.sol\":1768:1777  msg.value */\n      callvalue\n        /* \"contracts/FundMe.sol\":1732:1753  addressToAmountFunded */\n      0x02\n        /* \"contracts/FundMe.sol\":1732:1765  addressToAmountFunded[msg.sender] */\n      0x00\n        /* \"contracts/FundMe.sol\":1754:1764  msg.sender */\n      caller\n        /* \"contracts/FundMe.sol\":1732:1765  addressToAmountFunded[msg.sender] */\n      0xffffffffffffffffffffffffffffffffffffffff\n      and\n      0xffffffffffffffffffffffffffffffffffffffff\n      and\n      dup2\n      mstore\n      0x20\n      add\n      swap1\n      dup2\n      mstore\n      0x20\n      add\n      0x00\n      keccak256\n        /* \"contracts/FundMe.sol\":1732:1777  addressToAmountFunded[msg.sender] = msg.value */\n      dup2\n      swap1\n      sstore\n      pop\n        /* \"contracts/FundMe.sol\":899:1893  function fund() public payable {... */\n      jump\t// out\n        /* \"contracts/FundMe.sol\":603:627  address[] public funders */\n    tag_19:\n      0x01\n      dup2\n      dup2\n      sload\n      dup2\n      lt\n      tag_34\n      jumpi\n      0x00\n      dup1\n      revert\n    tag_34:\n      swap1\n      0x00\n      mstore\n      keccak256(0x00, 0x20)\n      add\n      0x00\n      swap2\n      pop\n      sload\n      swap1\n      0x0100\n      exp\n      swap1\n      div\n      0xffffffffffffffffffffffffffffffffffffffff\n      and\n      dup2\n      jump\t// out\n        /* \"contracts/FundMe.sol\":522:559  uint256 public minimunUSD = 50 * 1e18 */\n    tag_24:\n      sload(0x00)\n      dup2\n      jump\t// out\n        /* \"contracts/PriceConverter.sol\":846:1474  function getConversionRate(uint256 ethAmount) internal view returns (uint256) {... */\n    tag_28:\n        /* \"contracts/PriceConverter.sol\":915:922  uint256 */\n      0x00\n        /* \"contracts/PriceConverter.sol\":1031:1047  uint256 ethPrice */\n      dup1\n        /* \"contracts/PriceConverter.sol\":1050:1060  getPrice() */\n      tag_37\n        /* \"contracts/PriceConverter.sol\":1050:1058  getPrice */\n      tag_38\n        /* \"contracts/PriceConverter.sol\":1050:1060  getPrice() */\n      jump\t// in\n    tag_37:\n        /* \"contracts/PriceConverter.sol\":1031:1060  uint256 ethPrice = getPrice() */\n      swap1\n      pop\n        /* \"contracts/PriceConverter.sol\":1179:1201  uint256 ethAmountInUsd */\n      0x00\n        /* \"contracts/PriceConverter.sol\":1229:1233  1e18 */\n      0x0de0b6b3a7640000\n        /* \"contracts/PriceConverter.sol\":1216:1225  ethAmount */\n      dup5\n        /* \"contracts/PriceConverter.sol\":1205:1213  ethPrice */\n      dup4\n        /* \"contracts/PriceConverter.sol\":1205:1225  ethPrice * ethAmount */\n      tag_39\n      swap2\n      swap1\n      tag_40\n      jump\t// in\n    tag_39:\n        /* \"contracts/PriceConverter.sol\":1204:1233  (ethPrice * ethAmount) / 1e18 */\n      tag_41\n      swap2\n      swap1\n      tag_42\n      jump\t// in\n    tag_41:\n        /* \"contracts/PriceConverter.sol\":1179:1233  uint256 ethAmountInUsd = (ethPrice * ethAmount) / 1e18 */\n      swap1\n      pop\n        /* \"contracts/PriceConverter.sol\":1453:1467  ethAmountInUsd */\n      dup1\n        /* \"contracts/PriceConverter.sol\":1446:1467  return ethAmountInUsd */\n      swap3\n      pop\n      pop\n      pop\n        /* \"contracts/PriceConverter.sol\":846:1474  function getConversionRate(uint256 ethAmount) internal view returns (uint256) {... */\n      swap2\n      swap1\n      pop\n      jump\t// out\n        /* \"contracts/PriceConverter.sol\":231:627  function getPrice() internal view returns(uint256) {... */\n    tag_38:\n        /* \"contracts/PriceConverter.sol\":273:280  uint256 */\n      0x00\n        /* \"contracts/PriceConverter.sol\":292:323  AggregatorV3Interface priceFeed */\n      dup1\n        /* \"contracts/PriceConverter.sol\":348:390  0x8A753747A1Fa494EC906cE90E9f37563A8AF630e */\n      0x8a753747a1fa494ec906ce90e9f37563a8af630e\n        /* \"contracts/PriceConverter.sol\":292:391  AggregatorV3Interface priceFeed = AggregatorV3Interface(0x8A753747A1Fa494EC906cE90E9f37563A8AF630e) */\n      swap1\n      pop\n        /* \"contracts/PriceConverter.sol\":403:415  int256 price */\n      0x00\n        /* \"contracts/PriceConverter.sol\":422:431  priceFeed */\n      dup2\n        /* \"contracts/PriceConverter.sol\":422:447  priceFeed.latestRoundData */\n      0xffffffffffffffffffffffffffffffffffffffff\n      and\n      0xfeaf968c\n        /* \"contracts/PriceConverter.sol\":422:449  priceFeed.latestRoundData() */\n      mload(0x40)\n      dup2\n      0xffffffff\n      and\n      0xe0\n      shl\n      dup2\n      mstore\n      0x04\n      add\n      0xa0\n      mload(0x40)\n      dup1\n      dup4\n      sub\n      dup2\n      dup7\n      dup1\n      extcodesize\n      iszero\n      dup1\n      iszero\n      tag_44\n      jumpi\n      0x00\n      dup1\n      revert\n    tag_44:\n      pop\n      gas\n      staticcall\n      iszero\n      dup1\n      iszero\n      tag_46\n      jumpi\n      returndatasize\n      0x00\n      dup1\n      returndatacopy\n      revert(0x00, returndatasize)\n    tag_46:\n      pop\n      pop\n      pop\n      pop\n      mload(0x40)\n      returndatasize\n      not(0x1f)\n      0x1f\n      dup3\n      add\n      and\n      dup3\n      add\n      dup1\n      0x40\n      mstore\n      pop\n      dup2\n      add\n      swap1\n      tag_47\n      swap2\n      swap1\n      tag_48\n      jump\t// in\n    tag_47:\n        /* \"contracts/PriceConverter.sol\":401:449  (,int256 price,,,) = priceFeed.latestRoundData() */\n      pop\n      pop\n      pop\n      swap2\n      pop\n      pop\n        /* \"contracts/PriceConverter.sol\":537:541  1e10 */\n      0x02540be400\n        /* \"contracts/PriceConverter.sol\":529:534  price */\n      dup2\n        /* \"contracts/PriceConverter.sol\":529:541  price * 1e10 */\n      tag_49\n      swap2\n      swap1\n      tag_50\n      jump\t// in\n    tag_49:\n        /* \"contracts/PriceConverter.sol\":514:542  return uint256(price * 1e10) */\n      swap3\n      pop\n      pop\n      pop\n        /* \"contracts/PriceConverter.sol\":231:627  function getPrice() internal view returns(uint256) {... */\n      swap1\n      jump\t// out\n        /* \"#utility.yul\":88:205   */\n    tag_52:\n        /* \"#utility.yul\":197:198   */\n      0x00\n        /* \"#utility.yul\":194:195   */\n      dup1\n        /* \"#utility.yul\":187:199   */\n      revert\n        /* \"#utility.yul\":334:460   */\n    tag_54:\n        /* \"#utility.yul\":371:378   */\n      0x00\n        /* \"#utility.yul\":411:453   */\n      0xffffffffffffffffffffffffffffffffffffffff\n        /* \"#utility.yul\":404:409   */\n      dup3\n        /* \"#utility.yul\":400:454   */\n      and\n        /* \"#utility.yul\":389:454   */\n      swap1\n      pop\n        /* \"#utility.yul\":334:460   */\n      swap2\n      swap1\n      pop\n      jump\t// out\n        /* \"#utility.yul\":466:562   */\n    tag_55:\n        /* \"#utility.yul\":503:510   */\n      0x00\n        /* \"#utility.yul\":532:556   */\n      tag_81\n        /* \"#utility.yul\":550:555   */\n      dup3\n        /* \"#utility.yul\":532:556   */\n      tag_54\n      jump\t// in\n    tag_81:\n        /* \"#utility.yul\":521:556   */\n      swap1\n      pop\n        /* \"#utility.yul\":466:562   */\n      swap2\n      swap1\n      pop\n      jump\t// out\n        /* \"#utility.yul\":568:690   */\n    tag_56:\n        /* \"#utility.yul\":641:665   */\n      tag_83\n        /* \"#utility.yul\":659:664   */\n      dup2\n        /* \"#utility.yul\":641:665   */\n      tag_55\n      jump\t// in\n    tag_83:\n        /* \"#utility.yul\":634:639   */\n      dup2\n        /* \"#utility.yul\":631:666   */\n      eq\n        /* \"#utility.yul\":621:684   */\n      tag_84\n      jumpi\n        /* \"#utility.yul\":680:681   */\n      0x00\n        /* \"#utility.yul\":677:678   */\n      dup1\n        /* \"#utility.yul\":670:682   */\n      revert\n        /* \"#utility.yul\":621:684   */\n    tag_84:\n        /* \"#utility.yul\":568:690   */\n      pop\n      jump\t// out\n        /* \"#utility.yul\":696:835   */\n    tag_57:\n        /* \"#utility.yul\":742:747   */\n      0x00\n        /* \"#utility.yul\":780:786   */\n      dup2\n        /* \"#utility.yul\":767:787   */\n      calldataload\n        /* \"#utility.yul\":758:787   */\n      swap1\n      pop\n        /* \"#utility.yul\":796:829   */\n      tag_86\n        /* \"#utility.yul\":823:828   */\n      dup2\n        /* \"#utility.yul\":796:829   */\n      tag_56\n      jump\t// in\n    tag_86:\n        /* \"#utility.yul\":696:835   */\n      swap3\n      swap2\n      pop\n      pop\n      jump\t// out\n        /* \"#utility.yul\":841:1170   */\n    tag_9:\n        /* \"#utility.yul\":900:906   */\n      0x00\n        /* \"#utility.yul\":949:951   */\n      0x20\n        /* \"#utility.yul\":937:946   */\n      dup3\n        /* \"#utility.yul\":928:935   */\n      dup5\n        /* \"#utility.yul\":924:947   */\n      sub\n        /* \"#utility.yul\":920:952   */\n      slt\n        /* \"#utility.yul\":917:1036   */\n      iszero\n      tag_88\n      jumpi\n        /* \"#utility.yul\":955:1034   */\n      tag_89\n      tag_52\n      jump\t// in\n    tag_89:\n        /* \"#utility.yul\":917:1036   */\n    tag_88:\n        /* \"#utility.yul\":1075:1076   */\n      0x00\n        /* \"#utility.yul\":1100:1153   */\n      tag_90\n        /* \"#utility.yul\":1145:1152   */\n      dup5\n        /* \"#utility.yul\":1136:1142   */\n      dup3\n        /* \"#utility.yul\":1125:1134   */\n      dup6\n        /* \"#utility.yul\":1121:1143   */\n      add\n        /* \"#utility.yul\":1100:1153   */\n      tag_57\n      jump\t// in\n    tag_90:\n        /* \"#utility.yul\":1090:1153   */\n      swap2\n      pop\n        /* \"#utility.yul\":1046:1163   */\n      pop\n        /* \"#utility.yul\":841:1170   */\n      swap3\n      swap2\n      pop\n      pop\n      jump\t// out\n        /* \"#utility.yul\":1176:1253   */\n    tag_58:\n        /* \"#utility.yul\":1213:1220   */\n      0x00\n        /* \"#utility.yul\":1242:1247   */\n      dup2\n        /* \"#utility.yul\":1231:1247   */\n      swap1\n      pop\n        /* \"#utility.yul\":1176:1253   */\n      swap2\n      swap1\n      pop\n      jump\t// out\n        /* \"#utility.yul\":1259:1377   */\n    tag_59:\n        /* \"#utility.yul\":1346:1370   */\n      tag_93\n        /* \"#utility.yul\":1364:1369   */\n      dup2\n        /* \"#utility.yul\":1346:1370   */\n      tag_58\n      jump\t// in\n    tag_93:\n        /* \"#utility.yul\":1341:1344   */\n      dup3\n        /* \"#utility.yul\":1334:1371   */\n      mstore\n        /* \"#utility.yul\":1259:1377   */\n      pop\n      pop\n      jump\t// out\n        /* \"#utility.yul\":1383:1605   */\n    tag_12:\n        /* \"#utility.yul\":1476:1480   */\n      0x00\n        /* \"#utility.yul\":1514:1516   */\n      0x20\n        /* \"#utility.yul\":1503:1512   */\n      dup3\n        /* \"#utility.yul\":1499:1517   */\n      add\n        /* \"#utility.yul\":1491:1517   */\n      swap1\n      pop\n        /* \"#utility.yul\":1527:1598   */\n      tag_95\n        /* \"#utility.yul\":1595:1596   */\n      0x00\n        /* \"#utility.yul\":1584:1593   */\n      dup4\n        /* \"#utility.yul\":1580:1597   */\n      add\n        /* \"#utility.yul\":1571:1577   */\n      dup5\n        /* \"#utility.yul\":1527:1598   */\n      tag_59\n      jump\t// in\n    tag_95:\n        /* \"#utility.yul\":1383:1605   */\n      swap3\n      swap2\n      pop\n      pop\n      jump\t// out\n        /* \"#utility.yul\":1611:1733   */\n    tag_60:\n        /* \"#utility.yul\":1684:1708   */\n      tag_97\n        /* \"#utility.yul\":1702:1707   */\n      dup2\n        /* \"#utility.yul\":1684:1708   */\n      tag_58\n      jump\t// in\n    tag_97:\n        /* \"#utility.yul\":1677:1682   */\n      dup2\n        /* \"#utility.yul\":1674:1709   */\n      eq\n        /* \"#utility.yul\":1664:1727   */\n      tag_98\n      jumpi\n        /* \"#utility.yul\":1723:1724   */\n      0x00\n        /* \"#utility.yul\":1720:1721   */\n      dup1\n        /* \"#utility.yul\":1713:1725   */\n      revert\n        /* \"#utility.yul\":1664:1727   */\n    tag_98:\n        /* \"#utility.yul\":1611:1733   */\n      pop\n      jump\t// out\n        /* \"#utility.yul\":1739:1878   */\n    tag_61:\n        /* \"#utility.yul\":1785:1790   */\n      0x00\n        /* \"#utility.yul\":1823:1829   */\n      dup2\n        /* \"#utility.yul\":1810:1830   */\n      calldataload\n        /* \"#utility.yul\":1801:1830   */\n      swap1\n      pop\n        /* \"#utility.yul\":1839:1872   */\n      tag_100\n        /* \"#utility.yul\":1866:1871   */\n      dup2\n        /* \"#utility.yul\":1839:1872   */\n      tag_60\n      jump\t// in\n    tag_100:\n        /* \"#utility.yul\":1739:1878   */\n      swap3\n      swap2\n      pop\n      pop\n      jump\t// out\n        /* \"#utility.yul\":1884:2213   */\n    tag_18:\n        /* \"#utility.yul\":1943:1949   */\n      0x00\n        /* \"#utility.yul\":1992:1994   */\n      0x20\n        /* \"#utility.yul\":1980:1989   */\n      dup3\n        /* \"#utility.yul\":1971:1978   */\n      dup5\n        /* \"#utility.yul\":1967:1990   */\n      sub\n        /* \"#utility.yul\":1963:1995   */\n      slt\n        /* \"#utility.yul\":1960:2079   */\n      iszero\n      tag_102\n      jumpi\n        /* \"#utility.yul\":1998:2077   */\n      tag_103\n      tag_52\n      jump\t// in\n    tag_103:\n        /* \"#utility.yul\":1960:2079   */\n    tag_102:\n        /* \"#utility.yul\":2118:2119   */\n      0x00\n        /* \"#utility.yul\":2143:2196   */\n      tag_104\n        /* \"#utility.yul\":2188:2195   */\n      dup5\n        /* \"#utility.yul\":2179:2185   */\n      dup3\n        /* \"#utility.yul\":2168:2177   */\n      dup6\n        /* \"#utility.yul\":2164:2186   */\n      add\n        /* \"#utility.yul\":2143:2196   */\n      tag_61\n      jump\t// in\n    tag_104:\n        /* \"#utility.yul\":2133:2196   */\n      swap2\n      pop\n        /* \"#utility.yul\":2089:2206   */\n      pop\n        /* \"#utility.yul\":1884:2213   */\n      swap3\n      swap2\n      pop\n      pop\n      jump\t// out\n        /* \"#utility.yul\":2219:2337   */\n    tag_62:\n        /* \"#utility.yul\":2306:2330   */\n      tag_106\n        /* \"#utility.yul\":2324:2329   */\n      dup2\n        /* \"#utility.yul\":2306:2330   */\n      tag_55\n      jump\t// in\n    tag_106:\n        /* \"#utility.yul\":2301:2304   */\n      dup3\n        /* \"#utility.yul\":2294:2331   */\n      mstore\n        /* \"#utility.yul\":2219:2337   */\n      pop\n      pop\n      jump\t// out\n        /* \"#utility.yul\":2343:2565   */\n    tag_21:\n        /* \"#utility.yul\":2436:2440   */\n      0x00\n        /* \"#utility.yul\":2474:2476   */\n      0x20\n        /* \"#utility.yul\":2463:2472   */\n      dup3\n        /* \"#utility.yul\":2459:2477   */\n      add\n        /* \"#utility.yul\":2451:2477   */\n      swap1\n      pop\n        /* \"#utility.yul\":2487:2558   */\n      tag_108\n        /* \"#utility.yul\":2555:2556   */\n      0x00\n        /* \"#utility.yul\":2544:2553   */\n      dup4\n        /* \"#utility.yul\":2540:2557   */\n      add\n        /* \"#utility.yul\":2531:2537   */\n      dup5\n        /* \"#utility.yul\":2487:2558   */\n      tag_62\n      jump\t// in\n    tag_108:\n        /* \"#utility.yul\":2343:2565   */\n      swap3\n      swap2\n      pop\n      pop\n      jump\t// out\n        /* \"#utility.yul\":2571:2740   */\n    tag_63:\n        /* \"#utility.yul\":2655:2666   */\n      0x00\n        /* \"#utility.yul\":2689:2695   */\n      dup3\n        /* \"#utility.yul\":2684:2687   */\n      dup3\n        /* \"#utility.yul\":2677:2696   */\n      mstore\n        /* \"#utility.yul\":2729:2733   */\n      0x20\n        /* \"#utility.yul\":2724:2727   */\n      dup3\n        /* \"#utility.yul\":2720:2734   */\n      add\n        /* \"#utility.yul\":2705:2734   */\n      swap1\n      pop\n        /* \"#utility.yul\":2571:2740   */\n      swap3\n      swap2\n      pop\n      pop\n      jump\t// out\n        /* \"#utility.yul\":2746:2917   */\n    tag_64:\n        /* \"#utility.yul\":2886:2909   */\n      0x4469646e27742073656e6420656e6f7567682121210000000000000000000000\n        /* \"#utility.yul\":2882:2883   */\n      0x00\n        /* \"#utility.yul\":2874:2880   */\n      dup3\n        /* \"#utility.yul\":2870:2884   */\n      add\n        /* \"#utility.yul\":2863:2910   */\n      mstore\n        /* \"#utility.yul\":2746:2917   */\n      pop\n      jump\t// out\n        /* \"#utility.yul\":2923:3289   */\n    tag_65:\n        /* \"#utility.yul\":3065:3068   */\n      0x00\n        /* \"#utility.yul\":3086:3153   */\n      tag_112\n        /* \"#utility.yul\":3150:3152   */\n      0x15\n        /* \"#utility.yul\":3145:3148   */\n      dup4\n        /* \"#utility.yul\":3086:3153   */\n      tag_63\n      jump\t// in\n    tag_112:\n        /* \"#utility.yul\":3079:3153   */\n      swap2\n      pop\n        /* \"#utility.yul\":3162:3255   */\n      tag_113\n        /* \"#utility.yul\":3251:3254   */\n      dup3\n        /* \"#utility.yul\":3162:3255   */\n      tag_64\n      jump\t// in\n    tag_113:\n        /* \"#utility.yul\":3280:3282   */\n      0x20\n        /* \"#utility.yul\":3275:3278   */\n      dup3\n        /* \"#utility.yul\":3271:3283   */\n      add\n        /* \"#utility.yul\":3264:3283   */\n      swap1\n      pop\n        /* \"#utility.yul\":2923:3289   */\n      swap2\n      swap1\n      pop\n      jump\t// out\n        /* \"#utility.yul\":3295:3714   */\n    tag_32:\n        /* \"#utility.yul\":3461:3465   */\n      0x00\n        /* \"#utility.yul\":3499:3501   */\n      0x20\n        /* \"#utility.yul\":3488:3497   */\n      dup3\n        /* \"#utility.yul\":3484:3502   */\n      add\n        /* \"#utility.yul\":3476:3502   */\n      swap1\n      pop\n        /* \"#utility.yul\":3548:3557   */\n      dup2\n        /* \"#utility.yul\":3542:3546   */\n      dup2\n        /* \"#utility.yul\":3538:3558   */\n      sub\n        /* \"#utility.yul\":3534:3535   */\n      0x00\n        /* \"#utility.yul\":3523:3532   */\n      dup4\n        /* \"#utility.yul\":3519:3536   */\n      add\n        /* \"#utility.yul\":3512:3559   */\n      mstore\n        /* \"#utility.yul\":3576:3707   */\n      tag_115\n        /* \"#utility.yul\":3702:3706   */\n      dup2\n        /* \"#utility.yul\":3576:3707   */\n      tag_65\n      jump\t// in\n    tag_115:\n        /* \"#utility.yul\":3568:3707   */\n      swap1\n      pop\n        /* \"#utility.yul\":3295:3714   */\n      swap2\n      swap1\n      pop\n      jump\t// out\n        /* \"#utility.yul\":3720:3900   */\n    tag_66:\n        /* \"#utility.yul\":3768:3845   */\n      0x4e487b7100000000000000000000000000000000000000000000000000000000\n        /* \"#utility.yul\":3765:3766   */\n      0x00\n        /* \"#utility.yul\":3758:3846   */\n      mstore\n        /* \"#utility.yul\":3865:3869   */\n      0x11\n        /* \"#utility.yul\":3862:3863   */\n      0x04\n        /* \"#utility.yul\":3855:3870   */\n      mstore\n        /* \"#utility.yul\":3889:3893   */\n      0x24\n        /* \"#utility.yul\":3886:3887   */\n      0x00\n        /* \"#utility.yul\":3879:3894   */\n      revert\n        /* \"#utility.yul\":3906:4254   */\n    tag_40:\n        /* \"#utility.yul\":3946:3953   */\n      0x00\n        /* \"#utility.yul\":3969:3989   */\n      tag_118\n        /* \"#utility.yul\":3987:3988   */\n      dup3\n        /* \"#utility.yul\":3969:3989   */\n      tag_58\n      jump\t// in\n    tag_118:\n        /* \"#utility.yul\":3964:3989   */\n      swap2\n      pop\n        /* \"#utility.yul\":4003:4023   */\n      tag_119\n        /* \"#utility.yul\":4021:4022   */\n      dup4\n        /* \"#utility.yul\":4003:4023   */\n      tag_58\n      jump\t// in\n    tag_119:\n        /* \"#utility.yul\":3998:4023   */\n      swap3\n      pop\n        /* \"#utility.yul\":4191:4192   */\n      dup2\n        /* \"#utility.yul\":4123:4189   */\n      0xffffffffffffffffffffffffffffffffffffffffffffffffffffffffffffffff\n        /* \"#utility.yul\":4119:4193   */\n      div\n        /* \"#utility.yul\":4116:4117   */\n      dup4\n        /* \"#utility.yul\":4113:4194   */\n      gt\n        /* \"#utility.yul\":4108:4109   */\n      dup3\n        /* \"#utility.yul\":4101:4110   */\n      iszero\n        /* \"#utility.yul\":4094:4111   */\n      iszero\n        /* \"#utility.yul\":4090:4195   */\n      and\n        /* \"#utility.yul\":4087:4218   */\n      iszero\n      tag_120\n      jumpi\n        /* \"#utility.yul\":4198:4216   */\n      tag_121\n      tag_66\n      jump\t// in\n    tag_121:\n        /* \"#utility.yul\":4087:4218   */\n    tag_120:\n        /* \"#utility.yul\":4246:4247   */\n      dup3\n        /* \"#utility.yul\":4243:4244   */\n      dup3\n        /* \"#utility.yul\":4239:4248   */\n      mul\n        /* \"#utility.yul\":4228:4248   */\n      swap1\n      pop\n        /* \"#utility.yul\":3906:4254   */\n      swap3\n      swap2\n      pop\n      pop\n      jump\t// out\n        /* \"#utility.yul\":4260:4440   */\n    tag_67:\n        /* \"#utility.yul\":4308:4385   */\n      0x4e487b7100000000000000000000000000000000000000000000000000000000\n        /* \"#utility.yul\":4305:4306   */\n      0x00\n        /* \"#utility.yul\":4298:4386   */\n      mstore\n        /* \"#utility.yul\":4405:4409   */\n      0x12\n        /* \"#utility.yul\":4402:4403   */\n      0x04\n        /* \"#utility.yul\":4395:4410   */\n      mstore\n        /* \"#utility.yul\":4429:4433   */\n      0x24\n        /* \"#utility.yul\":4426:4427   */\n      0x00\n        /* \"#utility.yul\":4419:4434   */\n      revert\n        /* \"#utility.yul\":4446:4631   */\n    tag_42:\n        /* \"#utility.yul\":4486:4487   */\n      0x00\n        /* \"#utility.yul\":4503:4523   */\n      tag_124\n        /* \"#utility.yul\":4521:4522   */\n      dup3\n        /* \"#utility.yul\":4503:4523   */\n      tag_58\n      jump\t// in\n    tag_124:\n        /* \"#utility.yul\":4498:4523   */\n      swap2\n      pop\n        /* \"#utility.yul\":4537:4557   */\n      tag_125\n        /* \"#utility.yul\":4555:4556   */\n      dup4\n        /* \"#utility.yul\":4537:4557   */\n      tag_58\n      jump\t// in\n    tag_125:\n        /* \"#utility.yul\":4532:4557   */\n      swap3\n      pop\n        /* \"#utility.yul\":4576:4577   */\n      dup3\n        /* \"#utility.yul\":4566:4601   */\n      tag_126\n      jumpi\n        /* \"#utility.yul\":4581:4599   */\n      tag_127\n      tag_67\n      jump\t// in\n    tag_127:\n        /* \"#utility.yul\":4566:4601   */\n    tag_126:\n        /* \"#utility.yul\":4623:4624   */\n      dup3\n        /* \"#utility.yul\":4620:4621   */\n      dup3\n        /* \"#utility.yul\":4616:4625   */\n      div\n        /* \"#utility.yul\":4611:4625   */\n      swap1\n      pop\n        /* \"#utility.yul\":4446:4631   */\n      swap3\n      swap2\n      pop\n      pop\n      jump\t// out\n        /* \"#utility.yul\":4637:4742   */\n    tag_68:\n        /* \"#utility.yul\":4673:4680   */\n      0x00\n        /* \"#utility.yul\":4713:4735   */\n      0xffffffffffffffffffff\n        /* \"#utility.yul\":4706:4711   */\n      dup3\n        /* \"#utility.yul\":4702:4736   */\n      and\n        /* \"#utility.yul\":4691:4736   */\n      swap1\n      pop\n        /* \"#utility.yul\":4637:4742   */\n      swap2\n      swap1\n      pop\n      jump\t// out\n        /* \"#utility.yul\":4748:4868   */\n    tag_69:\n        /* \"#utility.yul\":4820:4843   */\n      tag_130\n        /* \"#utility.yul\":4837:4842   */\n      dup2\n        /* \"#utility.yul\":4820:4843   */\n      tag_68\n      jump\t// in\n    tag_130:\n        /* \"#utility.yul\":4813:4818   */\n      dup2\n        /* \"#utility.yul\":4810:4844   */\n      eq\n        /* \"#utility.yul\":4800:4862   */\n      tag_131\n      jumpi\n        /* \"#utility.yul\":4858:4859   */\n      0x00\n        /* \"#utility.yul\":4855:4856   */\n      dup1\n        /* \"#utility.yul\":4848:4860   */\n      revert\n        /* \"#utility.yul\":4800:4862   */\n    tag_131:\n        /* \"#utility.yul\":4748:4868   */\n      pop\n      jump\t// out\n        /* \"#utility.yul\":4874:5015   */\n    tag_70:\n        /* \"#utility.yul\":4930:4935   */\n      0x00\n        /* \"#utility.yul\":4961:4967   */\n      dup2\n        /* \"#utility.yul\":4955:4968   */\n      mload\n        /* \"#utility.yul\":4946:4968   */\n      swap1\n      pop\n        /* \"#utility.yul\":4977:5009   */\n      tag_133\n        /* \"#utility.yul\":5003:5008   */\n      dup2\n        /* \"#utility.yul\":4977:5009   */\n      tag_69\n      jump\t// in\n    tag_133:\n        /* \"#utility.yul\":4874:5015   */\n      swap3\n      swap2\n      pop\n      pop\n      jump\t// out\n        /* \"#utility.yul\":5021:5097   */\n    tag_71:\n        /* \"#utility.yul\":5057:5064   */\n      0x00\n        /* \"#utility.yul\":5086:5091   */\n      dup2\n        /* \"#utility.yul\":5075:5091   */\n      swap1\n      pop\n        /* \"#utility.yul\":5021:5097   */\n      swap2\n      swap1\n      pop\n      jump\t// out\n        /* \"#utility.yul\":5103:5223   */\n    tag_72:\n        /* \"#utility.yul\":5175:5198   */\n      tag_136\n        /* \"#utility.yul\":5192:5197   */\n      dup2\n        /* \"#utility.yul\":5175:5198   */\n      tag_71\n      jump\t// in\n    tag_136:\n        /* \"#utility.yul\":5168:5173   */\n      dup2\n        /* \"#utility.yul\":5165:5199   */\n      eq\n        /* \"#utility.yul\":5155:5217   */\n      tag_137\n      jumpi\n        /* \"#utility.yul\":5213:5214   */\n      0x00\n        /* \"#utility.yul\":5210:5211   */\n      dup1\n        /* \"#utility.yul\":5203:5215   */\n      revert\n        /* \"#utility.yul\":5155:5217   */\n    tag_137:\n        /* \"#utility.yul\":5103:5223   */\n      pop\n      jump\t// out\n        /* \"#utility.yul\":5229:5370   */\n    tag_73:\n        /* \"#utility.yul\":5285:5290   */\n      0x00\n        /* \"#utility.yul\":5316:5322   */\n      dup2\n        /* \"#utility.yul\":5310:5323   */\n      mload\n        /* \"#utility.yul\":5301:5323   */\n      swap1\n      pop\n        /* \"#utility.yul\":5332:5364   */\n      tag_139\n        /* \"#utility.yul\":5358:5363   */\n      dup2\n        /* \"#utility.yul\":5332:5364   */\n      tag_72\n      jump\t// in\n    tag_139:\n        /* \"#utility.yul\":5229:5370   */\n      swap3\n      swap2\n      pop\n      pop\n      jump\t// out\n        /* \"#utility.yul\":5376:5519   */\n    tag_74:\n        /* \"#utility.yul\":5433:5438   */\n      0x00\n        /* \"#utility.yul\":5464:5470   */\n      dup2\n        /* \"#utility.yul\":5458:5471   */\n      mload\n        /* \"#utility.yul\":5449:5471   */\n      swap1\n      pop\n        /* \"#utility.yul\":5480:5513   */\n      tag_141\n        /* \"#utility.yul\":5507:5512   */\n      dup2\n        /* \"#utility.yul\":5480:5513   */\n      tag_60\n      jump\t// in\n    tag_141:\n        /* \"#utility.yul\":5376:5519   */\n      swap3\n      swap2\n      pop\n      pop\n      jump\t// out\n        /* \"#utility.yul\":5525:6496   */\n    tag_48:\n        /* \"#utility.yul\":5628:5634   */\n      0x00\n        /* \"#utility.yul\":5636:5642   */\n      dup1\n        /* \"#utility.yul\":5644:5650   */\n      0x00\n        /* \"#utility.yul\":5652:5658   */\n      dup1\n        /* \"#utility.yul\":5660:5666   */\n      0x00\n        /* \"#utility.yul\":5709:5712   */\n      0xa0\n        /* \"#utility.yul\":5697:5706   */\n      dup7\n        /* \"#utility.yul\":5688:5695   */\n      dup9\n        /* \"#utility.yul\":5684:5707   */\n      sub\n        /* \"#utility.yul\":5680:5713   */\n      slt\n        /* \"#utility.yul\":5677:5797   */\n      iszero\n      tag_143\n      jumpi\n        /* \"#utility.yul\":5716:5795   */\n      tag_144\n      tag_52\n      jump\t// in\n    tag_144:\n        /* \"#utility.yul\":5677:5797   */\n    tag_143:\n        /* \"#utility.yul\":5836:5837   */\n      0x00\n        /* \"#utility.yul\":5861:5924   */\n      tag_145\n        /* \"#utility.yul\":5916:5923   */\n      dup9\n        /* \"#utility.yul\":5907:5913   */\n      dup3\n        /* \"#utility.yul\":5896:5905   */\n      dup10\n        /* \"#utility.yul\":5892:5914   */\n      add\n        /* \"#utility.yul\":5861:5924   */\n      tag_70\n      jump\t// in\n    tag_145:\n        /* \"#utility.yul\":5851:5924   */\n      swap6\n      pop\n        /* \"#utility.yul\":5807:5934   */\n      pop\n        /* \"#utility.yul\":5973:5975   */\n      0x20\n        /* \"#utility.yul\":5999:6062   */\n      tag_146\n        /* \"#utility.yul\":6054:6061   */\n      dup9\n        /* \"#utility.yul\":6045:6051   */\n      dup3\n        /* \"#utility.yul\":6034:6043   */\n      dup10\n        /* \"#utility.yul\":6030:6052   */\n      add\n        /* \"#utility.yul\":5999:6062   */\n      tag_73\n      jump\t// in\n    tag_146:\n        /* \"#utility.yul\":5989:6062   */\n      swap5\n      pop\n        /* \"#utility.yul\":5944:6072   */\n      pop\n        /* \"#utility.yul\":6111:6113   */\n      0x40\n        /* \"#utility.yul\":6137:6201   */\n      tag_147\n        /* \"#utility.yul\":6193:6200   */\n      dup9\n        /* \"#utility.yul\":6184:6190   */\n      dup3\n        /* \"#utility.yul\":6173:6182   */\n      dup10\n        /* \"#utility.yul\":6169:6191   */\n      add\n        /* \"#utility.yul\":6137:6201   */\n      tag_74\n      jump\t// in\n    tag_147:\n        /* \"#utility.yul\":6127:6201   */\n      swap4\n      pop\n        /* \"#utility.yul\":6082:6211   */\n      pop\n        /* \"#utility.yul\":6250:6252   */\n      0x60\n        /* \"#utility.yul\":6276:6340   */\n      tag_148\n        /* \"#utility.yul\":6332:6339   */\n      dup9\n        /* \"#utility.yul\":6323:6329   */\n      dup3\n        /* \"#utility.yul\":6312:6321   */\n      dup10\n        /* \"#utility.yul\":6308:6330   */\n      add\n        /* \"#utility.yul\":6276:6340   */\n      tag_74\n      jump\t// in\n    tag_148:\n        /* \"#utility.yul\":6266:6340   */\n      swap3\n      pop\n        /* \"#utility.yul\":6221:6350   */\n      pop\n        /* \"#utility.yul\":6389:6392   */\n      0x80\n        /* \"#utility.yul\":6416:6479   */\n      tag_149\n        /* \"#utility.yul\":6471:6478   */\n      dup9\n        /* \"#utility.yul\":6462:6468   */\n      dup3\n        /* \"#utility.yul\":6451:6460   */\n      dup10\n        /* \"#utility.yul\":6447:6469   */\n      add\n        /* \"#utility.yul\":6416:6479   */\n      tag_70\n      jump\t// in\n    tag_149:\n        /* \"#utility.yul\":6406:6479   */\n      swap2\n      pop\n        /* \"#utility.yul\":6360:6489   */\n      pop\n        /* \"#utility.yul\":5525:6496   */\n      swap3\n      swap6\n      pop\n      swap3\n      swap6\n      swap1\n      swap4\n      pop\n      jump\t// out\n        /* \"#utility.yul\":6502:7493   */\n    tag_50:\n        /* \"#utility.yul\":6541:6548   */\n      0x00\n        /* \"#utility.yul\":6564:6583   */\n      tag_151\n        /* \"#utility.yul\":6581:6582   */\n      dup3\n        /* \"#utility.yul\":6564:6583   */\n      tag_71\n      jump\t// in\n    tag_151:\n        /* \"#utility.yul\":6559:6583   */\n      swap2\n      pop\n        /* \"#utility.yul\":6597:6616   */\n      tag_152\n        /* \"#utility.yul\":6614:6615   */\n      dup4\n        /* \"#utility.yul\":6597:6616   */\n      tag_71\n      jump\t// in\n    tag_152:\n        /* \"#utility.yul\":6592:6616   */\n      swap3\n      pop\n        /* \"#utility.yul\":6798:6799   */\n      dup3\n        /* \"#utility.yul\":6730:6796   */\n      0x7fffffffffffffffffffffffffffffffffffffffffffffffffffffffffffffff\n        /* \"#utility.yul\":6726:6800   */\n      div\n        /* \"#utility.yul\":6723:6724   */\n      dup3\n        /* \"#utility.yul\":6720:6801   */\n      gt\n        /* \"#utility.yul\":6715:6716   */\n      0x00\n        /* \"#utility.yul\":6712:6713   */\n      dup5\n        /* \"#utility.yul\":6708:6717   */\n      sgt\n        /* \"#utility.yul\":6704:6705   */\n      0x00\n        /* \"#utility.yul\":6701:6702   */\n      dup5\n        /* \"#utility.yul\":6697:6706   */\n      sgt\n        /* \"#utility.yul\":6693:6718   */\n      and\n        /* \"#utility.yul\":6689:6802   */\n      and\n        /* \"#utility.yul\":6686:6825   */\n      iszero\n      tag_153\n      jumpi\n        /* \"#utility.yul\":6805:6823   */\n      tag_154\n      tag_66\n      jump\t// in\n    tag_154:\n        /* \"#utility.yul\":6686:6825   */\n    tag_153:\n        /* \"#utility.yul\":7009:7010   */\n      dup2\n        /* \"#utility.yul\":6941:7007   */\n      0x8000000000000000000000000000000000000000000000000000000000000000\n        /* \"#utility.yul\":6936:7011   */\n      sdiv\n        /* \"#utility.yul\":6933:6934   */\n      dup4\n        /* \"#utility.yul\":6929:7012   */\n      slt\n        /* \"#utility.yul\":6924:6925   */\n      0x00\n        /* \"#utility.yul\":6921:6922   */\n      dup5\n        /* \"#utility.yul\":6917:6926   */\n      slt\n        /* \"#utility.yul\":6913:6914   */\n      0x00\n        /* \"#utility.yul\":6910:6911   */\n      dup5\n        /* \"#utility.yul\":6906:6915   */\n      sgt\n        /* \"#utility.yul\":6902:6927   */\n      and\n        /* \"#utility.yul\":6898:7013   */\n      and\n        /* \"#utility.yul\":6895:7036   */\n      iszero\n      tag_155\n      jumpi\n        /* \"#utility.yul\":7016:7034   */\n      tag_156\n      tag_66\n      jump\t// in\n    tag_156:\n        /* \"#utility.yul\":6895:7036   */\n    tag_155:\n        /* \"#utility.yul\":7220:7221   */\n      dup3\n        /* \"#utility.yul\":7152:7218   */\n      0x8000000000000000000000000000000000000000000000000000000000000000\n        /* \"#utility.yul\":7147:7222   */\n      sdiv\n        /* \"#utility.yul\":7144:7145   */\n      dup3\n        /* \"#utility.yul\":7140:7223   */\n      slt\n        /* \"#utility.yul\":7135:7136   */\n      0x00\n        /* \"#utility.yul\":7132:7133   */\n      dup5\n        /* \"#utility.yul\":7128:7137   */\n      sgt\n        /* \"#utility.yul\":7124:7125   */\n      0x00\n        /* \"#utility.yul\":7121:7122   */\n      dup5\n        /* \"#utility.yul\":7117:7126   */\n      slt\n        /* \"#utility.yul\":7113:7138   */\n      and\n        /* \"#utility.yul\":7109:7224   */\n      and\n        /* \"#utility.yul\":7106:7247   */\n      iszero\n      tag_157\n      jumpi\n        /* \"#utility.yul\":7227:7245   */\n      tag_158\n      tag_66\n      jump\t// in\n    tag_158:\n        /* \"#utility.yul\":7106:7247   */\n    tag_157:\n        /* \"#utility.yul\":7430:7431   */\n      dup3\n        /* \"#utility.yul\":7362:7428   */\n      0x7fffffffffffffffffffffffffffffffffffffffffffffffffffffffffffffff\n        /* \"#utility.yul\":7357:7432   */\n      sdiv\n        /* \"#utility.yul\":7354:7355   */\n      dup3\n        /* \"#utility.yul\":7350:7433   */\n      slt\n        /* \"#utility.yul\":7345:7346   */\n      0x00\n        /* \"#utility.yul\":7342:7343   */\n      dup5\n        /* \"#utility.yul\":7338:7347   */\n      slt\n        /* \"#utility.yul\":7334:7335   */\n      0x00\n        /* \"#utility.yul\":7331:7332   */\n      dup5\n        /* \"#utility.yul\":7327:7336   */\n      slt\n        /* \"#utility.yul\":7323:7348   */\n      and\n        /* \"#utility.yul\":7319:7434   */\n      and\n        /* \"#utility.yul\":7316:7457   */\n      iszero\n      tag_159\n      jumpi\n        /* \"#utility.yul\":7437:7455   */\n      tag_160\n      tag_66\n      jump\t// in\n    tag_160:\n        /* \"#utility.yul\":7316:7457   */\n    tag_159:\n        /* \"#utility.yul\":7485:7486   */\n      dup3\n        /* \"#utility.yul\":7482:7483   */\n      dup3\n        /* \"#utility.yul\":7478:7487   */\n      mul\n        /* \"#utility.yul\":7467:7487   */\n      swap1\n      pop\n        /* \"#utility.yul\":6502:7493   */\n      swap3\n      swap2\n      pop\n      pop\n      jump\t// out\n\n    auxdata: 0xa264697066735822122044db7926658b742cac02014552e5105a8194f5e9160466f0881e3d359afcc51264736f6c63430008080033\n}\n",
				"bytecode": {
					"linkReferences": {},
					"object": "60806040526802b5e3af16b188000060005534801561001d57600080fd5b506108448061002d6000396000f3fe60806040526004361061003f5760003560e01c80633e47d6f314610044578063b60d428814610081578063dc0d3dff1461008b578063f1b7c0ef146100c8575b600080fd5b34801561005057600080fd5b5061006b600480360381019061006691906103a5565b6100f3565b60405161007891906103eb565b60405180910390f35b61008961010b565b005b34801561009757600080fd5b506100b260048036038101906100ad9190610432565b61020b565b6040516100bf919061046e565b60405180910390f35b3480156100d457600080fd5b506100dd61024a565b6040516100ea91906103eb565b60405180910390f35b60026020528060005260406000206000915090505481565b61011434610250565b5060005461012134610250565b1015610162576040517f08c379a0000000000000000000000000000000000000000000000000000000008152600401610159906104e6565b60405180910390fd5b6001339080600181540180825580915050600190039060005260206000200160009091909190916101000a81548173ffffffffffffffffffffffffffffffffffffffff021916908373ffffffffffffffffffffffffffffffffffffffff16021790555034600260003373ffffffffffffffffffffffffffffffffffffffff1673ffffffffffffffffffffffffffffffffffffffff16815260200190815260200160002081905550565b6001818154811061021b57600080fd5b906000526020600020016000915054906101000a900473ffffffffffffffffffffffffffffffffffffffff1681565b60005481565b60008061025b61028a565b90506000670de0b6b3a764000084836102749190610535565b61027e91906105be565b90508092505050919050565b600080738a753747a1fa494ec906ce90e9f37563a8af630e905060008173ffffffffffffffffffffffffffffffffffffffff1663feaf968c6040518163ffffffff1660e01b815260040160a06040518083038186803b1580156102ec57600080fd5b505afa158015610300573d6000803e3d6000fd5b505050506040513d601f19601f82011682018060405250810190610324919061067c565b5050509150506402540be4008161033b91906106f7565b9250505090565b600080fd5b600073ffffffffffffffffffffffffffffffffffffffff82169050919050565b600061037282610347565b9050919050565b61038281610367565b811461038d57600080fd5b50565b60008135905061039f81610379565b92915050565b6000602082840312156103bb576103ba610342565b5b60006103c984828501610390565b91505092915050565b6000819050919050565b6103e5816103d2565b82525050565b600060208201905061040060008301846103dc565b92915050565b61040f816103d2565b811461041a57600080fd5b50565b60008135905061042c81610406565b92915050565b60006020828403121561044857610447610342565b5b60006104568482850161041d565b91505092915050565b61046881610367565b82525050565b6000602082019050610483600083018461045f565b92915050565b600082825260208201905092915050565b7f4469646e27742073656e6420656e6f7567682121210000000000000000000000600082015250565b60006104d0601583610489565b91506104db8261049a565b602082019050919050565b600060208201905081810360008301526104ff816104c3565b9050919050565b7f4e487b7100000000000000000000000000000000000000000000000000000000600052601160045260246000fd5b6000610540826103d2565b915061054b836103d2565b9250817fffffffffffffffffffffffffffffffffffffffffffffffffffffffffffffffff048311821515161561058457610583610506565b5b828202905092915050565b7f4e487b7100000000000000000000000000000000000000000000000000000000600052601260045260246000fd5b60006105c9826103d2565b91506105d4836103d2565b9250826105e4576105e361058f565b5b828204905092915050565b600069ffffffffffffffffffff82169050919050565b61060e816105ef565b811461061957600080fd5b50565b60008151905061062b81610605565b92915050565b6000819050919050565b61064481610631565b811461064f57600080fd5b50565b6000815190506106618161063b565b92915050565b60008151905061067681610406565b92915050565b600080600080600060a0868803121561069857610697610342565b5b60006106a68882890161061c565b95505060206106b788828901610652565b94505060406106c888828901610667565b93505060606106d988828901610667565b92505060806106ea8882890161061c565b9150509295509295909350565b600061070282610631565b915061070d83610631565b9250827f7fffffffffffffffffffffffffffffffffffffffffffffffffffffffffffffff048211600084136000841316161561074c5761074b610506565b5b817f8000000000000000000000000000000000000000000000000000000000000000058312600084126000841316161561078957610788610506565b5b827f800000000000000000000000000000000000000000000000000000000000000005821260008413600084121616156107c6576107c5610506565b5b827f7fffffffffffffffffffffffffffffffffffffffffffffffffffffffffffffff058212600084126000841216161561080357610802610506565b5b82820290509291505056fea264697066735822122044db7926658b742cac02014552e5105a8194f5e9160466f0881e3d359afcc51264736f6c63430008080033",
					"opcodes": "PUSH1 0x80 PUSH1 0x40 MSTORE PUSH9 0x2B5E3AF16B1880000 PUSH1 0x0 SSTORE CALLVALUE DUP1 ISZERO PUSH2 0x1D JUMPI PUSH1 0x0 DUP1 REVERT JUMPDEST POP PUSH2 0x844 DUP1 PUSH2 0x2D PUSH1 0x0 CODECOPY PUSH1 0x0 RETURN INVALID PUSH1 0x80 PUSH1 0x40 MSTORE PUSH1 0x4 CALLDATASIZE LT PUSH2 0x3F JUMPI PUSH1 0x0 CALLDATALOAD PUSH1 0xE0 SHR DUP1 PUSH4 0x3E47D6F3 EQ PUSH2 0x44 JUMPI DUP1 PUSH4 0xB60D4288 EQ PUSH2 0x81 JUMPI DUP1 PUSH4 0xDC0D3DFF EQ PUSH2 0x8B JUMPI DUP1 PUSH4 0xF1B7C0EF EQ PUSH2 0xC8 JUMPI JUMPDEST PUSH1 0x0 DUP1 REVERT JUMPDEST CALLVALUE DUP1 ISZERO PUSH2 0x50 JUMPI PUSH1 0x0 DUP1 REVERT JUMPDEST POP PUSH2 0x6B PUSH1 0x4 DUP1 CALLDATASIZE SUB DUP2 ADD SWAP1 PUSH2 0x66 SWAP2 SWAP1 PUSH2 0x3A5 JUMP JUMPDEST PUSH2 0xF3 JUMP JUMPDEST PUSH1 0x40 MLOAD PUSH2 0x78 SWAP2 SWAP1 PUSH2 0x3EB JUMP JUMPDEST PUSH1 0x40 MLOAD DUP1 SWAP2 SUB SWAP1 RETURN JUMPDEST PUSH2 0x89 PUSH2 0x10B JUMP JUMPDEST STOP JUMPDEST CALLVALUE DUP1 ISZERO PUSH2 0x97 JUMPI PUSH1 0x0 DUP1 REVERT JUMPDEST POP PUSH2 0xB2 PUSH1 0x4 DUP1 CALLDATASIZE SUB DUP2 ADD SWAP1 PUSH2 0xAD SWAP2 SWAP1 PUSH2 0x432 JUMP JUMPDEST PUSH2 0x20B JUMP JUMPDEST PUSH1 0x40 MLOAD PUSH2 0xBF SWAP2 SWAP1 PUSH2 0x46E JUMP JUMPDEST PUSH1 0x40 MLOAD DUP1 SWAP2 SUB SWAP1 RETURN JUMPDEST CALLVALUE DUP1 ISZERO PUSH2 0xD4 JUMPI PUSH1 0x0 DUP1 REVERT JUMPDEST POP PUSH2 0xDD PUSH2 0x24A JUMP JUMPDEST PUSH1 0x40 MLOAD PUSH2 0xEA SWAP2 SWAP1 PUSH2 0x3EB JUMP JUMPDEST PUSH1 0x40 MLOAD DUP1 SWAP2 SUB SWAP1 RETURN JUMPDEST PUSH1 0x2 PUSH1 0x20 MSTORE DUP1 PUSH1 0x0 MSTORE PUSH1 0x40 PUSH1 0x0 KECCAK256 PUSH1 0x0 SWAP2 POP SWAP1 POP SLOAD DUP2 JUMP JUMPDEST PUSH2 0x114 CALLVALUE PUSH2 0x250 JUMP JUMPDEST POP PUSH1 0x0 SLOAD PUSH2 0x121 CALLVALUE PUSH2 0x250 JUMP JUMPDEST LT ISZERO PUSH2 0x162 JUMPI PUSH1 0x40 MLOAD PUSH32 0x8C379A000000000000000000000000000000000000000000000000000000000 DUP2 MSTORE PUSH1 0x4 ADD PUSH2 0x159 SWAP1 PUSH2 0x4E6 JUMP JUMPDEST PUSH1 0x40 MLOAD DUP1 SWAP2 SUB SWAP1 REVERT JUMPDEST PUSH1 0x1 CALLER SWAP1 DUP1 PUSH1 0x1 DUP2 SLOAD ADD DUP1 DUP3 SSTORE DUP1 SWAP2 POP POP PUSH1 0x1 SWAP1 SUB SWAP1 PUSH1 0x0 MSTORE PUSH1 0x20 PUSH1 0x0 KECCAK256 ADD PUSH1 0x0 SWAP1 SWAP2 SWAP1 SWAP2 SWAP1 SWAP2 PUSH2 0x100 EXP DUP2 SLOAD DUP2 PUSH20 0xFFFFFFFFFFFFFFFFFFFFFFFFFFFFFFFFFFFFFFFF MUL NOT AND SWAP1 DUP4 PUSH20 0xFFFFFFFFFFFFFFFFFFFFFFFFFFFFFFFFFFFFFFFF AND MUL OR SWAP1 SSTORE POP CALLVALUE PUSH1 0x2 PUSH1 0x0 CALLER PUSH20 0xFFFFFFFFFFFFFFFFFFFFFFFFFFFFFFFFFFFFFFFF AND PUSH20 0xFFFFFFFFFFFFFFFFFFFFFFFFFFFFFFFFFFFFFFFF AND DUP2 MSTORE PUSH1 0x20 ADD SWAP1 DUP2 MSTORE PUSH1 0x20 ADD PUSH1 0x0 KECCAK256 DUP2 SWAP1 SSTORE POP JUMP JUMPDEST PUSH1 0x1 DUP2 DUP2 SLOAD DUP2 LT PUSH2 0x21B JUMPI PUSH1 0x0 DUP1 REVERT JUMPDEST SWAP1 PUSH1 0x0 MSTORE PUSH1 0x20 PUSH1 0x0 KECCAK256 ADD PUSH1 0x0 SWAP2 POP SLOAD SWAP1 PUSH2 0x100 EXP SWAP1 DIV PUSH20 0xFFFFFFFFFFFFFFFFFFFFFFFFFFFFFFFFFFFFFFFF AND DUP2 JUMP JUMPDEST PUSH1 0x0 SLOAD DUP2 JUMP JUMPDEST PUSH1 0x0 DUP1 PUSH2 0x25B PUSH2 0x28A JUMP JUMPDEST SWAP1 POP PUSH1 0x0 PUSH8 0xDE0B6B3A7640000 DUP5 DUP4 PUSH2 0x274 SWAP2 SWAP1 PUSH2 0x535 JUMP JUMPDEST PUSH2 0x27E SWAP2 SWAP1 PUSH2 0x5BE JUMP JUMPDEST SWAP1 POP DUP1 SWAP3 POP POP POP SWAP2 SWAP1 POP JUMP JUMPDEST PUSH1 0x0 DUP1 PUSH20 0x8A753747A1FA494EC906CE90E9F37563A8AF630E SWAP1 POP PUSH1 0x0 DUP2 PUSH20 0xFFFFFFFFFFFFFFFFFFFFFFFFFFFFFFFFFFFFFFFF AND PUSH4 0xFEAF968C PUSH1 0x40 MLOAD DUP2 PUSH4 0xFFFFFFFF AND PUSH1 0xE0 SHL DUP2 MSTORE PUSH1 0x4 ADD PUSH1 0xA0 PUSH1 0x40 MLOAD DUP1 DUP4 SUB DUP2 DUP7 DUP1 EXTCODESIZE ISZERO DUP1 ISZERO PUSH2 0x2EC JUMPI PUSH1 0x0 DUP1 REVERT JUMPDEST POP GAS STATICCALL ISZERO DUP1 ISZERO PUSH2 0x300 JUMPI RETURNDATASIZE PUSH1 0x0 DUP1 RETURNDATACOPY RETURNDATASIZE PUSH1 0x0 REVERT JUMPDEST POP POP POP POP PUSH1 0x40 MLOAD RETURNDATASIZE PUSH1 0x1F NOT PUSH1 0x1F DUP3 ADD AND DUP3 ADD DUP1 PUSH1 0x40 MSTORE POP DUP2 ADD SWAP1 PUSH2 0x324 SWAP2 SWAP1 PUSH2 0x67C JUMP JUMPDEST POP POP POP SWAP2 POP POP PUSH5 0x2540BE400 DUP2 PUSH2 0x33B SWAP2 SWAP1 PUSH2 0x6F7 JUMP JUMPDEST SWAP3 POP POP POP SWAP1 JUMP JUMPDEST PUSH1 0x0 DUP1 REVERT JUMPDEST PUSH1 0x0 PUSH20 0xFFFFFFFFFFFFFFFFFFFFFFFFFFFFFFFFFFFFFFFF DUP3 AND SWAP1 POP SWAP2 SWAP1 POP JUMP JUMPDEST PUSH1 0x0 PUSH2 0x372 DUP3 PUSH2 0x347 JUMP JUMPDEST SWAP1 POP SWAP2 SWAP1 POP JUMP JUMPDEST PUSH2 0x382 DUP2 PUSH2 0x367 JUMP JUMPDEST DUP2 EQ PUSH2 0x38D JUMPI PUSH1 0x0 DUP1 REVERT JUMPDEST POP JUMP JUMPDEST PUSH1 0x0 DUP2 CALLDATALOAD SWAP1 POP PUSH2 0x39F DUP2 PUSH2 0x379 JUMP JUMPDEST SWAP3 SWAP2 POP POP JUMP JUMPDEST PUSH1 0x0 PUSH1 0x20 DUP3 DUP5 SUB SLT ISZERO PUSH2 0x3BB JUMPI PUSH2 0x3BA PUSH2 0x342 JUMP JUMPDEST JUMPDEST PUSH1 0x0 PUSH2 0x3C9 DUP5 DUP3 DUP6 ADD PUSH2 0x390 JUMP JUMPDEST SWAP2 POP POP SWAP3 SWAP2 POP POP JUMP JUMPDEST PUSH1 0x0 DUP2 SWAP1 POP SWAP2 SWAP1 POP JUMP JUMPDEST PUSH2 0x3E5 DUP2 PUSH2 0x3D2 JUMP JUMPDEST DUP3 MSTORE POP POP JUMP JUMPDEST PUSH1 0x0 PUSH1 0x20 DUP3 ADD SWAP1 POP PUSH2 0x400 PUSH1 0x0 DUP4 ADD DUP5 PUSH2 0x3DC JUMP JUMPDEST SWAP3 SWAP2 POP POP JUMP JUMPDEST PUSH2 0x40F DUP2 PUSH2 0x3D2 JUMP JUMPDEST DUP2 EQ PUSH2 0x41A JUMPI PUSH1 0x0 DUP1 REVERT JUMPDEST POP JUMP JUMPDEST PUSH1 0x0 DUP2 CALLDATALOAD SWAP1 POP PUSH2 0x42C DUP2 PUSH2 0x406 JUMP JUMPDEST SWAP3 SWAP2 POP POP JUMP JUMPDEST PUSH1 0x0 PUSH1 0x20 DUP3 DUP5 SUB SLT ISZERO PUSH2 0x448 JUMPI PUSH2 0x447 PUSH2 0x342 JUMP JUMPDEST JUMPDEST PUSH1 0x0 PUSH2 0x456 DUP5 DUP3 DUP6 ADD PUSH2 0x41D JUMP JUMPDEST SWAP2 POP POP SWAP3 SWAP2 POP POP JUMP JUMPDEST PUSH2 0x468 DUP2 PUSH2 0x367 JUMP JUMPDEST DUP3 MSTORE POP POP JUMP JUMPDEST PUSH1 0x0 PUSH1 0x20 DUP3 ADD SWAP1 POP PUSH2 0x483 PUSH1 0x0 DUP4 ADD DUP5 PUSH2 0x45F JUMP JUMPDEST SWAP3 SWAP2 POP POP JUMP JUMPDEST PUSH1 0x0 DUP3 DUP3 MSTORE PUSH1 0x20 DUP3 ADD SWAP1 POP SWAP3 SWAP2 POP POP JUMP JUMPDEST PUSH32 0x4469646E27742073656E6420656E6F7567682121210000000000000000000000 PUSH1 0x0 DUP3 ADD MSTORE POP JUMP JUMPDEST PUSH1 0x0 PUSH2 0x4D0 PUSH1 0x15 DUP4 PUSH2 0x489 JUMP JUMPDEST SWAP2 POP PUSH2 0x4DB DUP3 PUSH2 0x49A JUMP JUMPDEST PUSH1 0x20 DUP3 ADD SWAP1 POP SWAP2 SWAP1 POP JUMP JUMPDEST PUSH1 0x0 PUSH1 0x20 DUP3 ADD SWAP1 POP DUP2 DUP2 SUB PUSH1 0x0 DUP4 ADD MSTORE PUSH2 0x4FF DUP2 PUSH2 0x4C3 JUMP JUMPDEST SWAP1 POP SWAP2 SWAP1 POP JUMP JUMPDEST PUSH32 0x4E487B7100000000000000000000000000000000000000000000000000000000 PUSH1 0x0 MSTORE PUSH1 0x11 PUSH1 0x4 MSTORE PUSH1 0x24 PUSH1 0x0 REVERT JUMPDEST PUSH1 0x0 PUSH2 0x540 DUP3 PUSH2 0x3D2 JUMP JUMPDEST SWAP2 POP PUSH2 0x54B DUP4 PUSH2 0x3D2 JUMP JUMPDEST SWAP3 POP DUP2 PUSH32 0xFFFFFFFFFFFFFFFFFFFFFFFFFFFFFFFFFFFFFFFFFFFFFFFFFFFFFFFFFFFFFFFF DIV DUP4 GT DUP3 ISZERO ISZERO AND ISZERO PUSH2 0x584 JUMPI PUSH2 0x583 PUSH2 0x506 JUMP JUMPDEST JUMPDEST DUP3 DUP3 MUL SWAP1 POP SWAP3 SWAP2 POP POP JUMP JUMPDEST PUSH32 0x4E487B7100000000000000000000000000000000000000000000000000000000 PUSH1 0x0 MSTORE PUSH1 0x12 PUSH1 0x4 MSTORE PUSH1 0x24 PUSH1 0x0 REVERT JUMPDEST PUSH1 0x0 PUSH2 0x5C9 DUP3 PUSH2 0x3D2 JUMP JUMPDEST SWAP2 POP PUSH2 0x5D4 DUP4 PUSH2 0x3D2 JUMP JUMPDEST SWAP3 POP DUP3 PUSH2 0x5E4 JUMPI PUSH2 0x5E3 PUSH2 0x58F JUMP JUMPDEST JUMPDEST DUP3 DUP3 DIV SWAP1 POP SWAP3 SWAP2 POP POP JUMP JUMPDEST PUSH1 0x0 PUSH10 0xFFFFFFFFFFFFFFFFFFFF DUP3 AND SWAP1 POP SWAP2 SWAP1 POP JUMP JUMPDEST PUSH2 0x60E DUP2 PUSH2 0x5EF JUMP JUMPDEST DUP2 EQ PUSH2 0x619 JUMPI PUSH1 0x0 DUP1 REVERT JUMPDEST POP JUMP JUMPDEST PUSH1 0x0 DUP2 MLOAD SWAP1 POP PUSH2 0x62B DUP2 PUSH2 0x605 JUMP JUMPDEST SWAP3 SWAP2 POP POP JUMP JUMPDEST PUSH1 0x0 DUP2 SWAP1 POP SWAP2 SWAP1 POP JUMP JUMPDEST PUSH2 0x644 DUP2 PUSH2 0x631 JUMP JUMPDEST DUP2 EQ PUSH2 0x64F JUMPI PUSH1 0x0 DUP1 REVERT JUMPDEST POP JUMP JUMPDEST PUSH1 0x0 DUP2 MLOAD SWAP1 POP PUSH2 0x661 DUP2 PUSH2 0x63B JUMP JUMPDEST SWAP3 SWAP2 POP POP JUMP JUMPDEST PUSH1 0x0 DUP2 MLOAD SWAP1 POP PUSH2 0x676 DUP2 PUSH2 0x406 JUMP JUMPDEST SWAP3 SWAP2 POP POP JUMP JUMPDEST PUSH1 0x0 DUP1 PUSH1 0x0 DUP1 PUSH1 0x0 PUSH1 0xA0 DUP7 DUP9 SUB SLT ISZERO PUSH2 0x698 JUMPI PUSH2 0x697 PUSH2 0x342 JUMP JUMPDEST JUMPDEST PUSH1 0x0 PUSH2 0x6A6 DUP9 DUP3 DUP10 ADD PUSH2 0x61C JUMP JUMPDEST SWAP6 POP POP PUSH1 0x20 PUSH2 0x6B7 DUP9 DUP3 DUP10 ADD PUSH2 0x652 JUMP JUMPDEST SWAP5 POP POP PUSH1 0x40 PUSH2 0x6C8 DUP9 DUP3 DUP10 ADD PUSH2 0x667 JUMP JUMPDEST SWAP4 POP POP PUSH1 0x60 PUSH2 0x6D9 DUP9 DUP3 DUP10 ADD PUSH2 0x667 JUMP JUMPDEST SWAP3 POP POP PUSH1 0x80 PUSH2 0x6EA DUP9 DUP3 DUP10 ADD PUSH2 0x61C JUMP JUMPDEST SWAP2 POP POP SWAP3 SWAP6 POP SWAP3 SWAP6 SWAP1 SWAP4 POP JUMP JUMPDEST PUSH1 0x0 PUSH2 0x702 DUP3 PUSH2 0x631 JUMP JUMPDEST SWAP2 POP PUSH2 0x70D DUP4 PUSH2 0x631 JUMP JUMPDEST SWAP3 POP DUP3 PUSH32 0x7FFFFFFFFFFFFFFFFFFFFFFFFFFFFFFFFFFFFFFFFFFFFFFFFFFFFFFFFFFFFFFF DIV DUP3 GT PUSH1 0x0 DUP5 SGT PUSH1 0x0 DUP5 SGT AND AND ISZERO PUSH2 0x74C JUMPI PUSH2 0x74B PUSH2 0x506 JUMP JUMPDEST JUMPDEST DUP2 PUSH32 0x8000000000000000000000000000000000000000000000000000000000000000 SDIV DUP4 SLT PUSH1 0x0 DUP5 SLT PUSH1 0x0 DUP5 SGT AND AND ISZERO PUSH2 0x789 JUMPI PUSH2 0x788 PUSH2 0x506 JUMP JUMPDEST JUMPDEST DUP3 PUSH32 0x8000000000000000000000000000000000000000000000000000000000000000 SDIV DUP3 SLT PUSH1 0x0 DUP5 SGT PUSH1 0x0 DUP5 SLT AND AND ISZERO PUSH2 0x7C6 JUMPI PUSH2 0x7C5 PUSH2 0x506 JUMP JUMPDEST JUMPDEST DUP3 PUSH32 0x7FFFFFFFFFFFFFFFFFFFFFFFFFFFFFFFFFFFFFFFFFFFFFFFFFFFFFFFFFFFFFFF SDIV DUP3 SLT PUSH1 0x0 DUP5 SLT PUSH1 0x0 DUP5 SLT AND AND ISZERO PUSH2 0x803 JUMPI PUSH2 0x802 PUSH2 0x506 JUMP JUMPDEST JUMPDEST DUP3 DUP3 MUL SWAP1 POP SWAP3 SWAP2 POP POP JUMP INVALID LOG2 PUSH5 0x6970667358 0x22 SLT KECCAK256 DIFFICULTY 0xDB PUSH26 0x26658B742CAC02014552E5105A8194F5E9160466F0881E3D359A 0xFC 0xC5 SLT PUSH5 0x736F6C6343 STOP ADDMOD ADDMOD STOP CALLER "
				},
				"gasEstimates": {
					"creation": {
						"codeDepositCost": "423200",
						"executionCost": "22567",
						"totalCost": "445767"
					},
					"external": {
						"addressToAmountFunded(address)": "2792",
						"fund()": "infinite",
						"funders(uint256)": "4978",
						"minimunUSD()": "2473"
					}
				},
				"methodIdentifiers": {
					"addressToAmountFunded(address)": "3e47d6f3",
					"fund()": "b60d4288",
					"funders(uint256)": "dc0d3dff",
					"minimunUSD()": "f1b7c0ef"
				}
			},
			"storageLayout": {
				"storage": [
					{
						"astId": 56,
						"contract": "contracts/FundMe.sol:FundMe",
						"label": "minimunUSD",
						"offset": 0,
						"slot": "0",
						"type": "t_uint256"
					},
					{
						"astId": 59,
						"contract": "contracts/FundMe.sol:FundMe",
						"label": "funders",
						"offset": 0,
						"slot": "1",
						"type": "t_array(t_address)dyn_storage"
					},
					{
						"astId": 63,
						"contract": "contracts/FundMe.sol:FundMe",
						"label": "addressToAmountFunded",
						"offset": 0,
						"slot": "2",
						"type": "t_mapping(t_address,t_uint256)"
					}
				],
				"types": {
					"t_address": {
						"encoding": "inplace",
						"label": "address",
						"numberOfBytes": "20"
					},
					"t_array(t_address)dyn_storage": {
						"base": "t_address",
						"encoding": "dynamic_array",
						"label": "address[]",
						"numberOfBytes": "32"
					},
					"t_mapping(t_address,t_uint256)": {
						"encoding": "mapping",
						"key": "t_address",
						"label": "mapping(address => uint256)",
						"numberOfBytes": "32",
						"value": "t_uint256"
					},
					"t_uint256": {
						"encoding": "inplace",
						"label": "uint256",
						"numberOfBytes": "32"
					}
				}
			},
			"userdoc": {
				"kind": "user",
				"methods": {},
				"version": 1
			}
		}
	}
}