{
	"contracts/FundMe.sol": {
		"FundMe": {
			"abi": [
				{
					"inputs": [
						{
							"internalType": "address",
							"name": "",
							"type": "address"
						}
					],
					"name": "addressToAmountFunded",
					"outputs": [
						{
							"internalType": "uint256",
							"name": "",
							"type": "uint256"
						}
					],
					"stateMutability": "view",
					"type": "function"
				},
				{
					"inputs": [],
					"name": "fund",
					"outputs": [],
					"stateMutability": "payable",
					"type": "function"
				},
				{
					"inputs": [
						{
							"internalType": "uint256",
							"name": "",
							"type": "uint256"
						}
					],
					"name": "funders",
					"outputs": [
						{
							"internalType": "address",
							"name": "",
							"type": "address"
						}
					],
					"stateMutability": "view",
					"type": "function"
				},
				{
					"inputs": [],
					"name": "minimunUSD",
					"outputs": [
						{
							"internalType": "uint256",
							"name": "",
							"type": "uint256"
						}
					],
					"stateMutability": "view",
					"type": "function"
				},
				{
					"inputs": [],
					"name": "withdraw",
					"outputs": [],
					"stateMutability": "nonpayable",
					"type": "function"
				}
			],
			"devdoc": {
				"kind": "dev",
				"methods": {},
				"version": 1
			},
			"evm": {
				"assembly": "    /* \"contracts/FundMe.sol\":272:2930  contract FundMe {... */\n  mstore(0x40, 0x80)\n    /* \"contracts/FundMe.sol\":550:559  50 * 1e18 */\n  0x02b5e3af16b1880000\n    /* \"contracts/FundMe.sol\":522:559  uint256 public minimunUSD = 50 * 1e18 */\n  0x00\n  sstore\n    /* \"contracts/FundMe.sol\":272:2930  contract FundMe {... */\n  callvalue\n  dup1\n  iszero\n  tag_1\n  jumpi\n  0x00\n  dup1\n  revert\ntag_1:\n  pop\n  dataSize(sub_0)\n  dup1\n  dataOffset(sub_0)\n  0x00\n  codecopy\n  0x00\n  return\nstop\n\nsub_0: assembly {\n        /* \"contracts/FundMe.sol\":272:2930  contract FundMe {... */\n      mstore(0x40, 0x80)\n      jumpi(tag_1, lt(calldatasize, 0x04))\n      shr(0xe0, calldataload(0x00))\n      dup1\n      0x3ccfd60b\n      eq\n      tag_2\n      jumpi\n      dup1\n      0x3e47d6f3\n      eq\n      tag_3\n      jumpi\n      dup1\n      0xb60d4288\n      eq\n      tag_4\n      jumpi\n      dup1\n      0xdc0d3dff\n      eq\n      tag_5\n      jumpi\n      dup1\n      0xf1b7c0ef\n      eq\n      tag_6\n      jumpi\n    tag_1:\n      0x00\n      dup1\n      revert\n        /* \"contracts/FundMe.sol\":1899:2928  function withdraw() public {... */\n    tag_2:\n      callvalue\n      dup1\n      iszero\n      tag_7\n      jumpi\n      0x00\n      dup1\n      revert\n    tag_7:\n      pop\n      tag_8\n      tag_9\n      jump\t// in\n    tag_8:\n      stop\n        /* \"contracts/FundMe.sol\":736:792  mapping(address => uint256) public addressToAmountFunded */\n    tag_3:\n      callvalue\n      dup1\n      iszero\n      tag_10\n      jumpi\n      0x00\n      dup1\n      revert\n    tag_10:\n      pop\n      tag_11\n      0x04\n      dup1\n      calldatasize\n      sub\n      dup2\n      add\n      swap1\n      tag_12\n      swap2\n      swap1\n      tag_13\n      jump\t// in\n    tag_12:\n      tag_14\n      jump\t// in\n    tag_11:\n      mload(0x40)\n      tag_15\n      swap2\n      swap1\n      tag_16\n      jump\t// in\n    tag_15:\n      mload(0x40)\n      dup1\n      swap2\n      sub\n      swap1\n      return\n        /* \"contracts/FundMe.sol\":899:1893  function fund() public payable {... */\n    tag_4:\n      tag_17\n      tag_18\n      jump\t// in\n    tag_17:\n      stop\n        /* \"contracts/FundMe.sol\":603:627  address[] public funders */\n    tag_5:\n      callvalue\n      dup1\n      iszero\n      tag_19\n      jumpi\n      0x00\n      dup1\n      revert\n    tag_19:\n      pop\n      tag_20\n      0x04\n      dup1\n      calldatasize\n      sub\n      dup2\n      add\n      swap1\n      tag_21\n      swap2\n      swap1\n      tag_22\n      jump\t// in\n    tag_21:\n      tag_23\n      jump\t// in\n    tag_20:\n      mload(0x40)\n      tag_24\n      swap2\n      swap1\n      tag_25\n      jump\t// in\n    tag_24:\n      mload(0x40)\n      dup1\n      swap2\n      sub\n      swap1\n      return\n        /* \"contracts/FundMe.sol\":522:559  uint256 public minimunUSD = 50 * 1e18 */\n    tag_6:\n      callvalue\n      dup1\n      iszero\n      tag_26\n      jumpi\n      0x00\n      dup1\n      revert\n    tag_26:\n      pop\n      tag_27\n      tag_28\n      jump\t// in\n    tag_27:\n      mload(0x40)\n      tag_29\n      swap2\n      swap1\n      tag_16\n      jump\t// in\n    tag_29:\n      mload(0x40)\n      dup1\n      swap2\n      sub\n      swap1\n      return\n        /* \"contracts/FundMe.sol\":1899:2928  function withdraw() public {... */\n    tag_9:\n        /* \"contracts/FundMe.sol\":2526:2527  0 */\n      0x00\n        /* \"contracts/FundMe.sol\":2511:2528  new address[] (0) */\n      0xffffffffffffffff\n      dup2\n      gt\n      iszero\n      tag_31\n      jumpi\n      tag_32\n      tag_33\n      jump\t// in\n    tag_32:\n    tag_31:\n      mload(0x40)\n      swap1\n      dup1\n      dup3\n      mstore\n      dup1\n      0x20\n      mul\n      0x20\n      add\n      dup3\n      add\n      0x40\n      mstore\n      dup1\n      iszero\n      tag_34\n      jumpi\n      dup2\n      0x20\n      add\n      0x20\n      dup3\n      mul\n      dup1\n      calldatasize\n      dup4\n      calldatacopy\n      dup1\n      dup3\n      add\n      swap2\n      pop\n      pop\n      swap1\n      pop\n    tag_34:\n      pop\n        /* \"contracts/FundMe.sol\":2501:2508  funders */\n      0x01\n        /* \"contracts/FundMe.sol\":2501:2528  funders = new address[] (0) */\n      swap1\n      dup1\n      mload\n      swap1\n      0x20\n      add\n      swap1\n      tag_35\n      swap3\n      swap2\n      swap1\n      tag_36\n      jump\t// in\n    tag_35:\n      pop\n        /* \"contracts/FundMe.sol\":2565:2581  bool callSuccess */\n      0x00\n        /* \"contracts/FundMe.sol\":2624:2634  msg.sender */\n      caller\n        /* \"contracts/FundMe.sol\":2616:2640  payable(msg.sender).call */\n      0xffffffffffffffffffffffffffffffffffffffff\n      and\n        /* \"contracts/FundMe.sol\":2648:2669  address(this).balance */\n      selfbalance\n        /* \"contracts/FundMe.sol\":2616:2674  payable(msg.sender).call{value: address(this).balance}(\"\") */\n      mload(0x40)\n      tag_37\n      swap1\n      tag_38\n      jump\t// in\n    tag_37:\n      0x00\n      mload(0x40)\n      dup1\n      dup4\n      sub\n      dup2\n      dup6\n      dup8\n      gas\n      call\n      swap3\n      pop\n      pop\n      pop\n      returndatasize\n      dup1\n      0x00\n      dup2\n      eq\n      tag_41\n      jumpi\n      mload(0x40)\n      swap2\n      pop\n      and(add(returndatasize, 0x3f), not(0x1f))\n      dup3\n      add\n      0x40\n      mstore\n      returndatasize\n      dup3\n      mstore\n      returndatasize\n      0x00\n      0x20\n      dup5\n      add\n      returndatacopy\n      jump(tag_40)\n    tag_41:\n      0x60\n      swap2\n      pop\n    tag_40:\n      pop\n        /* \"contracts/FundMe.sol\":2564:2674  (bool callSuccess, /*bytes memory dataReturned*/) = payable(msg.sender).call{value: address(this).balance}(\"\") */\n      pop\n      swap1\n      pop\n        /* \"contracts/FundMe.sol\":2894:2905  callSuccess */\n      dup1\n        /* \"contracts/FundMe.sol\":2886:2921  require(callSuccess, \"Call failed\") */\n      tag_42\n      jumpi\n      mload(0x40)\n      0x08c379a000000000000000000000000000000000000000000000000000000000\n      dup2\n      mstore\n      0x04\n      add\n      tag_43\n      swap1\n      tag_44\n      jump\t// in\n    tag_43:\n      mload(0x40)\n      dup1\n      swap2\n      sub\n      swap1\n      revert\n    tag_42:\n        /* \"contracts/FundMe.sol\":1926:2928  {... */\n      pop\n        /* \"contracts/FundMe.sol\":1899:2928  function withdraw() public {... */\n      jump\t// out\n        /* \"contracts/FundMe.sol\":736:792  mapping(address => uint256) public addressToAmountFunded */\n    tag_14:\n      mstore(0x20, 0x02)\n      dup1\n      0x00\n      mstore\n      keccak256(0x00, 0x40)\n      0x00\n      swap2\n      pop\n      swap1\n      pop\n      sload\n      dup2\n      jump\t// out\n        /* \"contracts/FundMe.sol\":899:1893  function fund() public payable {... */\n    tag_18:\n        /* \"contracts/FundMe.sol\":1108:1137  msg.value.getConversionRate() */\n      tag_46\n        /* \"contracts/FundMe.sol\":1108:1117  msg.value */\n      callvalue\n        /* \"contracts/FundMe.sol\":1108:1135  msg.value.getConversionRate */\n      tag_47\n        /* \"contracts/FundMe.sol\":1108:1137  msg.value.getConversionRate() */\n      jump\t// in\n    tag_46:\n      pop\n        /* \"contracts/FundMe.sol\":1235:1245  minimunUSD */\n      sload(0x00)\n        /* \"contracts/FundMe.sol\":1202:1231  msg.value.getConversionRate() */\n      tag_48\n        /* \"contracts/FundMe.sol\":1202:1211  msg.value */\n      callvalue\n        /* \"contracts/FundMe.sol\":1202:1229  msg.value.getConversionRate */\n      tag_47\n        /* \"contracts/FundMe.sol\":1202:1231  msg.value.getConversionRate() */\n      jump\t// in\n    tag_48:\n        /* \"contracts/FundMe.sol\":1202:1245  msg.value.getConversionRate() >= minimunUSD */\n      lt\n      iszero\n        /* \"contracts/FundMe.sol\":1194:1271  require(msg.value.getConversionRate() >= minimunUSD, \"Didn't send enough!!!\") */\n      tag_49\n      jumpi\n      mload(0x40)\n      0x08c379a000000000000000000000000000000000000000000000000000000000\n      dup2\n      mstore\n      0x04\n      add\n      tag_50\n      swap1\n      tag_51\n      jump\t// in\n    tag_50:\n      mload(0x40)\n      dup1\n      swap2\n      sub\n      swap1\n      revert\n    tag_49:\n        /* \"contracts/FundMe.sol\":1590:1597  funders */\n      0x01\n        /* \"contracts/FundMe.sol\":1603:1613  msg.sender */\n      caller\n        /* \"contracts/FundMe.sol\":1590:1614  funders.push(msg.sender) */\n      swap1\n      dup1\n      0x01\n      dup2\n      sload\n      add\n      dup1\n      dup3\n      sstore\n      dup1\n      swap2\n      pop\n      pop\n      0x01\n      swap1\n      sub\n      swap1\n      0x00\n      mstore\n      keccak256(0x00, 0x20)\n      add\n      0x00\n      swap1\n      swap2\n      swap1\n      swap2\n      swap1\n      swap2\n      0x0100\n      exp\n      dup2\n      sload\n      dup2\n      0xffffffffffffffffffffffffffffffffffffffff\n      mul\n      not\n      and\n      swap1\n      dup4\n      0xffffffffffffffffffffffffffffffffffffffff\n      and\n      mul\n      or\n      swap1\n      sstore\n      pop\n        /* \"contracts/FundMe.sol\":1768:1777  msg.value */\n      callvalue\n        /* \"contracts/FundMe.sol\":1732:1753  addressToAmountFunded */\n      0x02\n        /* \"contracts/FundMe.sol\":1732:1765  addressToAmountFunded[msg.sender] */\n      0x00\n        /* \"contracts/FundMe.sol\":1754:1764  msg.sender */\n      caller\n        /* \"contracts/FundMe.sol\":1732:1765  addressToAmountFunded[msg.sender] */\n      0xffffffffffffffffffffffffffffffffffffffff\n      and\n      0xffffffffffffffffffffffffffffffffffffffff\n      and\n      dup2\n      mstore\n      0x20\n      add\n      swap1\n      dup2\n      mstore\n      0x20\n      add\n      0x00\n      keccak256\n        /* \"contracts/FundMe.sol\":1732:1777  addressToAmountFunded[msg.sender] = msg.value */\n      dup2\n      swap1\n      sstore\n      pop\n        /* \"contracts/FundMe.sol\":899:1893  function fund() public payable {... */\n      jump\t// out\n        /* \"contracts/FundMe.sol\":603:627  address[] public funders */\n    tag_23:\n      0x01\n      dup2\n      dup2\n      sload\n      dup2\n      lt\n      tag_53\n      jumpi\n      0x00\n      dup1\n      revert\n    tag_53:\n      swap1\n      0x00\n      mstore\n      keccak256(0x00, 0x20)\n      add\n      0x00\n      swap2\n      pop\n      sload\n      swap1\n      0x0100\n      exp\n      swap1\n      div\n      0xffffffffffffffffffffffffffffffffffffffff\n      and\n      dup2\n      jump\t// out\n        /* \"contracts/FundMe.sol\":522:559  uint256 public minimunUSD = 50 * 1e18 */\n    tag_28:\n      sload(0x00)\n      dup2\n      jump\t// out\n        /* \"contracts/PriceConverter.sol\":846:1474  function getConversionRate(uint256 ethAmount) internal view returns (uint256) {... */\n    tag_47:\n        /* \"contracts/PriceConverter.sol\":915:922  uint256 */\n      0x00\n        /* \"contracts/PriceConverter.sol\":1031:1047  uint256 ethPrice */\n      dup1\n        /* \"contracts/PriceConverter.sol\":1050:1060  getPrice() */\n      tag_56\n        /* \"contracts/PriceConverter.sol\":1050:1058  getPrice */\n      tag_57\n        /* \"contracts/PriceConverter.sol\":1050:1060  getPrice() */\n      jump\t// in\n    tag_56:\n        /* \"contracts/PriceConverter.sol\":1031:1060  uint256 ethPrice = getPrice() */\n      swap1\n      pop\n        /* \"contracts/PriceConverter.sol\":1179:1201  uint256 ethAmountInUsd */\n      0x00\n        /* \"contracts/PriceConverter.sol\":1229:1233  1e18 */\n      0x0de0b6b3a7640000\n        /* \"contracts/PriceConverter.sol\":1216:1225  ethAmount */\n      dup5\n        /* \"contracts/PriceConverter.sol\":1205:1213  ethPrice */\n      dup4\n        /* \"contracts/PriceConverter.sol\":1205:1225  ethPrice * ethAmount */\n      tag_58\n      swap2\n      swap1\n      tag_59\n      jump\t// in\n    tag_58:\n        /* \"contracts/PriceConverter.sol\":1204:1233  (ethPrice * ethAmount) / 1e18 */\n      tag_60\n      swap2\n      swap1\n      tag_61\n      jump\t// in\n    tag_60:\n        /* \"contracts/PriceConverter.sol\":1179:1233  uint256 ethAmountInUsd = (ethPrice * ethAmount) / 1e18 */\n      swap1\n      pop\n        /* \"contracts/PriceConverter.sol\":1453:1467  ethAmountInUsd */\n      dup1\n        /* \"contracts/PriceConverter.sol\":1446:1467  return ethAmountInUsd */\n      swap3\n      pop\n      pop\n      pop\n        /* \"contracts/PriceConverter.sol\":846:1474  function getConversionRate(uint256 ethAmount) internal view returns (uint256) {... */\n      swap2\n      swap1\n      pop\n      jump\t// out\n        /* \"contracts/PriceConverter.sol\":231:627  function getPrice() internal view returns(uint256) {... */\n    tag_57:\n        /* \"contracts/PriceConverter.sol\":273:280  uint256 */\n      0x00\n        /* \"contracts/PriceConverter.sol\":292:323  AggregatorV3Interface priceFeed */\n      dup1\n        /* \"contracts/PriceConverter.sol\":348:390  0x8A753747A1Fa494EC906cE90E9f37563A8AF630e */\n      0x8a753747a1fa494ec906ce90e9f37563a8af630e\n        /* \"contracts/PriceConverter.sol\":292:391  AggregatorV3Interface priceFeed = AggregatorV3Interface(0x8A753747A1Fa494EC906cE90E9f37563A8AF630e) */\n      swap1\n      pop\n        /* \"contracts/PriceConverter.sol\":403:415  int256 price */\n      0x00\n        /* \"contracts/PriceConverter.sol\":422:431  priceFeed */\n      dup2\n        /* \"contracts/PriceConverter.sol\":422:447  priceFeed.latestRoundData */\n      0xffffffffffffffffffffffffffffffffffffffff\n      and\n      0xfeaf968c\n        /* \"contracts/PriceConverter.sol\":422:449  priceFeed.latestRoundData() */\n      mload(0x40)\n      dup2\n      0xffffffff\n      and\n      0xe0\n      shl\n      dup2\n      mstore\n      0x04\n      add\n      0xa0\n      mload(0x40)\n      dup1\n      dup4\n      sub\n      dup2\n      dup7\n      dup1\n      extcodesize\n      iszero\n      dup1\n      iszero\n      tag_63\n      jumpi\n      0x00\n      dup1\n      revert\n    tag_63:\n      pop\n      gas\n      staticcall\n      iszero\n      dup1\n      iszero\n      tag_65\n      jumpi\n      returndatasize\n      0x00\n      dup1\n      returndatacopy\n      revert(0x00, returndatasize)\n    tag_65:\n      pop\n      pop\n      pop\n      pop\n      mload(0x40)\n      returndatasize\n      not(0x1f)\n      0x1f\n      dup3\n      add\n      and\n      dup3\n      add\n      dup1\n      0x40\n      mstore\n      pop\n      dup2\n      add\n      swap1\n      tag_66\n      swap2\n      swap1\n      tag_67\n      jump\t// in\n    tag_66:\n        /* \"contracts/PriceConverter.sol\":401:449  (,int256 price,,,) = priceFeed.latestRoundData() */\n      pop\n      pop\n      pop\n      swap2\n      pop\n      pop\n        /* \"contracts/PriceConverter.sol\":537:541  1e10 */\n      0x02540be400\n        /* \"contracts/PriceConverter.sol\":529:534  price */\n      dup2\n        /* \"contracts/PriceConverter.sol\":529:541  price * 1e10 */\n      tag_68\n      swap2\n      swap1\n      tag_69\n      jump\t// in\n    tag_68:\n        /* \"contracts/PriceConverter.sol\":514:542  return uint256(price * 1e10) */\n      swap3\n      pop\n      pop\n      pop\n        /* \"contracts/PriceConverter.sol\":231:627  function getPrice() internal view returns(uint256) {... */\n      swap1\n      jump\t// out\n    tag_36:\n      dup3\n      dup1\n      sload\n      dup3\n      dup3\n      sstore\n      swap1\n      0x00\n      mstore\n      keccak256(0x00, 0x20)\n      swap1\n      dup2\n      add\n      swap3\n      dup3\n      iszero\n      tag_70\n      jumpi\n      swap2\n      0x20\n      mul\n      dup3\n      add\n    tag_71:\n      dup3\n      dup2\n      gt\n      iszero\n      tag_72\n      jumpi\n      dup3\n      mload\n      dup3\n      exp(0x0100, 0x00)\n      dup2\n      sload\n      dup2\n      0xffffffffffffffffffffffffffffffffffffffff\n      mul\n      not\n      and\n      swap1\n      dup4\n      0xffffffffffffffffffffffffffffffffffffffff\n      and\n      mul\n      or\n      swap1\n      sstore\n      pop\n      swap2\n      0x20\n      add\n      swap2\n      swap1\n      0x01\n      add\n      swap1\n      jump(tag_71)\n    tag_72:\n    tag_70:\n      pop\n      swap1\n      pop\n      tag_73\n      swap2\n      swap1\n      tag_74\n      jump\t// in\n    tag_73:\n      pop\n      swap1\n      jump\t// out\n    tag_74:\n    tag_75:\n      dup1\n      dup3\n      gt\n      iszero\n      tag_76\n      jumpi\n      0x00\n      dup2\n      0x00\n      swap1\n      sstore\n      pop\n      0x01\n      add\n      jump(tag_75)\n    tag_76:\n      pop\n      swap1\n      jump\t// out\n        /* \"#utility.yul\":88:205   */\n    tag_78:\n        /* \"#utility.yul\":197:198   */\n      0x00\n        /* \"#utility.yul\":194:195   */\n      dup1\n        /* \"#utility.yul\":187:199   */\n      revert\n        /* \"#utility.yul\":334:460   */\n    tag_80:\n        /* \"#utility.yul\":371:378   */\n      0x00\n        /* \"#utility.yul\":411:453   */\n      0xffffffffffffffffffffffffffffffffffffffff\n        /* \"#utility.yul\":404:409   */\n      dup3\n        /* \"#utility.yul\":400:454   */\n      and\n        /* \"#utility.yul\":389:454   */\n      swap1\n      pop\n        /* \"#utility.yul\":334:460   */\n      swap2\n      swap1\n      pop\n      jump\t// out\n        /* \"#utility.yul\":466:562   */\n    tag_81:\n        /* \"#utility.yul\":503:510   */\n      0x00\n        /* \"#utility.yul\":532:556   */\n      tag_112\n        /* \"#utility.yul\":550:555   */\n      dup3\n        /* \"#utility.yul\":532:556   */\n      tag_80\n      jump\t// in\n    tag_112:\n        /* \"#utility.yul\":521:556   */\n      swap1\n      pop\n        /* \"#utility.yul\":466:562   */\n      swap2\n      swap1\n      pop\n      jump\t// out\n        /* \"#utility.yul\":568:690   */\n    tag_82:\n        /* \"#utility.yul\":641:665   */\n      tag_114\n        /* \"#utility.yul\":659:664   */\n      dup2\n        /* \"#utility.yul\":641:665   */\n      tag_81\n      jump\t// in\n    tag_114:\n        /* \"#utility.yul\":634:639   */\n      dup2\n        /* \"#utility.yul\":631:666   */\n      eq\n        /* \"#utility.yul\":621:684   */\n      tag_115\n      jumpi\n        /* \"#utility.yul\":680:681   */\n      0x00\n        /* \"#utility.yul\":677:678   */\n      dup1\n        /* \"#utility.yul\":670:682   */\n      revert\n        /* \"#utility.yul\":621:684   */\n    tag_115:\n        /* \"#utility.yul\":568:690   */\n      pop\n      jump\t// out\n        /* \"#utility.yul\":696:835   */\n    tag_83:\n        /* \"#utility.yul\":742:747   */\n      0x00\n        /* \"#utility.yul\":780:786   */\n      dup2\n        /* \"#utility.yul\":767:787   */\n      calldataload\n        /* \"#utility.yul\":758:787   */\n      swap1\n      pop\n        /* \"#utility.yul\":796:829   */\n      tag_117\n        /* \"#utility.yul\":823:828   */\n      dup2\n        /* \"#utility.yul\":796:829   */\n      tag_82\n      jump\t// in\n    tag_117:\n        /* \"#utility.yul\":696:835   */\n      swap3\n      swap2\n      pop\n      pop\n      jump\t// out\n        /* \"#utility.yul\":841:1170   */\n    tag_13:\n        /* \"#utility.yul\":900:906   */\n      0x00\n        /* \"#utility.yul\":949:951   */\n      0x20\n        /* \"#utility.yul\":937:946   */\n      dup3\n        /* \"#utility.yul\":928:935   */\n      dup5\n        /* \"#utility.yul\":924:947   */\n      sub\n        /* \"#utility.yul\":920:952   */\n      slt\n        /* \"#utility.yul\":917:1036   */\n      iszero\n      tag_119\n      jumpi\n        /* \"#utility.yul\":955:1034   */\n      tag_120\n      tag_78\n      jump\t// in\n    tag_120:\n        /* \"#utility.yul\":917:1036   */\n    tag_119:\n        /* \"#utility.yul\":1075:1076   */\n      0x00\n        /* \"#utility.yul\":1100:1153   */\n      tag_121\n        /* \"#utility.yul\":1145:1152   */\n      dup5\n        /* \"#utility.yul\":1136:1142   */\n      dup3\n        /* \"#utility.yul\":1125:1134   */\n      dup6\n        /* \"#utility.yul\":1121:1143   */\n      add\n        /* \"#utility.yul\":1100:1153   */\n      tag_83\n      jump\t// in\n    tag_121:\n        /* \"#utility.yul\":1090:1153   */\n      swap2\n      pop\n        /* \"#utility.yul\":1046:1163   */\n      pop\n        /* \"#utility.yul\":841:1170   */\n      swap3\n      swap2\n      pop\n      pop\n      jump\t// out\n        /* \"#utility.yul\":1176:1253   */\n    tag_84:\n        /* \"#utility.yul\":1213:1220   */\n      0x00\n        /* \"#utility.yul\":1242:1247   */\n      dup2\n        /* \"#utility.yul\":1231:1247   */\n      swap1\n      pop\n        /* \"#utility.yul\":1176:1253   */\n      swap2\n      swap1\n      pop\n      jump\t// out\n        /* \"#utility.yul\":1259:1377   */\n    tag_85:\n        /* \"#utility.yul\":1346:1370   */\n      tag_124\n        /* \"#utility.yul\":1364:1369   */\n      dup2\n        /* \"#utility.yul\":1346:1370   */\n      tag_84\n      jump\t// in\n    tag_124:\n        /* \"#utility.yul\":1341:1344   */\n      dup3\n        /* \"#utility.yul\":1334:1371   */\n      mstore\n        /* \"#utility.yul\":1259:1377   */\n      pop\n      pop\n      jump\t// out\n        /* \"#utility.yul\":1383:1605   */\n    tag_16:\n        /* \"#utility.yul\":1476:1480   */\n      0x00\n        /* \"#utility.yul\":1514:1516   */\n      0x20\n        /* \"#utility.yul\":1503:1512   */\n      dup3\n        /* \"#utility.yul\":1499:1517   */\n      add\n        /* \"#utility.yul\":1491:1517   */\n      swap1\n      pop\n        /* \"#utility.yul\":1527:1598   */\n      tag_126\n        /* \"#utility.yul\":1595:1596   */\n      0x00\n        /* \"#utility.yul\":1584:1593   */\n      dup4\n        /* \"#utility.yul\":1580:1597   */\n      add\n        /* \"#utility.yul\":1571:1577   */\n      dup5\n        /* \"#utility.yul\":1527:1598   */\n      tag_85\n      jump\t// in\n    tag_126:\n        /* \"#utility.yul\":1383:1605   */\n      swap3\n      swap2\n      pop\n      pop\n      jump\t// out\n        /* \"#utility.yul\":1611:1733   */\n    tag_86:\n        /* \"#utility.yul\":1684:1708   */\n      tag_128\n        /* \"#utility.yul\":1702:1707   */\n      dup2\n        /* \"#utility.yul\":1684:1708   */\n      tag_84\n      jump\t// in\n    tag_128:\n        /* \"#utility.yul\":1677:1682   */\n      dup2\n        /* \"#utility.yul\":1674:1709   */\n      eq\n        /* \"#utility.yul\":1664:1727   */\n      tag_129\n      jumpi\n        /* \"#utility.yul\":1723:1724   */\n      0x00\n        /* \"#utility.yul\":1720:1721   */\n      dup1\n        /* \"#utility.yul\":1713:1725   */\n      revert\n        /* \"#utility.yul\":1664:1727   */\n    tag_129:\n        /* \"#utility.yul\":1611:1733   */\n      pop\n      jump\t// out\n        /* \"#utility.yul\":1739:1878   */\n    tag_87:\n        /* \"#utility.yul\":1785:1790   */\n      0x00\n        /* \"#utility.yul\":1823:1829   */\n      dup2\n        /* \"#utility.yul\":1810:1830   */\n      calldataload\n        /* \"#utility.yul\":1801:1830   */\n      swap1\n      pop\n        /* \"#utility.yul\":1839:1872   */\n      tag_131\n        /* \"#utility.yul\":1866:1871   */\n      dup2\n        /* \"#utility.yul\":1839:1872   */\n      tag_86\n      jump\t// in\n    tag_131:\n        /* \"#utility.yul\":1739:1878   */\n      swap3\n      swap2\n      pop\n      pop\n      jump\t// out\n        /* \"#utility.yul\":1884:2213   */\n    tag_22:\n        /* \"#utility.yul\":1943:1949   */\n      0x00\n        /* \"#utility.yul\":1992:1994   */\n      0x20\n        /* \"#utility.yul\":1980:1989   */\n      dup3\n        /* \"#utility.yul\":1971:1978   */\n      dup5\n        /* \"#utility.yul\":1967:1990   */\n      sub\n        /* \"#utility.yul\":1963:1995   */\n      slt\n        /* \"#utility.yul\":1960:2079   */\n      iszero\n      tag_133\n      jumpi\n        /* \"#utility.yul\":1998:2077   */\n      tag_134\n      tag_78\n      jump\t// in\n    tag_134:\n        /* \"#utility.yul\":1960:2079   */\n    tag_133:\n        /* \"#utility.yul\":2118:2119   */\n      0x00\n        /* \"#utility.yul\":2143:2196   */\n      tag_135\n        /* \"#utility.yul\":2188:2195   */\n      dup5\n        /* \"#utility.yul\":2179:2185   */\n      dup3\n        /* \"#utility.yul\":2168:2177   */\n      dup6\n        /* \"#utility.yul\":2164:2186   */\n      add\n        /* \"#utility.yul\":2143:2196   */\n      tag_87\n      jump\t// in\n    tag_135:\n        /* \"#utility.yul\":2133:2196   */\n      swap2\n      pop\n        /* \"#utility.yul\":2089:2206   */\n      pop\n        /* \"#utility.yul\":1884:2213   */\n      swap3\n      swap2\n      pop\n      pop\n      jump\t// out\n        /* \"#utility.yul\":2219:2337   */\n    tag_88:\n        /* \"#utility.yul\":2306:2330   */\n      tag_137\n        /* \"#utility.yul\":2324:2329   */\n      dup2\n        /* \"#utility.yul\":2306:2330   */\n      tag_81\n      jump\t// in\n    tag_137:\n        /* \"#utility.yul\":2301:2304   */\n      dup3\n        /* \"#utility.yul\":2294:2331   */\n      mstore\n        /* \"#utility.yul\":2219:2337   */\n      pop\n      pop\n      jump\t// out\n        /* \"#utility.yul\":2343:2565   */\n    tag_25:\n        /* \"#utility.yul\":2436:2440   */\n      0x00\n        /* \"#utility.yul\":2474:2476   */\n      0x20\n        /* \"#utility.yul\":2463:2472   */\n      dup3\n        /* \"#utility.yul\":2459:2477   */\n      add\n        /* \"#utility.yul\":2451:2477   */\n      swap1\n      pop\n        /* \"#utility.yul\":2487:2558   */\n      tag_139\n        /* \"#utility.yul\":2555:2556   */\n      0x00\n        /* \"#utility.yul\":2544:2553   */\n      dup4\n        /* \"#utility.yul\":2540:2557   */\n      add\n        /* \"#utility.yul\":2531:2537   */\n      dup5\n        /* \"#utility.yul\":2487:2558   */\n      tag_88\n      jump\t// in\n    tag_139:\n        /* \"#utility.yul\":2343:2565   */\n      swap3\n      swap2\n      pop\n      pop\n      jump\t// out\n        /* \"#utility.yul\":2571:2751   */\n    tag_33:\n        /* \"#utility.yul\":2619:2696   */\n      0x4e487b7100000000000000000000000000000000000000000000000000000000\n        /* \"#utility.yul\":2616:2617   */\n      0x00\n        /* \"#utility.yul\":2609:2697   */\n      mstore\n        /* \"#utility.yul\":2716:2720   */\n      0x41\n        /* \"#utility.yul\":2713:2714   */\n      0x04\n        /* \"#utility.yul\":2706:2721   */\n      mstore\n        /* \"#utility.yul\":2740:2744   */\n      0x24\n        /* \"#utility.yul\":2737:2738   */\n      0x00\n        /* \"#utility.yul\":2730:2745   */\n      revert\n        /* \"#utility.yul\":2757:2904   */\n    tag_89:\n        /* \"#utility.yul\":2858:2869   */\n      0x00\n        /* \"#utility.yul\":2895:2898   */\n      dup2\n        /* \"#utility.yul\":2880:2898   */\n      swap1\n      pop\n        /* \"#utility.yul\":2757:2904   */\n      swap3\n      swap2\n      pop\n      pop\n      jump\t// out\n        /* \"#utility.yul\":2910:3024   */\n    tag_90:\n      pop\n      jump\t// out\n        /* \"#utility.yul\":3030:3428   */\n    tag_91:\n        /* \"#utility.yul\":3189:3192   */\n      0x00\n        /* \"#utility.yul\":3210:3293   */\n      tag_144\n        /* \"#utility.yul\":3291:3292   */\n      0x00\n        /* \"#utility.yul\":3286:3289   */\n      dup4\n        /* \"#utility.yul\":3210:3293   */\n      tag_89\n      jump\t// in\n    tag_144:\n        /* \"#utility.yul\":3203:3293   */\n      swap2\n      pop\n        /* \"#utility.yul\":3302:3395   */\n      tag_145\n        /* \"#utility.yul\":3391:3394   */\n      dup3\n        /* \"#utility.yul\":3302:3395   */\n      tag_90\n      jump\t// in\n    tag_145:\n        /* \"#utility.yul\":3420:3421   */\n      0x00\n        /* \"#utility.yul\":3415:3418   */\n      dup3\n        /* \"#utility.yul\":3411:3422   */\n      add\n        /* \"#utility.yul\":3404:3422   */\n      swap1\n      pop\n        /* \"#utility.yul\":3030:3428   */\n      swap2\n      swap1\n      pop\n      jump\t// out\n        /* \"#utility.yul\":3434:3813   */\n    tag_38:\n        /* \"#utility.yul\":3618:3621   */\n      0x00\n        /* \"#utility.yul\":3640:3787   */\n      tag_147\n        /* \"#utility.yul\":3783:3786   */\n      dup3\n        /* \"#utility.yul\":3640:3787   */\n      tag_91\n      jump\t// in\n    tag_147:\n        /* \"#utility.yul\":3633:3787   */\n      swap2\n      pop\n        /* \"#utility.yul\":3804:3807   */\n      dup2\n        /* \"#utility.yul\":3797:3807   */\n      swap1\n      pop\n        /* \"#utility.yul\":3434:3813   */\n      swap2\n      swap1\n      pop\n      jump\t// out\n        /* \"#utility.yul\":3819:3988   */\n    tag_92:\n        /* \"#utility.yul\":3903:3914   */\n      0x00\n        /* \"#utility.yul\":3937:3943   */\n      dup3\n        /* \"#utility.yul\":3932:3935   */\n      dup3\n        /* \"#utility.yul\":3925:3944   */\n      mstore\n        /* \"#utility.yul\":3977:3981   */\n      0x20\n        /* \"#utility.yul\":3972:3975   */\n      dup3\n        /* \"#utility.yul\":3968:3982   */\n      add\n        /* \"#utility.yul\":3953:3982   */\n      swap1\n      pop\n        /* \"#utility.yul\":3819:3988   */\n      swap3\n      swap2\n      pop\n      pop\n      jump\t// out\n        /* \"#utility.yul\":3994:4155   */\n    tag_93:\n        /* \"#utility.yul\":4134:4147   */\n      0x43616c6c206661696c6564000000000000000000000000000000000000000000\n        /* \"#utility.yul\":4130:4131   */\n      0x00\n        /* \"#utility.yul\":4122:4128   */\n      dup3\n        /* \"#utility.yul\":4118:4132   */\n      add\n        /* \"#utility.yul\":4111:4148   */\n      mstore\n        /* \"#utility.yul\":3994:4155   */\n      pop\n      jump\t// out\n        /* \"#utility.yul\":4161:4527   */\n    tag_94:\n        /* \"#utility.yul\":4303:4306   */\n      0x00\n        /* \"#utility.yul\":4324:4391   */\n      tag_151\n        /* \"#utility.yul\":4388:4390   */\n      0x0b\n        /* \"#utility.yul\":4383:4386   */\n      dup4\n        /* \"#utility.yul\":4324:4391   */\n      tag_92\n      jump\t// in\n    tag_151:\n        /* \"#utility.yul\":4317:4391   */\n      swap2\n      pop\n        /* \"#utility.yul\":4400:4493   */\n      tag_152\n        /* \"#utility.yul\":4489:4492   */\n      dup3\n        /* \"#utility.yul\":4400:4493   */\n      tag_93\n      jump\t// in\n    tag_152:\n        /* \"#utility.yul\":4518:4520   */\n      0x20\n        /* \"#utility.yul\":4513:4516   */\n      dup3\n        /* \"#utility.yul\":4509:4521   */\n      add\n        /* \"#utility.yul\":4502:4521   */\n      swap1\n      pop\n        /* \"#utility.yul\":4161:4527   */\n      swap2\n      swap1\n      pop\n      jump\t// out\n        /* \"#utility.yul\":4533:4952   */\n    tag_44:\n        /* \"#utility.yul\":4699:4703   */\n      0x00\n        /* \"#utility.yul\":4737:4739   */\n      0x20\n        /* \"#utility.yul\":4726:4735   */\n      dup3\n        /* \"#utility.yul\":4722:4740   */\n      add\n        /* \"#utility.yul\":4714:4740   */\n      swap1\n      pop\n        /* \"#utility.yul\":4786:4795   */\n      dup2\n        /* \"#utility.yul\":4780:4784   */\n      dup2\n        /* \"#utility.yul\":4776:4796   */\n      sub\n        /* \"#utility.yul\":4772:4773   */\n      0x00\n        /* \"#utility.yul\":4761:4770   */\n      dup4\n        /* \"#utility.yul\":4757:4774   */\n      add\n        /* \"#utility.yul\":4750:4797   */\n      mstore\n        /* \"#utility.yul\":4814:4945   */\n      tag_154\n        /* \"#utility.yul\":4940:4944   */\n      dup2\n        /* \"#utility.yul\":4814:4945   */\n      tag_94\n      jump\t// in\n    tag_154:\n        /* \"#utility.yul\":4806:4945   */\n      swap1\n      pop\n        /* \"#utility.yul\":4533:4952   */\n      swap2\n      swap1\n      pop\n      jump\t// out\n        /* \"#utility.yul\":4958:5129   */\n    tag_95:\n        /* \"#utility.yul\":5098:5121   */\n      0x4469646e27742073656e6420656e6f7567682121210000000000000000000000\n        /* \"#utility.yul\":5094:5095   */\n      0x00\n        /* \"#utility.yul\":5086:5092   */\n      dup3\n        /* \"#utility.yul\":5082:5096   */\n      add\n        /* \"#utility.yul\":5075:5122   */\n      mstore\n        /* \"#utility.yul\":4958:5129   */\n      pop\n      jump\t// out\n        /* \"#utility.yul\":5135:5501   */\n    tag_96:\n        /* \"#utility.yul\":5277:5280   */\n      0x00\n        /* \"#utility.yul\":5298:5365   */\n      tag_157\n        /* \"#utility.yul\":5362:5364   */\n      0x15\n        /* \"#utility.yul\":5357:5360   */\n      dup4\n        /* \"#utility.yul\":5298:5365   */\n      tag_92\n      jump\t// in\n    tag_157:\n        /* \"#utility.yul\":5291:5365   */\n      swap2\n      pop\n        /* \"#utility.yul\":5374:5467   */\n      tag_158\n        /* \"#utility.yul\":5463:5466   */\n      dup3\n        /* \"#utility.yul\":5374:5467   */\n      tag_95\n      jump\t// in\n    tag_158:\n        /* \"#utility.yul\":5492:5494   */\n      0x20\n        /* \"#utility.yul\":5487:5490   */\n      dup3\n        /* \"#utility.yul\":5483:5495   */\n      add\n        /* \"#utility.yul\":5476:5495   */\n      swap1\n      pop\n        /* \"#utility.yul\":5135:5501   */\n      swap2\n      swap1\n      pop\n      jump\t// out\n        /* \"#utility.yul\":5507:5926   */\n    tag_51:\n        /* \"#utility.yul\":5673:5677   */\n      0x00\n        /* \"#utility.yul\":5711:5713   */\n      0x20\n        /* \"#utility.yul\":5700:5709   */\n      dup3\n        /* \"#utility.yul\":5696:5714   */\n      add\n        /* \"#utility.yul\":5688:5714   */\n      swap1\n      pop\n        /* \"#utility.yul\":5760:5769   */\n      dup2\n        /* \"#utility.yul\":5754:5758   */\n      dup2\n        /* \"#utility.yul\":5750:5770   */\n      sub\n        /* \"#utility.yul\":5746:5747   */\n      0x00\n        /* \"#utility.yul\":5735:5744   */\n      dup4\n        /* \"#utility.yul\":5731:5748   */\n      add\n        /* \"#utility.yul\":5724:5771   */\n      mstore\n        /* \"#utility.yul\":5788:5919   */\n      tag_160\n        /* \"#utility.yul\":5914:5918   */\n      dup2\n        /* \"#utility.yul\":5788:5919   */\n      tag_96\n      jump\t// in\n    tag_160:\n        /* \"#utility.yul\":5780:5919   */\n      swap1\n      pop\n        /* \"#utility.yul\":5507:5926   */\n      swap2\n      swap1\n      pop\n      jump\t// out\n        /* \"#utility.yul\":5932:6112   */\n    tag_97:\n        /* \"#utility.yul\":5980:6057   */\n      0x4e487b7100000000000000000000000000000000000000000000000000000000\n        /* \"#utility.yul\":5977:5978   */\n      0x00\n        /* \"#utility.yul\":5970:6058   */\n      mstore\n        /* \"#utility.yul\":6077:6081   */\n      0x11\n        /* \"#utility.yul\":6074:6075   */\n      0x04\n        /* \"#utility.yul\":6067:6082   */\n      mstore\n        /* \"#utility.yul\":6101:6105   */\n      0x24\n        /* \"#utility.yul\":6098:6099   */\n      0x00\n        /* \"#utility.yul\":6091:6106   */\n      revert\n        /* \"#utility.yul\":6118:6466   */\n    tag_59:\n        /* \"#utility.yul\":6158:6165   */\n      0x00\n        /* \"#utility.yul\":6181:6201   */\n      tag_163\n        /* \"#utility.yul\":6199:6200   */\n      dup3\n        /* \"#utility.yul\":6181:6201   */\n      tag_84\n      jump\t// in\n    tag_163:\n        /* \"#utility.yul\":6176:6201   */\n      swap2\n      pop\n        /* \"#utility.yul\":6215:6235   */\n      tag_164\n        /* \"#utility.yul\":6233:6234   */\n      dup4\n        /* \"#utility.yul\":6215:6235   */\n      tag_84\n      jump\t// in\n    tag_164:\n        /* \"#utility.yul\":6210:6235   */\n      swap3\n      pop\n        /* \"#utility.yul\":6403:6404   */\n      dup2\n        /* \"#utility.yul\":6335:6401   */\n      0xffffffffffffffffffffffffffffffffffffffffffffffffffffffffffffffff\n        /* \"#utility.yul\":6331:6405   */\n      div\n        /* \"#utility.yul\":6328:6329   */\n      dup4\n        /* \"#utility.yul\":6325:6406   */\n      gt\n        /* \"#utility.yul\":6320:6321   */\n      dup3\n        /* \"#utility.yul\":6313:6322   */\n      iszero\n        /* \"#utility.yul\":6306:6323   */\n      iszero\n        /* \"#utility.yul\":6302:6407   */\n      and\n        /* \"#utility.yul\":6299:6430   */\n      iszero\n      tag_165\n      jumpi\n        /* \"#utility.yul\":6410:6428   */\n      tag_166\n      tag_97\n      jump\t// in\n    tag_166:\n        /* \"#utility.yul\":6299:6430   */\n    tag_165:\n        /* \"#utility.yul\":6458:6459   */\n      dup3\n        /* \"#utility.yul\":6455:6456   */\n      dup3\n        /* \"#utility.yul\":6451:6460   */\n      mul\n        /* \"#utility.yul\":6440:6460   */\n      swap1\n      pop\n        /* \"#utility.yul\":6118:6466   */\n      swap3\n      swap2\n      pop\n      pop\n      jump\t// out\n        /* \"#utility.yul\":6472:6652   */\n    tag_98:\n        /* \"#utility.yul\":6520:6597   */\n      0x4e487b7100000000000000000000000000000000000000000000000000000000\n        /* \"#utility.yul\":6517:6518   */\n      0x00\n        /* \"#utility.yul\":6510:6598   */\n      mstore\n        /* \"#utility.yul\":6617:6621   */\n      0x12\n        /* \"#utility.yul\":6614:6615   */\n      0x04\n        /* \"#utility.yul\":6607:6622   */\n      mstore\n        /* \"#utility.yul\":6641:6645   */\n      0x24\n        /* \"#utility.yul\":6638:6639   */\n      0x00\n        /* \"#utility.yul\":6631:6646   */\n      revert\n        /* \"#utility.yul\":6658:6843   */\n    tag_61:\n        /* \"#utility.yul\":6698:6699   */\n      0x00\n        /* \"#utility.yul\":6715:6735   */\n      tag_169\n        /* \"#utility.yul\":6733:6734   */\n      dup3\n        /* \"#utility.yul\":6715:6735   */\n      tag_84\n      jump\t// in\n    tag_169:\n        /* \"#utility.yul\":6710:6735   */\n      swap2\n      pop\n        /* \"#utility.yul\":6749:6769   */\n      tag_170\n        /* \"#utility.yul\":6767:6768   */\n      dup4\n        /* \"#utility.yul\":6749:6769   */\n      tag_84\n      jump\t// in\n    tag_170:\n        /* \"#utility.yul\":6744:6769   */\n      swap3\n      pop\n        /* \"#utility.yul\":6788:6789   */\n      dup3\n        /* \"#utility.yul\":6778:6813   */\n      tag_171\n      jumpi\n        /* \"#utility.yul\":6793:6811   */\n      tag_172\n      tag_98\n      jump\t// in\n    tag_172:\n        /* \"#utility.yul\":6778:6813   */\n    tag_171:\n        /* \"#utility.yul\":6835:6836   */\n      dup3\n        /* \"#utility.yul\":6832:6833   */\n      dup3\n        /* \"#utility.yul\":6828:6837   */\n      div\n        /* \"#utility.yul\":6823:6837   */\n      swap1\n      pop\n        /* \"#utility.yul\":6658:6843   */\n      swap3\n      swap2\n      pop\n      pop\n      jump\t// out\n        /* \"#utility.yul\":6849:6954   */\n    tag_99:\n        /* \"#utility.yul\":6885:6892   */\n      0x00\n        /* \"#utility.yul\":6925:6947   */\n      0xffffffffffffffffffff\n        /* \"#utility.yul\":6918:6923   */\n      dup3\n        /* \"#utility.yul\":6914:6948   */\n      and\n        /* \"#utility.yul\":6903:6948   */\n      swap1\n      pop\n        /* \"#utility.yul\":6849:6954   */\n      swap2\n      swap1\n      pop\n      jump\t// out\n        /* \"#utility.yul\":6960:7080   */\n    tag_100:\n        /* \"#utility.yul\":7032:7055   */\n      tag_175\n        /* \"#utility.yul\":7049:7054   */\n      dup2\n        /* \"#utility.yul\":7032:7055   */\n      tag_99\n      jump\t// in\n    tag_175:\n        /* \"#utility.yul\":7025:7030   */\n      dup2\n        /* \"#utility.yul\":7022:7056   */\n      eq\n        /* \"#utility.yul\":7012:7074   */\n      tag_176\n      jumpi\n        /* \"#utility.yul\":7070:7071   */\n      0x00\n        /* \"#utility.yul\":7067:7068   */\n      dup1\n        /* \"#utility.yul\":7060:7072   */\n      revert\n        /* \"#utility.yul\":7012:7074   */\n    tag_176:\n        /* \"#utility.yul\":6960:7080   */\n      pop\n      jump\t// out\n        /* \"#utility.yul\":7086:7227   */\n    tag_101:\n        /* \"#utility.yul\":7142:7147   */\n      0x00\n        /* \"#utility.yul\":7173:7179   */\n      dup2\n        /* \"#utility.yul\":7167:7180   */\n      mload\n        /* \"#utility.yul\":7158:7180   */\n      swap1\n      pop\n        /* \"#utility.yul\":7189:7221   */\n      tag_178\n        /* \"#utility.yul\":7215:7220   */\n      dup2\n        /* \"#utility.yul\":7189:7221   */\n      tag_100\n      jump\t// in\n    tag_178:\n        /* \"#utility.yul\":7086:7227   */\n      swap3\n      swap2\n      pop\n      pop\n      jump\t// out\n        /* \"#utility.yul\":7233:7309   */\n    tag_102:\n        /* \"#utility.yul\":7269:7276   */\n      0x00\n        /* \"#utility.yul\":7298:7303   */\n      dup2\n        /* \"#utility.yul\":7287:7303   */\n      swap1\n      pop\n        /* \"#utility.yul\":7233:7309   */\n      swap2\n      swap1\n      pop\n      jump\t// out\n        /* \"#utility.yul\":7315:7435   */\n    tag_103:\n        /* \"#utility.yul\":7387:7410   */\n      tag_181\n        /* \"#utility.yul\":7404:7409   */\n      dup2\n        /* \"#utility.yul\":7387:7410   */\n      tag_102\n      jump\t// in\n    tag_181:\n        /* \"#utility.yul\":7380:7385   */\n      dup2\n        /* \"#utility.yul\":7377:7411   */\n      eq\n        /* \"#utility.yul\":7367:7429   */\n      tag_182\n      jumpi\n        /* \"#utility.yul\":7425:7426   */\n      0x00\n        /* \"#utility.yul\":7422:7423   */\n      dup1\n        /* \"#utility.yul\":7415:7427   */\n      revert\n        /* \"#utility.yul\":7367:7429   */\n    tag_182:\n        /* \"#utility.yul\":7315:7435   */\n      pop\n      jump\t// out\n        /* \"#utility.yul\":7441:7582   */\n    tag_104:\n        /* \"#utility.yul\":7497:7502   */\n      0x00\n        /* \"#utility.yul\":7528:7534   */\n      dup2\n        /* \"#utility.yul\":7522:7535   */\n      mload\n        /* \"#utility.yul\":7513:7535   */\n      swap1\n      pop\n        /* \"#utility.yul\":7544:7576   */\n      tag_184\n        /* \"#utility.yul\":7570:7575   */\n      dup2\n        /* \"#utility.yul\":7544:7576   */\n      tag_103\n      jump\t// in\n    tag_184:\n        /* \"#utility.yul\":7441:7582   */\n      swap3\n      swap2\n      pop\n      pop\n      jump\t// out\n        /* \"#utility.yul\":7588:7731   */\n    tag_105:\n        /* \"#utility.yul\":7645:7650   */\n      0x00\n        /* \"#utility.yul\":7676:7682   */\n      dup2\n        /* \"#utility.yul\":7670:7683   */\n      mload\n        /* \"#utility.yul\":7661:7683   */\n      swap1\n      pop\n        /* \"#utility.yul\":7692:7725   */\n      tag_186\n        /* \"#utility.yul\":7719:7724   */\n      dup2\n        /* \"#utility.yul\":7692:7725   */\n      tag_86\n      jump\t// in\n    tag_186:\n        /* \"#utility.yul\":7588:7731   */\n      swap3\n      swap2\n      pop\n      pop\n      jump\t// out\n        /* \"#utility.yul\":7737:8708   */\n    tag_67:\n        /* \"#utility.yul\":7840:7846   */\n      0x00\n        /* \"#utility.yul\":7848:7854   */\n      dup1\n        /* \"#utility.yul\":7856:7862   */\n      0x00\n        /* \"#utility.yul\":7864:7870   */\n      dup1\n        /* \"#utility.yul\":7872:7878   */\n      0x00\n        /* \"#utility.yul\":7921:7924   */\n      0xa0\n        /* \"#utility.yul\":7909:7918   */\n      dup7\n        /* \"#utility.yul\":7900:7907   */\n      dup9\n        /* \"#utility.yul\":7896:7919   */\n      sub\n        /* \"#utility.yul\":7892:7925   */\n      slt\n        /* \"#utility.yul\":7889:8009   */\n      iszero\n      tag_188\n      jumpi\n        /* \"#utility.yul\":7928:8007   */\n      tag_189\n      tag_78\n      jump\t// in\n    tag_189:\n        /* \"#utility.yul\":7889:8009   */\n    tag_188:\n        /* \"#utility.yul\":8048:8049   */\n      0x00\n        /* \"#utility.yul\":8073:8136   */\n      tag_190\n        /* \"#utility.yul\":8128:8135   */\n      dup9\n        /* \"#utility.yul\":8119:8125   */\n      dup3\n        /* \"#utility.yul\":8108:8117   */\n      dup10\n        /* \"#utility.yul\":8104:8126   */\n      add\n        /* \"#utility.yul\":8073:8136   */\n      tag_101\n      jump\t// in\n    tag_190:\n        /* \"#utility.yul\":8063:8136   */\n      swap6\n      pop\n        /* \"#utility.yul\":8019:8146   */\n      pop\n        /* \"#utility.yul\":8185:8187   */\n      0x20\n        /* \"#utility.yul\":8211:8274   */\n      tag_191\n        /* \"#utility.yul\":8266:8273   */\n      dup9\n        /* \"#utility.yul\":8257:8263   */\n      dup3\n        /* \"#utility.yul\":8246:8255   */\n      dup10\n        /* \"#utility.yul\":8242:8264   */\n      add\n        /* \"#utility.yul\":8211:8274   */\n      tag_104\n      jump\t// in\n    tag_191:\n        /* \"#utility.yul\":8201:8274   */\n      swap5\n      pop\n        /* \"#utility.yul\":8156:8284   */\n      pop\n        /* \"#utility.yul\":8323:8325   */\n      0x40\n        /* \"#utility.yul\":8349:8413   */\n      tag_192\n        /* \"#utility.yul\":8405:8412   */\n      dup9\n        /* \"#utility.yul\":8396:8402   */\n      dup3\n        /* \"#utility.yul\":8385:8394   */\n      dup10\n        /* \"#utility.yul\":8381:8403   */\n      add\n        /* \"#utility.yul\":8349:8413   */\n      tag_105\n      jump\t// in\n    tag_192:\n        /* \"#utility.yul\":8339:8413   */\n      swap4\n      pop\n        /* \"#utility.yul\":8294:8423   */\n      pop\n        /* \"#utility.yul\":8462:8464   */\n      0x60\n        /* \"#utility.yul\":8488:8552   */\n      tag_193\n        /* \"#utility.yul\":8544:8551   */\n      dup9\n        /* \"#utility.yul\":8535:8541   */\n      dup3\n        /* \"#utility.yul\":8524:8533   */\n      dup10\n        /* \"#utility.yul\":8520:8542   */\n      add\n        /* \"#utility.yul\":8488:8552   */\n      tag_105\n      jump\t// in\n    tag_193:\n        /* \"#utility.yul\":8478:8552   */\n      swap3\n      pop\n        /* \"#utility.yul\":8433:8562   */\n      pop\n        /* \"#utility.yul\":8601:8604   */\n      0x80\n        /* \"#utility.yul\":8628:8691   */\n      tag_194\n        /* \"#utility.yul\":8683:8690   */\n      dup9\n        /* \"#utility.yul\":8674:8680   */\n      dup3\n        /* \"#utility.yul\":8663:8672   */\n      dup10\n        /* \"#utility.yul\":8659:8681   */\n      add\n        /* \"#utility.yul\":8628:8691   */\n      tag_101\n      jump\t// in\n    tag_194:\n        /* \"#utility.yul\":8618:8691   */\n      swap2\n      pop\n        /* \"#utility.yul\":8572:8701   */\n      pop\n        /* \"#utility.yul\":7737:8708   */\n      swap3\n      swap6\n      pop\n      swap3\n      swap6\n      swap1\n      swap4\n      pop\n      jump\t// out\n        /* \"#utility.yul\":8714:9705   */\n    tag_69:\n        /* \"#utility.yul\":8753:8760   */\n      0x00\n        /* \"#utility.yul\":8776:8795   */\n      tag_196\n        /* \"#utility.yul\":8793:8794   */\n      dup3\n        /* \"#utility.yul\":8776:8795   */\n      tag_102\n      jump\t// in\n    tag_196:\n        /* \"#utility.yul\":8771:8795   */\n      swap2\n      pop\n        /* \"#utility.yul\":8809:8828   */\n      tag_197\n        /* \"#utility.yul\":8826:8827   */\n      dup4\n        /* \"#utility.yul\":8809:8828   */\n      tag_102\n      jump\t// in\n    tag_197:\n        /* \"#utility.yul\":8804:8828   */\n      swap3\n      pop\n        /* \"#utility.yul\":9010:9011   */\n      dup3\n        /* \"#utility.yul\":8942:9008   */\n      0x7fffffffffffffffffffffffffffffffffffffffffffffffffffffffffffffff\n        /* \"#utility.yul\":8938:9012   */\n      div\n        /* \"#utility.yul\":8935:8936   */\n      dup3\n        /* \"#utility.yul\":8932:9013   */\n      gt\n        /* \"#utility.yul\":8927:8928   */\n      0x00\n        /* \"#utility.yul\":8924:8925   */\n      dup5\n        /* \"#utility.yul\":8920:8929   */\n      sgt\n        /* \"#utility.yul\":8916:8917   */\n      0x00\n        /* \"#utility.yul\":8913:8914   */\n      dup5\n        /* \"#utility.yul\":8909:8918   */\n      sgt\n        /* \"#utility.yul\":8905:8930   */\n      and\n        /* \"#utility.yul\":8901:9014   */\n      and\n        /* \"#utility.yul\":8898:9037   */\n      iszero\n      tag_198\n      jumpi\n        /* \"#utility.yul\":9017:9035   */\n      tag_199\n      tag_97\n      jump\t// in\n    tag_199:\n        /* \"#utility.yul\":8898:9037   */\n    tag_198:\n        /* \"#utility.yul\":9221:9222   */\n      dup2\n        /* \"#utility.yul\":9153:9219   */\n      0x8000000000000000000000000000000000000000000000000000000000000000\n        /* \"#utility.yul\":9148:9223   */\n      sdiv\n        /* \"#utility.yul\":9145:9146   */\n      dup4\n        /* \"#utility.yul\":9141:9224   */\n      slt\n        /* \"#utility.yul\":9136:9137   */\n      0x00\n        /* \"#utility.yul\":9133:9134   */\n      dup5\n        /* \"#utility.yul\":9129:9138   */\n      slt\n        /* \"#utility.yul\":9125:9126   */\n      0x00\n        /* \"#utility.yul\":9122:9123   */\n      dup5\n        /* \"#utility.yul\":9118:9127   */\n      sgt\n        /* \"#utility.yul\":9114:9139   */\n      and\n        /* \"#utility.yul\":9110:9225   */\n      and\n        /* \"#utility.yul\":9107:9248   */\n      iszero\n      tag_200\n      jumpi\n        /* \"#utility.yul\":9228:9246   */\n      tag_201\n      tag_97\n      jump\t// in\n    tag_201:\n        /* \"#utility.yul\":9107:9248   */\n    tag_200:\n        /* \"#utility.yul\":9432:9433   */\n      dup3\n        /* \"#utility.yul\":9364:9430   */\n      0x8000000000000000000000000000000000000000000000000000000000000000\n        /* \"#utility.yul\":9359:9434   */\n      sdiv\n        /* \"#utility.yul\":9356:9357   */\n      dup3\n        /* \"#utility.yul\":9352:9435   */\n      slt\n        /* \"#utility.yul\":9347:9348   */\n      0x00\n        /* \"#utility.yul\":9344:9345   */\n      dup5\n        /* \"#utility.yul\":9340:9349   */\n      sgt\n        /* \"#utility.yul\":9336:9337   */\n      0x00\n        /* \"#utility.yul\":9333:9334   */\n      dup5\n        /* \"#utility.yul\":9329:9338   */\n      slt\n        /* \"#utility.yul\":9325:9350   */\n      and\n        /* \"#utility.yul\":9321:9436   */\n      and\n        /* \"#utility.yul\":9318:9459   */\n      iszero\n      tag_202\n      jumpi\n        /* \"#utility.yul\":9439:9457   */\n      tag_203\n      tag_97\n      jump\t// in\n    tag_203:\n        /* \"#utility.yul\":9318:9459   */\n    tag_202:\n        /* \"#utility.yul\":9642:9643   */\n      dup3\n        /* \"#utility.yul\":9574:9640   */\n      0x7fffffffffffffffffffffffffffffffffffffffffffffffffffffffffffffff\n        /* \"#utility.yul\":9569:9644   */\n      sdiv\n        /* \"#utility.yul\":9566:9567   */\n      dup3\n        /* \"#utility.yul\":9562:9645   */\n      slt\n        /* \"#utility.yul\":9557:9558   */\n      0x00\n        /* \"#utility.yul\":9554:9555   */\n      dup5\n        /* \"#utility.yul\":9550:9559   */\n      slt\n        /* \"#utility.yul\":9546:9547   */\n      0x00\n        /* \"#utility.yul\":9543:9544   */\n      dup5\n        /* \"#utility.yul\":9539:9548   */\n      slt\n        /* \"#utility.yul\":9535:9560   */\n      and\n        /* \"#utility.yul\":9531:9646   */\n      and\n        /* \"#utility.yul\":9528:9669   */\n      iszero\n      tag_204\n      jumpi\n        /* \"#utility.yul\":9649:9667   */\n      tag_205\n      tag_97\n      jump\t// in\n    tag_205:\n        /* \"#utility.yul\":9528:9669   */\n    tag_204:\n        /* \"#utility.yul\":9697:9698   */\n      dup3\n        /* \"#utility.yul\":9694:9695   */\n      dup3\n        /* \"#utility.yul\":9690:9699   */\n      mul\n        /* \"#utility.yul\":9679:9699   */\n      swap1\n      pop\n        /* \"#utility.yul\":8714:9705   */\n      swap3\n      swap2\n      pop\n      pop\n      jump\t// out\n\n    auxdata: 0xa2646970667358221220af9ae0e65cddf6bef085c114e2843fd2ad05eeebfb05f56611ffbed597613a1764736f6c63430008080033\n}\n",
				"bytecode": {
					"linkReferences": {},
					"object": "60806040526802b5e3af16b188000060005534801561001d57600080fd5b50610afd8061002d6000396000f3fe60806040526004361061004a5760003560e01c80633ccfd60b1461004f5780633e47d6f314610066578063b60d4288146100a3578063dc0d3dff146100ad578063f1b7c0ef146100ea575b600080fd5b34801561005b57600080fd5b50610064610115565b005b34801561007257600080fd5b5061008d6004803603810190610088919061057d565b610224565b60405161009a91906105c3565b60405180910390f35b6100ab61023c565b005b3480156100b957600080fd5b506100d460048036038101906100cf919061060a565b61033c565b6040516100e19190610646565b60405180910390f35b3480156100f657600080fd5b506100ff61037b565b60405161010c91906105c3565b60405180910390f35b600067ffffffffffffffff8111156101305761012f610661565b5b60405190808252806020026020018201604052801561015e5781602001602082028036833780820191505090505b5060019080519060200190610174929190610473565b5060003373ffffffffffffffffffffffffffffffffffffffff164760405161019b906106c1565b60006040518083038185875af1925050503d80600081146101d8576040519150601f19603f3d011682016040523d82523d6000602084013e6101dd565b606091505b5050905080610221576040517f08c379a000000000000000000000000000000000000000000000000000000000815260040161021890610733565b60405180910390fd5b50565b60026020528060005260406000206000915090505481565b61024534610381565b5060005461025234610381565b1015610293576040517f08c379a000000000000000000000000000000000000000000000000000000000815260040161028a9061079f565b60405180910390fd5b6001339080600181540180825580915050600190039060005260206000200160009091909190916101000a81548173ffffffffffffffffffffffffffffffffffffffff021916908373ffffffffffffffffffffffffffffffffffffffff16021790555034600260003373ffffffffffffffffffffffffffffffffffffffff1673ffffffffffffffffffffffffffffffffffffffff16815260200190815260200160002081905550565b6001818154811061034c57600080fd5b906000526020600020016000915054906101000a900473ffffffffffffffffffffffffffffffffffffffff1681565b60005481565b60008061038c6103bb565b90506000670de0b6b3a764000084836103a591906107ee565b6103af9190610877565b90508092505050919050565b600080738a753747a1fa494ec906ce90e9f37563a8af630e905060008173ffffffffffffffffffffffffffffffffffffffff1663feaf968c6040518163ffffffff1660e01b815260040160a06040518083038186803b15801561041d57600080fd5b505afa158015610431573d6000803e3d6000fd5b505050506040513d601f19601f820116820180604052508101906104559190610935565b5050509150506402540be4008161046c91906109b0565b9250505090565b8280548282559060005260206000209081019282156104ec579160200282015b828111156104eb5782518260006101000a81548173ffffffffffffffffffffffffffffffffffffffff021916908373ffffffffffffffffffffffffffffffffffffffff16021790555091602001919060010190610493565b5b5090506104f991906104fd565b5090565b5b808211156105165760008160009055506001016104fe565b5090565b600080fd5b600073ffffffffffffffffffffffffffffffffffffffff82169050919050565b600061054a8261051f565b9050919050565b61055a8161053f565b811461056557600080fd5b50565b60008135905061057781610551565b92915050565b6000602082840312156105935761059261051a565b5b60006105a184828501610568565b91505092915050565b6000819050919050565b6105bd816105aa565b82525050565b60006020820190506105d860008301846105b4565b92915050565b6105e7816105aa565b81146105f257600080fd5b50565b600081359050610604816105de565b92915050565b6000602082840312156106205761061f61051a565b5b600061062e848285016105f5565b91505092915050565b6106408161053f565b82525050565b600060208201905061065b6000830184610637565b92915050565b7f4e487b7100000000000000000000000000000000000000000000000000000000600052604160045260246000fd5b600081905092915050565b50565b60006106ab600083610690565b91506106b68261069b565b600082019050919050565b60006106cc8261069e565b9150819050919050565b600082825260208201905092915050565b7f43616c6c206661696c6564000000000000000000000000000000000000000000600082015250565b600061071d600b836106d6565b9150610728826106e7565b602082019050919050565b6000602082019050818103600083015261074c81610710565b9050919050565b7f4469646e27742073656e6420656e6f7567682121210000000000000000000000600082015250565b60006107896015836106d6565b915061079482610753565b602082019050919050565b600060208201905081810360008301526107b88161077c565b9050919050565b7f4e487b7100000000000000000000000000000000000000000000000000000000600052601160045260246000fd5b60006107f9826105aa565b9150610804836105aa565b9250817fffffffffffffffffffffffffffffffffffffffffffffffffffffffffffffffff048311821515161561083d5761083c6107bf565b5b828202905092915050565b7f4e487b7100000000000000000000000000000000000000000000000000000000600052601260045260246000fd5b6000610882826105aa565b915061088d836105aa565b92508261089d5761089c610848565b5b828204905092915050565b600069ffffffffffffffffffff82169050919050565b6108c7816108a8565b81146108d257600080fd5b50565b6000815190506108e4816108be565b92915050565b6000819050919050565b6108fd816108ea565b811461090857600080fd5b50565b60008151905061091a816108f4565b92915050565b60008151905061092f816105de565b92915050565b600080600080600060a086880312156109515761095061051a565b5b600061095f888289016108d5565b95505060206109708882890161090b565b945050604061098188828901610920565b935050606061099288828901610920565b92505060806109a3888289016108d5565b9150509295509295909350565b60006109bb826108ea565b91506109c6836108ea565b9250827f7fffffffffffffffffffffffffffffffffffffffffffffffffffffffffffffff0482116000841360008413161615610a0557610a046107bf565b5b817f80000000000000000000000000000000000000000000000000000000000000000583126000841260008413161615610a4257610a416107bf565b5b827f80000000000000000000000000000000000000000000000000000000000000000582126000841360008412161615610a7f57610a7e6107bf565b5b827f7fffffffffffffffffffffffffffffffffffffffffffffffffffffffffffffff0582126000841260008412161615610abc57610abb6107bf565b5b82820290509291505056fea2646970667358221220af9ae0e65cddf6bef085c114e2843fd2ad05eeebfb05f56611ffbed597613a1764736f6c63430008080033",
					"opcodes": "PUSH1 0x80 PUSH1 0x40 MSTORE PUSH9 0x2B5E3AF16B1880000 PUSH1 0x0 SSTORE CALLVALUE DUP1 ISZERO PUSH2 0x1D JUMPI PUSH1 0x0 DUP1 REVERT JUMPDEST POP PUSH2 0xAFD DUP1 PUSH2 0x2D PUSH1 0x0 CODECOPY PUSH1 0x0 RETURN INVALID PUSH1 0x80 PUSH1 0x40 MSTORE PUSH1 0x4 CALLDATASIZE LT PUSH2 0x4A JUMPI PUSH1 0x0 CALLDATALOAD PUSH1 0xE0 SHR DUP1 PUSH4 0x3CCFD60B EQ PUSH2 0x4F JUMPI DUP1 PUSH4 0x3E47D6F3 EQ PUSH2 0x66 JUMPI DUP1 PUSH4 0xB60D4288 EQ PUSH2 0xA3 JUMPI DUP1 PUSH4 0xDC0D3DFF EQ PUSH2 0xAD JUMPI DUP1 PUSH4 0xF1B7C0EF EQ PUSH2 0xEA JUMPI JUMPDEST PUSH1 0x0 DUP1 REVERT JUMPDEST CALLVALUE DUP1 ISZERO PUSH2 0x5B JUMPI PUSH1 0x0 DUP1 REVERT JUMPDEST POP PUSH2 0x64 PUSH2 0x115 JUMP JUMPDEST STOP JUMPDEST CALLVALUE DUP1 ISZERO PUSH2 0x72 JUMPI PUSH1 0x0 DUP1 REVERT JUMPDEST POP PUSH2 0x8D PUSH1 0x4 DUP1 CALLDATASIZE SUB DUP2 ADD SWAP1 PUSH2 0x88 SWAP2 SWAP1 PUSH2 0x57D JUMP JUMPDEST PUSH2 0x224 JUMP JUMPDEST PUSH1 0x40 MLOAD PUSH2 0x9A SWAP2 SWAP1 PUSH2 0x5C3 JUMP JUMPDEST PUSH1 0x40 MLOAD DUP1 SWAP2 SUB SWAP1 RETURN JUMPDEST PUSH2 0xAB PUSH2 0x23C JUMP JUMPDEST STOP JUMPDEST CALLVALUE DUP1 ISZERO PUSH2 0xB9 JUMPI PUSH1 0x0 DUP1 REVERT JUMPDEST POP PUSH2 0xD4 PUSH1 0x4 DUP1 CALLDATASIZE SUB DUP2 ADD SWAP1 PUSH2 0xCF SWAP2 SWAP1 PUSH2 0x60A JUMP JUMPDEST PUSH2 0x33C JUMP JUMPDEST PUSH1 0x40 MLOAD PUSH2 0xE1 SWAP2 SWAP1 PUSH2 0x646 JUMP JUMPDEST PUSH1 0x40 MLOAD DUP1 SWAP2 SUB SWAP1 RETURN JUMPDEST CALLVALUE DUP1 ISZERO PUSH2 0xF6 JUMPI PUSH1 0x0 DUP1 REVERT JUMPDEST POP PUSH2 0xFF PUSH2 0x37B JUMP JUMPDEST PUSH1 0x40 MLOAD PUSH2 0x10C SWAP2 SWAP1 PUSH2 0x5C3 JUMP JUMPDEST PUSH1 0x40 MLOAD DUP1 SWAP2 SUB SWAP1 RETURN JUMPDEST PUSH1 0x0 PUSH8 0xFFFFFFFFFFFFFFFF DUP2 GT ISZERO PUSH2 0x130 JUMPI PUSH2 0x12F PUSH2 0x661 JUMP JUMPDEST JUMPDEST PUSH1 0x40 MLOAD SWAP1 DUP1 DUP3 MSTORE DUP1 PUSH1 0x20 MUL PUSH1 0x20 ADD DUP3 ADD PUSH1 0x40 MSTORE DUP1 ISZERO PUSH2 0x15E JUMPI DUP2 PUSH1 0x20 ADD PUSH1 0x20 DUP3 MUL DUP1 CALLDATASIZE DUP4 CALLDATACOPY DUP1 DUP3 ADD SWAP2 POP POP SWAP1 POP JUMPDEST POP PUSH1 0x1 SWAP1 DUP1 MLOAD SWAP1 PUSH1 0x20 ADD SWAP1 PUSH2 0x174 SWAP3 SWAP2 SWAP1 PUSH2 0x473 JUMP JUMPDEST POP PUSH1 0x0 CALLER PUSH20 0xFFFFFFFFFFFFFFFFFFFFFFFFFFFFFFFFFFFFFFFF AND SELFBALANCE PUSH1 0x40 MLOAD PUSH2 0x19B SWAP1 PUSH2 0x6C1 JUMP JUMPDEST PUSH1 0x0 PUSH1 0x40 MLOAD DUP1 DUP4 SUB DUP2 DUP6 DUP8 GAS CALL SWAP3 POP POP POP RETURNDATASIZE DUP1 PUSH1 0x0 DUP2 EQ PUSH2 0x1D8 JUMPI PUSH1 0x40 MLOAD SWAP2 POP PUSH1 0x1F NOT PUSH1 0x3F RETURNDATASIZE ADD AND DUP3 ADD PUSH1 0x40 MSTORE RETURNDATASIZE DUP3 MSTORE RETURNDATASIZE PUSH1 0x0 PUSH1 0x20 DUP5 ADD RETURNDATACOPY PUSH2 0x1DD JUMP JUMPDEST PUSH1 0x60 SWAP2 POP JUMPDEST POP POP SWAP1 POP DUP1 PUSH2 0x221 JUMPI PUSH1 0x40 MLOAD PUSH32 0x8C379A000000000000000000000000000000000000000000000000000000000 DUP2 MSTORE PUSH1 0x4 ADD PUSH2 0x218 SWAP1 PUSH2 0x733 JUMP JUMPDEST PUSH1 0x40 MLOAD DUP1 SWAP2 SUB SWAP1 REVERT JUMPDEST POP JUMP JUMPDEST PUSH1 0x2 PUSH1 0x20 MSTORE DUP1 PUSH1 0x0 MSTORE PUSH1 0x40 PUSH1 0x0 KECCAK256 PUSH1 0x0 SWAP2 POP SWAP1 POP SLOAD DUP2 JUMP JUMPDEST PUSH2 0x245 CALLVALUE PUSH2 0x381 JUMP JUMPDEST POP PUSH1 0x0 SLOAD PUSH2 0x252 CALLVALUE PUSH2 0x381 JUMP JUMPDEST LT ISZERO PUSH2 0x293 JUMPI PUSH1 0x40 MLOAD PUSH32 0x8C379A000000000000000000000000000000000000000000000000000000000 DUP2 MSTORE PUSH1 0x4 ADD PUSH2 0x28A SWAP1 PUSH2 0x79F JUMP JUMPDEST PUSH1 0x40 MLOAD DUP1 SWAP2 SUB SWAP1 REVERT JUMPDEST PUSH1 0x1 CALLER SWAP1 DUP1 PUSH1 0x1 DUP2 SLOAD ADD DUP1 DUP3 SSTORE DUP1 SWAP2 POP POP PUSH1 0x1 SWAP1 SUB SWAP1 PUSH1 0x0 MSTORE PUSH1 0x20 PUSH1 0x0 KECCAK256 ADD PUSH1 0x0 SWAP1 SWAP2 SWAP1 SWAP2 SWAP1 SWAP2 PUSH2 0x100 EXP DUP2 SLOAD DUP2 PUSH20 0xFFFFFFFFFFFFFFFFFFFFFFFFFFFFFFFFFFFFFFFF MUL NOT AND SWAP1 DUP4 PUSH20 0xFFFFFFFFFFFFFFFFFFFFFFFFFFFFFFFFFFFFFFFF AND MUL OR SWAP1 SSTORE POP CALLVALUE PUSH1 0x2 PUSH1 0x0 CALLER PUSH20 0xFFFFFFFFFFFFFFFFFFFFFFFFFFFFFFFFFFFFFFFF AND PUSH20 0xFFFFFFFFFFFFFFFFFFFFFFFFFFFFFFFFFFFFFFFF AND DUP2 MSTORE PUSH1 0x20 ADD SWAP1 DUP2 MSTORE PUSH1 0x20 ADD PUSH1 0x0 KECCAK256 DUP2 SWAP1 SSTORE POP JUMP JUMPDEST PUSH1 0x1 DUP2 DUP2 SLOAD DUP2 LT PUSH2 0x34C JUMPI PUSH1 0x0 DUP1 REVERT JUMPDEST SWAP1 PUSH1 0x0 MSTORE PUSH1 0x20 PUSH1 0x0 KECCAK256 ADD PUSH1 0x0 SWAP2 POP SLOAD SWAP1 PUSH2 0x100 EXP SWAP1 DIV PUSH20 0xFFFFFFFFFFFFFFFFFFFFFFFFFFFFFFFFFFFFFFFF AND DUP2 JUMP JUMPDEST PUSH1 0x0 SLOAD DUP2 JUMP JUMPDEST PUSH1 0x0 DUP1 PUSH2 0x38C PUSH2 0x3BB JUMP JUMPDEST SWAP1 POP PUSH1 0x0 PUSH8 0xDE0B6B3A7640000 DUP5 DUP4 PUSH2 0x3A5 SWAP2 SWAP1 PUSH2 0x7EE JUMP JUMPDEST PUSH2 0x3AF SWAP2 SWAP1 PUSH2 0x877 JUMP JUMPDEST SWAP1 POP DUP1 SWAP3 POP POP POP SWAP2 SWAP1 POP JUMP JUMPDEST PUSH1 0x0 DUP1 PUSH20 0x8A753747A1FA494EC906CE90E9F37563A8AF630E SWAP1 POP PUSH1 0x0 DUP2 PUSH20 0xFFFFFFFFFFFFFFFFFFFFFFFFFFFFFFFFFFFFFFFF AND PUSH4 0xFEAF968C PUSH1 0x40 MLOAD DUP2 PUSH4 0xFFFFFFFF AND PUSH1 0xE0 SHL DUP2 MSTORE PUSH1 0x4 ADD PUSH1 0xA0 PUSH1 0x40 MLOAD DUP1 DUP4 SUB DUP2 DUP7 DUP1 EXTCODESIZE ISZERO DUP1 ISZERO PUSH2 0x41D JUMPI PUSH1 0x0 DUP1 REVERT JUMPDEST POP GAS STATICCALL ISZERO DUP1 ISZERO PUSH2 0x431 JUMPI RETURNDATASIZE PUSH1 0x0 DUP1 RETURNDATACOPY RETURNDATASIZE PUSH1 0x0 REVERT JUMPDEST POP POP POP POP PUSH1 0x40 MLOAD RETURNDATASIZE PUSH1 0x1F NOT PUSH1 0x1F DUP3 ADD AND DUP3 ADD DUP1 PUSH1 0x40 MSTORE POP DUP2 ADD SWAP1 PUSH2 0x455 SWAP2 SWAP1 PUSH2 0x935 JUMP JUMPDEST POP POP POP SWAP2 POP POP PUSH5 0x2540BE400 DUP2 PUSH2 0x46C SWAP2 SWAP1 PUSH2 0x9B0 JUMP JUMPDEST SWAP3 POP POP POP SWAP1 JUMP JUMPDEST DUP3 DUP1 SLOAD DUP3 DUP3 SSTORE SWAP1 PUSH1 0x0 MSTORE PUSH1 0x20 PUSH1 0x0 KECCAK256 SWAP1 DUP2 ADD SWAP3 DUP3 ISZERO PUSH2 0x4EC JUMPI SWAP2 PUSH1 0x20 MUL DUP3 ADD JUMPDEST DUP3 DUP2 GT ISZERO PUSH2 0x4EB JUMPI DUP3 MLOAD DUP3 PUSH1 0x0 PUSH2 0x100 EXP DUP2 SLOAD DUP2 PUSH20 0xFFFFFFFFFFFFFFFFFFFFFFFFFFFFFFFFFFFFFFFF MUL NOT AND SWAP1 DUP4 PUSH20 0xFFFFFFFFFFFFFFFFFFFFFFFFFFFFFFFFFFFFFFFF AND MUL OR SWAP1 SSTORE POP SWAP2 PUSH1 0x20 ADD SWAP2 SWAP1 PUSH1 0x1 ADD SWAP1 PUSH2 0x493 JUMP JUMPDEST JUMPDEST POP SWAP1 POP PUSH2 0x4F9 SWAP2 SWAP1 PUSH2 0x4FD JUMP JUMPDEST POP SWAP1 JUMP JUMPDEST JUMPDEST DUP1 DUP3 GT ISZERO PUSH2 0x516 JUMPI PUSH1 0x0 DUP2 PUSH1 0x0 SWAP1 SSTORE POP PUSH1 0x1 ADD PUSH2 0x4FE JUMP JUMPDEST POP SWAP1 JUMP JUMPDEST PUSH1 0x0 DUP1 REVERT JUMPDEST PUSH1 0x0 PUSH20 0xFFFFFFFFFFFFFFFFFFFFFFFFFFFFFFFFFFFFFFFF DUP3 AND SWAP1 POP SWAP2 SWAP1 POP JUMP JUMPDEST PUSH1 0x0 PUSH2 0x54A DUP3 PUSH2 0x51F JUMP JUMPDEST SWAP1 POP SWAP2 SWAP1 POP JUMP JUMPDEST PUSH2 0x55A DUP2 PUSH2 0x53F JUMP JUMPDEST DUP2 EQ PUSH2 0x565 JUMPI PUSH1 0x0 DUP1 REVERT JUMPDEST POP JUMP JUMPDEST PUSH1 0x0 DUP2 CALLDATALOAD SWAP1 POP PUSH2 0x577 DUP2 PUSH2 0x551 JUMP JUMPDEST SWAP3 SWAP2 POP POP JUMP JUMPDEST PUSH1 0x0 PUSH1 0x20 DUP3 DUP5 SUB SLT ISZERO PUSH2 0x593 JUMPI PUSH2 0x592 PUSH2 0x51A JUMP JUMPDEST JUMPDEST PUSH1 0x0 PUSH2 0x5A1 DUP5 DUP3 DUP6 ADD PUSH2 0x568 JUMP JUMPDEST SWAP2 POP POP SWAP3 SWAP2 POP POP JUMP JUMPDEST PUSH1 0x0 DUP2 SWAP1 POP SWAP2 SWAP1 POP JUMP JUMPDEST PUSH2 0x5BD DUP2 PUSH2 0x5AA JUMP JUMPDEST DUP3 MSTORE POP POP JUMP JUMPDEST PUSH1 0x0 PUSH1 0x20 DUP3 ADD SWAP1 POP PUSH2 0x5D8 PUSH1 0x0 DUP4 ADD DUP5 PUSH2 0x5B4 JUMP JUMPDEST SWAP3 SWAP2 POP POP JUMP JUMPDEST PUSH2 0x5E7 DUP2 PUSH2 0x5AA JUMP JUMPDEST DUP2 EQ PUSH2 0x5F2 JUMPI PUSH1 0x0 DUP1 REVERT JUMPDEST POP JUMP JUMPDEST PUSH1 0x0 DUP2 CALLDATALOAD SWAP1 POP PUSH2 0x604 DUP2 PUSH2 0x5DE JUMP JUMPDEST SWAP3 SWAP2 POP POP JUMP JUMPDEST PUSH1 0x0 PUSH1 0x20 DUP3 DUP5 SUB SLT ISZERO PUSH2 0x620 JUMPI PUSH2 0x61F PUSH2 0x51A JUMP JUMPDEST JUMPDEST PUSH1 0x0 PUSH2 0x62E DUP5 DUP3 DUP6 ADD PUSH2 0x5F5 JUMP JUMPDEST SWAP2 POP POP SWAP3 SWAP2 POP POP JUMP JUMPDEST PUSH2 0x640 DUP2 PUSH2 0x53F JUMP JUMPDEST DUP3 MSTORE POP POP JUMP JUMPDEST PUSH1 0x0 PUSH1 0x20 DUP3 ADD SWAP1 POP PUSH2 0x65B PUSH1 0x0 DUP4 ADD DUP5 PUSH2 0x637 JUMP JUMPDEST SWAP3 SWAP2 POP POP JUMP JUMPDEST PUSH32 0x4E487B7100000000000000000000000000000000000000000000000000000000 PUSH1 0x0 MSTORE PUSH1 0x41 PUSH1 0x4 MSTORE PUSH1 0x24 PUSH1 0x0 REVERT JUMPDEST PUSH1 0x0 DUP2 SWAP1 POP SWAP3 SWAP2 POP POP JUMP JUMPDEST POP JUMP JUMPDEST PUSH1 0x0 PUSH2 0x6AB PUSH1 0x0 DUP4 PUSH2 0x690 JUMP JUMPDEST SWAP2 POP PUSH2 0x6B6 DUP3 PUSH2 0x69B JUMP JUMPDEST PUSH1 0x0 DUP3 ADD SWAP1 POP SWAP2 SWAP1 POP JUMP JUMPDEST PUSH1 0x0 PUSH2 0x6CC DUP3 PUSH2 0x69E JUMP JUMPDEST SWAP2 POP DUP2 SWAP1 POP SWAP2 SWAP1 POP JUMP JUMPDEST PUSH1 0x0 DUP3 DUP3 MSTORE PUSH1 0x20 DUP3 ADD SWAP1 POP SWAP3 SWAP2 POP POP JUMP JUMPDEST PUSH32 0x43616C6C206661696C6564000000000000000000000000000000000000000000 PUSH1 0x0 DUP3 ADD MSTORE POP JUMP JUMPDEST PUSH1 0x0 PUSH2 0x71D PUSH1 0xB DUP4 PUSH2 0x6D6 JUMP JUMPDEST SWAP2 POP PUSH2 0x728 DUP3 PUSH2 0x6E7 JUMP JUMPDEST PUSH1 0x20 DUP3 ADD SWAP1 POP SWAP2 SWAP1 POP JUMP JUMPDEST PUSH1 0x0 PUSH1 0x20 DUP3 ADD SWAP1 POP DUP2 DUP2 SUB PUSH1 0x0 DUP4 ADD MSTORE PUSH2 0x74C DUP2 PUSH2 0x710 JUMP JUMPDEST SWAP1 POP SWAP2 SWAP1 POP JUMP JUMPDEST PUSH32 0x4469646E27742073656E6420656E6F7567682121210000000000000000000000 PUSH1 0x0 DUP3 ADD MSTORE POP JUMP JUMPDEST PUSH1 0x0 PUSH2 0x789 PUSH1 0x15 DUP4 PUSH2 0x6D6 JUMP JUMPDEST SWAP2 POP PUSH2 0x794 DUP3 PUSH2 0x753 JUMP JUMPDEST PUSH1 0x20 DUP3 ADD SWAP1 POP SWAP2 SWAP1 POP JUMP JUMPDEST PUSH1 0x0 PUSH1 0x20 DUP3 ADD SWAP1 POP DUP2 DUP2 SUB PUSH1 0x0 DUP4 ADD MSTORE PUSH2 0x7B8 DUP2 PUSH2 0x77C JUMP JUMPDEST SWAP1 POP SWAP2 SWAP1 POP JUMP JUMPDEST PUSH32 0x4E487B7100000000000000000000000000000000000000000000000000000000 PUSH1 0x0 MSTORE PUSH1 0x11 PUSH1 0x4 MSTORE PUSH1 0x24 PUSH1 0x0 REVERT JUMPDEST PUSH1 0x0 PUSH2 0x7F9 DUP3 PUSH2 0x5AA JUMP JUMPDEST SWAP2 POP PUSH2 0x804 DUP4 PUSH2 0x5AA JUMP JUMPDEST SWAP3 POP DUP2 PUSH32 0xFFFFFFFFFFFFFFFFFFFFFFFFFFFFFFFFFFFFFFFFFFFFFFFFFFFFFFFFFFFFFFFF DIV DUP4 GT DUP3 ISZERO ISZERO AND ISZERO PUSH2 0x83D JUMPI PUSH2 0x83C PUSH2 0x7BF JUMP JUMPDEST JUMPDEST DUP3 DUP3 MUL SWAP1 POP SWAP3 SWAP2 POP POP JUMP JUMPDEST PUSH32 0x4E487B7100000000000000000000000000000000000000000000000000000000 PUSH1 0x0 MSTORE PUSH1 0x12 PUSH1 0x4 MSTORE PUSH1 0x24 PUSH1 0x0 REVERT JUMPDEST PUSH1 0x0 PUSH2 0x882 DUP3 PUSH2 0x5AA JUMP JUMPDEST SWAP2 POP PUSH2 0x88D DUP4 PUSH2 0x5AA JUMP JUMPDEST SWAP3 POP DUP3 PUSH2 0x89D JUMPI PUSH2 0x89C PUSH2 0x848 JUMP JUMPDEST JUMPDEST DUP3 DUP3 DIV SWAP1 POP SWAP3 SWAP2 POP POP JUMP JUMPDEST PUSH1 0x0 PUSH10 0xFFFFFFFFFFFFFFFFFFFF DUP3 AND SWAP1 POP SWAP2 SWAP1 POP JUMP JUMPDEST PUSH2 0x8C7 DUP2 PUSH2 0x8A8 JUMP JUMPDEST DUP2 EQ PUSH2 0x8D2 JUMPI PUSH1 0x0 DUP1 REVERT JUMPDEST POP JUMP JUMPDEST PUSH1 0x0 DUP2 MLOAD SWAP1 POP PUSH2 0x8E4 DUP2 PUSH2 0x8BE JUMP JUMPDEST SWAP3 SWAP2 POP POP JUMP JUMPDEST PUSH1 0x0 DUP2 SWAP1 POP SWAP2 SWAP1 POP JUMP JUMPDEST PUSH2 0x8FD DUP2 PUSH2 0x8EA JUMP JUMPDEST DUP2 EQ PUSH2 0x908 JUMPI PUSH1 0x0 DUP1 REVERT JUMPDEST POP JUMP JUMPDEST PUSH1 0x0 DUP2 MLOAD SWAP1 POP PUSH2 0x91A DUP2 PUSH2 0x8F4 JUMP JUMPDEST SWAP3 SWAP2 POP POP JUMP JUMPDEST PUSH1 0x0 DUP2 MLOAD SWAP1 POP PUSH2 0x92F DUP2 PUSH2 0x5DE JUMP JUMPDEST SWAP3 SWAP2 POP POP JUMP JUMPDEST PUSH1 0x0 DUP1 PUSH1 0x0 DUP1 PUSH1 0x0 PUSH1 0xA0 DUP7 DUP9 SUB SLT ISZERO PUSH2 0x951 JUMPI PUSH2 0x950 PUSH2 0x51A JUMP JUMPDEST JUMPDEST PUSH1 0x0 PUSH2 0x95F DUP9 DUP3 DUP10 ADD PUSH2 0x8D5 JUMP JUMPDEST SWAP6 POP POP PUSH1 0x20 PUSH2 0x970 DUP9 DUP3 DUP10 ADD PUSH2 0x90B JUMP JUMPDEST SWAP5 POP POP PUSH1 0x40 PUSH2 0x981 DUP9 DUP3 DUP10 ADD PUSH2 0x920 JUMP JUMPDEST SWAP4 POP POP PUSH1 0x60 PUSH2 0x992 DUP9 DUP3 DUP10 ADD PUSH2 0x920 JUMP JUMPDEST SWAP3 POP POP PUSH1 0x80 PUSH2 0x9A3 DUP9 DUP3 DUP10 ADD PUSH2 0x8D5 JUMP JUMPDEST SWAP2 POP POP SWAP3 SWAP6 POP SWAP3 SWAP6 SWAP1 SWAP4 POP JUMP JUMPDEST PUSH1 0x0 PUSH2 0x9BB DUP3 PUSH2 0x8EA JUMP JUMPDEST SWAP2 POP PUSH2 0x9C6 DUP4 PUSH2 0x8EA JUMP JUMPDEST SWAP3 POP DUP3 PUSH32 0x7FFFFFFFFFFFFFFFFFFFFFFFFFFFFFFFFFFFFFFFFFFFFFFFFFFFFFFFFFFFFFFF DIV DUP3 GT PUSH1 0x0 DUP5 SGT PUSH1 0x0 DUP5 SGT AND AND ISZERO PUSH2 0xA05 JUMPI PUSH2 0xA04 PUSH2 0x7BF JUMP JUMPDEST JUMPDEST DUP2 PUSH32 0x8000000000000000000000000000000000000000000000000000000000000000 SDIV DUP4 SLT PUSH1 0x0 DUP5 SLT PUSH1 0x0 DUP5 SGT AND AND ISZERO PUSH2 0xA42 JUMPI PUSH2 0xA41 PUSH2 0x7BF JUMP JUMPDEST JUMPDEST DUP3 PUSH32 0x8000000000000000000000000000000000000000000000000000000000000000 SDIV DUP3 SLT PUSH1 0x0 DUP5 SGT PUSH1 0x0 DUP5 SLT AND AND ISZERO PUSH2 0xA7F JUMPI PUSH2 0xA7E PUSH2 0x7BF JUMP JUMPDEST JUMPDEST DUP3 PUSH32 0x7FFFFFFFFFFFFFFFFFFFFFFFFFFFFFFFFFFFFFFFFFFFFFFFFFFFFFFFFFFFFFFF SDIV DUP3 SLT PUSH1 0x0 DUP5 SLT PUSH1 0x0 DUP5 SLT AND AND ISZERO PUSH2 0xABC JUMPI PUSH2 0xABB PUSH2 0x7BF JUMP JUMPDEST JUMPDEST DUP3 DUP3 MUL SWAP1 POP SWAP3 SWAP2 POP POP JUMP INVALID LOG2 PUSH5 0x6970667358 0x22 SLT KECCAK256 0xAF SWAP11 0xE0 0xE6 0x5C 0xDD 0xF6 0xBE CREATE DUP6 0xC1 EQ 0xE2 DUP5 EXTCODEHASH 0xD2 0xAD SDIV 0xEE 0xEB 0xFB SDIV CREATE2 PUSH7 0x11FFBED597613A OR PUSH5 0x736F6C6343 STOP ADDMOD ADDMOD STOP CALLER "
				},
				"gasEstimates": {
					"creation": {
						"codeDepositCost": "562600",
						"executionCost": "22700",
						"totalCost": "585300"
					},
					"external": {
						"addressToAmountFunded(address)": "2814",
						"fund()": "infinite",
						"funders(uint256)": "5000",
						"minimunUSD()": "2495",
						"withdraw()": "infinite"
					}
				},
				"methodIdentifiers": {
					"addressToAmountFunded(address)": "3e47d6f3",
					"fund()": "b60d4288",
					"funders(uint256)": "dc0d3dff",
					"minimunUSD()": "f1b7c0ef",
					"withdraw()": "3ccfd60b"
				}
			},
			"storageLayout": {
				"storage": [
					{
						"astId": 56,
						"contract": "contracts/FundMe.sol:FundMe",
						"label": "minimunUSD",
						"offset": 0,
						"slot": "0",
						"type": "t_uint256"
					},
					{
						"astId": 59,
						"contract": "contracts/FundMe.sol:FundMe",
						"label": "funders",
						"offset": 0,
						"slot": "1",
						"type": "t_array(t_address)dyn_storage"
					},
					{
						"astId": 63,
						"contract": "contracts/FundMe.sol:FundMe",
						"label": "addressToAmountFunded",
						"offset": 0,
						"slot": "2",
						"type": "t_mapping(t_address,t_uint256)"
					}
				],
				"types": {
					"t_address": {
						"encoding": "inplace",
						"label": "address",
						"numberOfBytes": "20"
					},
					"t_array(t_address)dyn_storage": {
						"base": "t_address",
						"encoding": "dynamic_array",
						"label": "address[]",
						"numberOfBytes": "32"
					},
					"t_mapping(t_address,t_uint256)": {
						"encoding": "mapping",
						"key": "t_address",
						"label": "mapping(address => uint256)",
						"numberOfBytes": "32",
						"value": "t_uint256"
					},
					"t_uint256": {
						"encoding": "inplace",
						"label": "uint256",
						"numberOfBytes": "32"
					}
				}
			},
			"userdoc": {
				"kind": "user",
				"methods": {},
				"version": 1
			}
		}
	}
}