{
	"contracts/FundMe.sol": {
		"FundMe": {
			"abi": [
				{
					"inputs": [],
					"name": "fund",
					"outputs": [],
					"stateMutability": "payable",
					"type": "function"
				}
			],
			"devdoc": {
				"kind": "dev",
				"methods": {},
				"version": 1
			},
			"evm": {
				"assembly": "    /* \"contracts/FundMe.sol\":240:581  contract FundMe {... */\n  mstore(0x40, 0x80)\n  callvalue\n  dup1\n  iszero\n  tag_1\n  jumpi\n  0x00\n  dup1\n  revert\ntag_1:\n  pop\n  dataSize(sub_0)\n  dup1\n  dataOffset(sub_0)\n  0x00\n  codecopy\n  0x00\n  return\nstop\n\nsub_0: assembly {\n        /* \"contracts/FundMe.sol\":240:581  contract FundMe {... */\n      mstore(0x40, 0x80)\n      jumpi(tag_1, lt(calldatasize, 0x04))\n      shr(0xe0, calldataload(0x00))\n      dup1\n      0xb60d4288\n      eq\n      tag_2\n      jumpi\n    tag_1:\n      0x00\n      dup1\n      revert\n        /* \"contracts/FundMe.sol\":263:540  function fund() public payable {... */\n    tag_2:\n      tag_3\n      tag_4\n      jump\t// in\n    tag_3:\n      stop\n    tag_4:\n        /* \"contracts/FundMe.sol\":453:457  1e18 */\n      0x0de0b6b3a7640000\n        /* \"contracts/FundMe.sol\":441:450  msg.value */\n      callvalue\n        /* \"contracts/FundMe.sol\":441:457  msg.value > 1e18 */\n      gt\n        /* \"contracts/FundMe.sol\":433:458  require(msg.value > 1e18) */\n      tag_6\n      jumpi\n      0x00\n      dup1\n      revert\n    tag_6:\n        /* \"contracts/FundMe.sol\":263:540  function fund() public payable {... */\n      jump\t// out\n\n    auxdata: 0xa2646970667358221220154ef09d5321bbd6c66a6aec48c7cf3c51d368d87e0740350bc86dec72f4d2eb64736f6c63430008080033\n}\n",
				"bytecode": {
					"linkReferences": {},
					"object": "6080604052348015600f57600080fd5b5060748061001e6000396000f3fe608060405260043610601c5760003560e01c8063b60d4288146021575b600080fd5b60276029565b005b670de0b6b3a76400003411603c57600080fd5b56fea2646970667358221220154ef09d5321bbd6c66a6aec48c7cf3c51d368d87e0740350bc86dec72f4d2eb64736f6c63430008080033",
					"opcodes": "PUSH1 0x80 PUSH1 0x40 MSTORE CALLVALUE DUP1 ISZERO PUSH1 0xF JUMPI PUSH1 0x0 DUP1 REVERT JUMPDEST POP PUSH1 0x74 DUP1 PUSH2 0x1E PUSH1 0x0 CODECOPY PUSH1 0x0 RETURN INVALID PUSH1 0x80 PUSH1 0x40 MSTORE PUSH1 0x4 CALLDATASIZE LT PUSH1 0x1C JUMPI PUSH1 0x0 CALLDATALOAD PUSH1 0xE0 SHR DUP1 PUSH4 0xB60D4288 EQ PUSH1 0x21 JUMPI JUMPDEST PUSH1 0x0 DUP1 REVERT JUMPDEST PUSH1 0x27 PUSH1 0x29 JUMP JUMPDEST STOP JUMPDEST PUSH8 0xDE0B6B3A7640000 CALLVALUE GT PUSH1 0x3C JUMPI PUSH1 0x0 DUP1 REVERT JUMPDEST JUMP INVALID LOG2 PUSH5 0x6970667358 0x22 SLT KECCAK256 ISZERO 0x4E CREATE SWAP14 MSTORE8 0x21 0xBB 0xD6 0xC6 PUSH11 0x6AEC48C7CF3C51D368D87E SMOD BLOCKHASH CALLDATALOAD SIGNEXTEND 0xC8 PUSH14 0xEC72F4D2EB64736F6C6343000808 STOP CALLER "
				},
				"gasEstimates": {
					"creation": {
						"codeDepositCost": "23200",
						"executionCost": "75",
						"totalCost": "23275"
					},
					"external": {
						"fund()": "120"
					}
				},
				"methodIdentifiers": {
					"fund()": "b60d4288"
				}
			},
			"storageLayout": {
				"storage": [],
				"types": null
			},
			"userdoc": {
				"kind": "user",
				"methods": {},
				"version": 1
			}
		}
	}
}