{
	"contracts/FundMe.sol": {
		"FundMe": {
			"abi": [
				{
					"inputs": [],
					"stateMutability": "nonpayable",
					"type": "constructor"
				},
				{
					"inputs": [
						{
							"internalType": "address",
							"name": "",
							"type": "address"
						}
					],
					"name": "addressToAmountFunded",
					"outputs": [
						{
							"internalType": "uint256",
							"name": "",
							"type": "uint256"
						}
					],
					"stateMutability": "view",
					"type": "function"
				},
				{
					"inputs": [],
					"name": "fund",
					"outputs": [],
					"stateMutability": "payable",
					"type": "function"
				},
				{
					"inputs": [
						{
							"internalType": "uint256",
							"name": "",
							"type": "uint256"
						}
					],
					"name": "funders",
					"outputs": [
						{
							"internalType": "address",
							"name": "",
							"type": "address"
						}
					],
					"stateMutability": "view",
					"type": "function"
				},
				{
					"inputs": [],
					"name": "i_owner",
					"outputs": [
						{
							"internalType": "address",
							"name": "",
							"type": "address"
						}
					],
					"stateMutability": "view",
					"type": "function"
				},
				{
					"inputs": [],
					"name": "minimunUSD",
					"outputs": [
						{
							"internalType": "uint256",
							"name": "",
							"type": "uint256"
						}
					],
					"stateMutability": "view",
					"type": "function"
				},
				{
					"inputs": [],
					"name": "withdraw",
					"outputs": [],
					"stateMutability": "nonpayable",
					"type": "function"
				}
			],
			"devdoc": {
				"kind": "dev",
				"methods": {},
				"version": 1
			},
			"evm": {
				"assembly": "    /* \"contracts/FundMe.sol\":272:3540  contract FundMe {... */\n  mstore(0x40, 0xa0)\n    /* \"contracts/FundMe.sol\":947:1119  constructor(){... */\n  callvalue\n  dup1\n  iszero\n  tag_1\n  jumpi\n  0x00\n  dup1\n  revert\ntag_1:\n  pop\n    /* \"contracts/FundMe.sol\":980:990  msg.sender */\n  caller\n    /* \"contracts/FundMe.sol\":970:990  i_owner = msg.sender */\n  0xffffffffffffffffffffffffffffffffffffffff\n  and\n  0x80\n  dup2\n  0xffffffffffffffffffffffffffffffffffffffff\n  and\n  0x60\n  shl\n  dup2\n  mstore\n  pop\n  pop\n    /* \"contracts/FundMe.sol\":272:3540  contract FundMe {... */\n  shr(0x60, mload(0x80))\n  codecopy(0x00, dataOffset(sub_0), dataSize(sub_0))\n  0x00\n  assignImmutable(\"0x606503ebd6bdca7290248af82fd5a09ca0489398da9f242244210336ae6ece9f\")\n  return(0x00, dataSize(sub_0))\nstop\n\nsub_0: assembly {\n        /* \"contracts/FundMe.sol\":272:3540  contract FundMe {... */\n      mstore(0x40, 0x80)\n      jumpi(tag_1, lt(calldatasize, 0x04))\n      shr(0xe0, calldataload(0x00))\n      dup1\n      0x3ccfd60b\n      eq\n      tag_2\n      jumpi\n      dup1\n      0x3e47d6f3\n      eq\n      tag_3\n      jumpi\n      dup1\n      0xb60d4288\n      eq\n      tag_4\n      jumpi\n      dup1\n      0xdba6335f\n      eq\n      tag_5\n      jumpi\n      dup1\n      0xdc0d3dff\n      eq\n      tag_6\n      jumpi\n      dup1\n      0xf1b7c0ef\n      eq\n      tag_7\n      jumpi\n    tag_1:\n      0x00\n      dup1\n      revert\n        /* \"contracts/FundMe.sol\":2125:3245  function withdraw() public onlyOwner {   // Con lo de onlyOwner estamos añadiendo el modifier que es como un require. ... */\n    tag_2:\n      callvalue\n      dup1\n      iszero\n      tag_8\n      jumpi\n      0x00\n      dup1\n      revert\n    tag_8:\n      pop\n      tag_9\n      tag_10\n      jump\t// in\n    tag_9:\n      stop\n        /* \"contracts/FundMe.sol\":745:801  mapping(address => uint256) public addressToAmountFunded */\n    tag_3:\n      callvalue\n      dup1\n      iszero\n      tag_11\n      jumpi\n      0x00\n      dup1\n      revert\n    tag_11:\n      pop\n      tag_12\n      0x04\n      dup1\n      calldatasize\n      sub\n      dup2\n      add\n      swap1\n      tag_13\n      swap2\n      swap1\n      tag_14\n      jump\t// in\n    tag_13:\n      tag_15\n      jump\t// in\n    tag_12:\n      mload(0x40)\n      tag_16\n      swap2\n      swap1\n      tag_17\n      jump\t// in\n    tag_16:\n      mload(0x40)\n      dup1\n      swap2\n      sub\n      swap1\n      return\n        /* \"contracts/FundMe.sol\":1125:2119  function fund() public payable {... */\n    tag_4:\n      tag_18\n      tag_19\n      jump\t// in\n    tag_18:\n      stop\n        /* \"contracts/FundMe.sol\":908:940  address public immutable i_owner */\n    tag_5:\n      callvalue\n      dup1\n      iszero\n      tag_20\n      jumpi\n      0x00\n      dup1\n      revert\n    tag_20:\n      pop\n      tag_21\n      tag_22\n      jump\t// in\n    tag_21:\n      mload(0x40)\n      tag_23\n      swap2\n      swap1\n      tag_24\n      jump\t// in\n    tag_23:\n      mload(0x40)\n      dup1\n      swap2\n      sub\n      swap1\n      return\n        /* \"contracts/FundMe.sol\":612:636  address[] public funders */\n    tag_6:\n      callvalue\n      dup1\n      iszero\n      tag_25\n      jumpi\n      0x00\n      dup1\n      revert\n    tag_25:\n      pop\n      tag_26\n      0x04\n      dup1\n      calldatasize\n      sub\n      dup2\n      add\n      swap1\n      tag_27\n      swap2\n      swap1\n      tag_28\n      jump\t// in\n    tag_27:\n      tag_29\n      jump\t// in\n    tag_26:\n      mload(0x40)\n      tag_30\n      swap2\n      swap1\n      tag_24\n      jump\t// in\n    tag_30:\n      mload(0x40)\n      dup1\n      swap2\n      sub\n      swap1\n      return\n        /* \"contracts/FundMe.sol\":522:568  uint256 public constant minimunUSD = 50 * 1e18 */\n    tag_7:\n      callvalue\n      dup1\n      iszero\n      tag_31\n      jumpi\n      0x00\n      dup1\n      revert\n    tag_31:\n      pop\n      tag_32\n      tag_33\n      jump\t// in\n    tag_32:\n      mload(0x40)\n      tag_34\n      swap2\n      swap1\n      tag_17\n      jump\t// in\n    tag_34:\n      mload(0x40)\n      dup1\n      swap2\n      sub\n      swap1\n      return\n        /* \"contracts/FundMe.sol\":2125:3245  function withdraw() public onlyOwner {   // Con lo de onlyOwner estamos añadiendo el modifier que es como un require. ... */\n    tag_10:\n        /* \"contracts/FundMe.sol\":3306:3313  i_owner */\n      immutable(\"0x606503ebd6bdca7290248af82fd5a09ca0489398da9f242244210336ae6ece9f\")\n        /* \"contracts/FundMe.sol\":3292:3313  msg.sender == i_owner */\n      0xffffffffffffffffffffffffffffffffffffffff\n      and\n        /* \"contracts/FundMe.sol\":3292:3302  msg.sender */\n      caller\n        /* \"contracts/FundMe.sol\":3292:3313  msg.sender == i_owner */\n      0xffffffffffffffffffffffffffffffffffffffff\n      and\n      eq\n        /* \"contracts/FundMe.sol\":3284:3340  require(msg.sender == i_owner, \"Sender is not owner!!!\") */\n      tag_36\n      jumpi\n      mload(0x40)\n      0x08c379a000000000000000000000000000000000000000000000000000000000\n      dup2\n      mstore\n      0x04\n      add\n      tag_37\n      swap1\n      tag_38\n      jump\t// in\n    tag_37:\n      mload(0x40)\n      dup1\n      swap2\n      sub\n      swap1\n      revert\n    tag_36:\n        /* \"contracts/FundMe.sol\":2843:2844  0 */\n      0x00\n        /* \"contracts/FundMe.sol\":2828:2845  new address[] (0) */\n      0xffffffffffffffff\n      dup2\n      gt\n      iszero\n      tag_40\n      jumpi\n      tag_41\n      tag_42\n      jump\t// in\n    tag_41:\n    tag_40:\n      mload(0x40)\n      swap1\n      dup1\n      dup3\n      mstore\n      dup1\n      0x20\n      mul\n      0x20\n      add\n      dup3\n      add\n      0x40\n      mstore\n      dup1\n      iszero\n      tag_43\n      jumpi\n      dup2\n      0x20\n      add\n      0x20\n      dup3\n      mul\n      dup1\n      calldatasize\n      dup4\n      calldatacopy\n      dup1\n      dup3\n      add\n      swap2\n      pop\n      pop\n      swap1\n      pop\n    tag_43:\n      pop\n        /* \"contracts/FundMe.sol\":2818:2825  funders */\n      0x00\n        /* \"contracts/FundMe.sol\":2818:2845  funders = new address[] (0) */\n      swap1\n      dup1\n      mload\n      swap1\n      0x20\n      add\n      swap1\n      tag_44\n      swap3\n      swap2\n      swap1\n      tag_45\n      jump\t// in\n    tag_44:\n      pop\n        /* \"contracts/FundMe.sol\":2882:2898  bool callSuccess */\n      0x00\n        /* \"contracts/FundMe.sol\":2941:2951  msg.sender */\n      caller\n        /* \"contracts/FundMe.sol\":2933:2957  payable(msg.sender).call */\n      0xffffffffffffffffffffffffffffffffffffffff\n      and\n        /* \"contracts/FundMe.sol\":2965:2986  address(this).balance */\n      selfbalance\n        /* \"contracts/FundMe.sol\":2933:2991  payable(msg.sender).call{value: address(this).balance}(\"\") */\n      mload(0x40)\n      tag_46\n      swap1\n      tag_47\n      jump\t// in\n    tag_46:\n      0x00\n      mload(0x40)\n      dup1\n      dup4\n      sub\n      dup2\n      dup6\n      dup8\n      gas\n      call\n      swap3\n      pop\n      pop\n      pop\n      returndatasize\n      dup1\n      0x00\n      dup2\n      eq\n      tag_50\n      jumpi\n      mload(0x40)\n      swap2\n      pop\n      and(add(returndatasize, 0x3f), not(0x1f))\n      dup3\n      add\n      0x40\n      mstore\n      returndatasize\n      dup3\n      mstore\n      returndatasize\n      0x00\n      0x20\n      dup5\n      add\n      returndatacopy\n      jump(tag_49)\n    tag_50:\n      0x60\n      swap2\n      pop\n    tag_49:\n      pop\n        /* \"contracts/FundMe.sol\":2881:2991  (bool callSuccess, /*bytes memory dataReturned*/) = payable(msg.sender).call{value: address(this).balance}(\"\") */\n      pop\n      swap1\n      pop\n        /* \"contracts/FundMe.sol\":3211:3222  callSuccess */\n      dup1\n        /* \"contracts/FundMe.sol\":3203:3238  require(callSuccess, \"Call failed\") */\n      tag_51\n      jumpi\n      mload(0x40)\n      0x08c379a000000000000000000000000000000000000000000000000000000000\n      dup2\n      mstore\n      0x04\n      add\n      tag_52\n      swap1\n      tag_53\n      jump\t// in\n    tag_52:\n      mload(0x40)\n      dup1\n      swap2\n      sub\n      swap1\n      revert\n    tag_51:\n        /* \"contracts/FundMe.sol\":2162:3245  {   // Con lo de onlyOwner estamos añadiendo el modifier que es como un require. ... */\n      pop\n        /* \"contracts/FundMe.sol\":2125:3245  function withdraw() public onlyOwner {   // Con lo de onlyOwner estamos añadiendo el modifier que es como un require. ... */\n      jump\t// out\n        /* \"contracts/FundMe.sol\":745:801  mapping(address => uint256) public addressToAmountFunded */\n    tag_15:\n      mstore(0x20, 0x01)\n      dup1\n      0x00\n      mstore\n      keccak256(0x00, 0x40)\n      0x00\n      swap2\n      pop\n      swap1\n      pop\n      sload\n      dup2\n      jump\t// out\n        /* \"contracts/FundMe.sol\":1125:2119  function fund() public payable {... */\n    tag_19:\n        /* \"contracts/FundMe.sol\":1334:1363  msg.value.getConversionRate() */\n      tag_55\n        /* \"contracts/FundMe.sol\":1334:1343  msg.value */\n      callvalue\n        /* \"contracts/FundMe.sol\":1334:1361  msg.value.getConversionRate */\n      tag_56\n        /* \"contracts/FundMe.sol\":1334:1363  msg.value.getConversionRate() */\n      jump\t// in\n    tag_55:\n      pop\n        /* \"contracts/FundMe.sol\":559:568  50 * 1e18 */\n      0x02b5e3af16b1880000\n        /* \"contracts/FundMe.sol\":1428:1457  msg.value.getConversionRate() */\n      tag_57\n        /* \"contracts/FundMe.sol\":1428:1437  msg.value */\n      callvalue\n        /* \"contracts/FundMe.sol\":1428:1455  msg.value.getConversionRate */\n      tag_56\n        /* \"contracts/FundMe.sol\":1428:1457  msg.value.getConversionRate() */\n      jump\t// in\n    tag_57:\n        /* \"contracts/FundMe.sol\":1428:1471  msg.value.getConversionRate() >= minimunUSD */\n      lt\n      iszero\n        /* \"contracts/FundMe.sol\":1420:1497  require(msg.value.getConversionRate() >= minimunUSD, \"Didn't send enough!!!\") */\n      tag_58\n      jumpi\n      mload(0x40)\n      0x08c379a000000000000000000000000000000000000000000000000000000000\n      dup2\n      mstore\n      0x04\n      add\n      tag_59\n      swap1\n      tag_60\n      jump\t// in\n    tag_59:\n      mload(0x40)\n      dup1\n      swap2\n      sub\n      swap1\n      revert\n    tag_58:\n        /* \"contracts/FundMe.sol\":1816:1823  funders */\n      0x00\n        /* \"contracts/FundMe.sol\":1829:1839  msg.sender */\n      caller\n        /* \"contracts/FundMe.sol\":1816:1840  funders.push(msg.sender) */\n      swap1\n      dup1\n      0x01\n      dup2\n      sload\n      add\n      dup1\n      dup3\n      sstore\n      dup1\n      swap2\n      pop\n      pop\n      0x01\n      swap1\n      sub\n      swap1\n      0x00\n      mstore\n      keccak256(0x00, 0x20)\n      add\n      0x00\n      swap1\n      swap2\n      swap1\n      swap2\n      swap1\n      swap2\n      0x0100\n      exp\n      dup2\n      sload\n      dup2\n      0xffffffffffffffffffffffffffffffffffffffff\n      mul\n      not\n      and\n      swap1\n      dup4\n      0xffffffffffffffffffffffffffffffffffffffff\n      and\n      mul\n      or\n      swap1\n      sstore\n      pop\n        /* \"contracts/FundMe.sol\":1994:2003  msg.value */\n      callvalue\n        /* \"contracts/FundMe.sol\":1958:1979  addressToAmountFunded */\n      0x01\n        /* \"contracts/FundMe.sol\":1958:1991  addressToAmountFunded[msg.sender] */\n      0x00\n        /* \"contracts/FundMe.sol\":1980:1990  msg.sender */\n      caller\n        /* \"contracts/FundMe.sol\":1958:1991  addressToAmountFunded[msg.sender] */\n      0xffffffffffffffffffffffffffffffffffffffff\n      and\n      0xffffffffffffffffffffffffffffffffffffffff\n      and\n      dup2\n      mstore\n      0x20\n      add\n      swap1\n      dup2\n      mstore\n      0x20\n      add\n      0x00\n      keccak256\n        /* \"contracts/FundMe.sol\":1958:2003  addressToAmountFunded[msg.sender] = msg.value */\n      dup2\n      swap1\n      sstore\n      pop\n        /* \"contracts/FundMe.sol\":1125:2119  function fund() public payable {... */\n      jump\t// out\n        /* \"contracts/FundMe.sol\":908:940  address public immutable i_owner */\n    tag_22:\n      immutable(\"0x606503ebd6bdca7290248af82fd5a09ca0489398da9f242244210336ae6ece9f\")\n      dup2\n      jump\t// out\n        /* \"contracts/FundMe.sol\":612:636  address[] public funders */\n    tag_29:\n      0x00\n      dup2\n      dup2\n      sload\n      dup2\n      lt\n      tag_62\n      jumpi\n      0x00\n      dup1\n      revert\n    tag_62:\n      swap1\n      0x00\n      mstore\n      keccak256(0x00, 0x20)\n      add\n      0x00\n      swap2\n      pop\n      sload\n      swap1\n      0x0100\n      exp\n      swap1\n      div\n      0xffffffffffffffffffffffffffffffffffffffff\n      and\n      dup2\n      jump\t// out\n        /* \"contracts/FundMe.sol\":522:568  uint256 public constant minimunUSD = 50 * 1e18 */\n    tag_33:\n        /* \"contracts/FundMe.sol\":559:568  50 * 1e18 */\n      0x02b5e3af16b1880000\n        /* \"contracts/FundMe.sol\":522:568  uint256 public constant minimunUSD = 50 * 1e18 */\n      dup2\n      jump\t// out\n        /* \"contracts/PriceConverter.sol\":846:1474  function getConversionRate(uint256 ethAmount) internal view returns (uint256) {... */\n    tag_56:\n        /* \"contracts/PriceConverter.sol\":915:922  uint256 */\n      0x00\n        /* \"contracts/PriceConverter.sol\":1031:1047  uint256 ethPrice */\n      dup1\n        /* \"contracts/PriceConverter.sol\":1050:1060  getPrice() */\n      tag_65\n        /* \"contracts/PriceConverter.sol\":1050:1058  getPrice */\n      tag_66\n        /* \"contracts/PriceConverter.sol\":1050:1060  getPrice() */\n      jump\t// in\n    tag_65:\n        /* \"contracts/PriceConverter.sol\":1031:1060  uint256 ethPrice = getPrice() */\n      swap1\n      pop\n        /* \"contracts/PriceConverter.sol\":1179:1201  uint256 ethAmountInUsd */\n      0x00\n        /* \"contracts/PriceConverter.sol\":1229:1233  1e18 */\n      0x0de0b6b3a7640000\n        /* \"contracts/PriceConverter.sol\":1216:1225  ethAmount */\n      dup5\n        /* \"contracts/PriceConverter.sol\":1205:1213  ethPrice */\n      dup4\n        /* \"contracts/PriceConverter.sol\":1205:1225  ethPrice * ethAmount */\n      tag_67\n      swap2\n      swap1\n      tag_68\n      jump\t// in\n    tag_67:\n        /* \"contracts/PriceConverter.sol\":1204:1233  (ethPrice * ethAmount) / 1e18 */\n      tag_69\n      swap2\n      swap1\n      tag_70\n      jump\t// in\n    tag_69:\n        /* \"contracts/PriceConverter.sol\":1179:1233  uint256 ethAmountInUsd = (ethPrice * ethAmount) / 1e18 */\n      swap1\n      pop\n        /* \"contracts/PriceConverter.sol\":1453:1467  ethAmountInUsd */\n      dup1\n        /* \"contracts/PriceConverter.sol\":1446:1467  return ethAmountInUsd */\n      swap3\n      pop\n      pop\n      pop\n        /* \"contracts/PriceConverter.sol\":846:1474  function getConversionRate(uint256 ethAmount) internal view returns (uint256) {... */\n      swap2\n      swap1\n      pop\n      jump\t// out\n        /* \"contracts/PriceConverter.sol\":231:627  function getPrice() internal view returns(uint256) {... */\n    tag_66:\n        /* \"contracts/PriceConverter.sol\":273:280  uint256 */\n      0x00\n        /* \"contracts/PriceConverter.sol\":292:323  AggregatorV3Interface priceFeed */\n      dup1\n        /* \"contracts/PriceConverter.sol\":348:390  0x8A753747A1Fa494EC906cE90E9f37563A8AF630e */\n      0x8a753747a1fa494ec906ce90e9f37563a8af630e\n        /* \"contracts/PriceConverter.sol\":292:391  AggregatorV3Interface priceFeed = AggregatorV3Interface(0x8A753747A1Fa494EC906cE90E9f37563A8AF630e) */\n      swap1\n      pop\n        /* \"contracts/PriceConverter.sol\":403:415  int256 price */\n      0x00\n        /* \"contracts/PriceConverter.sol\":422:431  priceFeed */\n      dup2\n        /* \"contracts/PriceConverter.sol\":422:447  priceFeed.latestRoundData */\n      0xffffffffffffffffffffffffffffffffffffffff\n      and\n      0xfeaf968c\n        /* \"contracts/PriceConverter.sol\":422:449  priceFeed.latestRoundData() */\n      mload(0x40)\n      dup2\n      0xffffffff\n      and\n      0xe0\n      shl\n      dup2\n      mstore\n      0x04\n      add\n      0xa0\n      mload(0x40)\n      dup1\n      dup4\n      sub\n      dup2\n      dup7\n      dup1\n      extcodesize\n      iszero\n      dup1\n      iszero\n      tag_72\n      jumpi\n      0x00\n      dup1\n      revert\n    tag_72:\n      pop\n      gas\n      staticcall\n      iszero\n      dup1\n      iszero\n      tag_74\n      jumpi\n      returndatasize\n      0x00\n      dup1\n      returndatacopy\n      revert(0x00, returndatasize)\n    tag_74:\n      pop\n      pop\n      pop\n      pop\n      mload(0x40)\n      returndatasize\n      not(0x1f)\n      0x1f\n      dup3\n      add\n      and\n      dup3\n      add\n      dup1\n      0x40\n      mstore\n      pop\n      dup2\n      add\n      swap1\n      tag_75\n      swap2\n      swap1\n      tag_76\n      jump\t// in\n    tag_75:\n        /* \"contracts/PriceConverter.sol\":401:449  (,int256 price,,,) = priceFeed.latestRoundData() */\n      pop\n      pop\n      pop\n      swap2\n      pop\n      pop\n        /* \"contracts/PriceConverter.sol\":537:541  1e10 */\n      0x02540be400\n        /* \"contracts/PriceConverter.sol\":529:534  price */\n      dup2\n        /* \"contracts/PriceConverter.sol\":529:541  price * 1e10 */\n      tag_77\n      swap2\n      swap1\n      tag_78\n      jump\t// in\n    tag_77:\n        /* \"contracts/PriceConverter.sol\":514:542  return uint256(price * 1e10) */\n      swap3\n      pop\n      pop\n      pop\n        /* \"contracts/PriceConverter.sol\":231:627  function getPrice() internal view returns(uint256) {... */\n      swap1\n      jump\t// out\n    tag_45:\n      dup3\n      dup1\n      sload\n      dup3\n      dup3\n      sstore\n      swap1\n      0x00\n      mstore\n      keccak256(0x00, 0x20)\n      swap1\n      dup2\n      add\n      swap3\n      dup3\n      iszero\n      tag_79\n      jumpi\n      swap2\n      0x20\n      mul\n      dup3\n      add\n    tag_80:\n      dup3\n      dup2\n      gt\n      iszero\n      tag_81\n      jumpi\n      dup3\n      mload\n      dup3\n      exp(0x0100, 0x00)\n      dup2\n      sload\n      dup2\n      0xffffffffffffffffffffffffffffffffffffffff\n      mul\n      not\n      and\n      swap1\n      dup4\n      0xffffffffffffffffffffffffffffffffffffffff\n      and\n      mul\n      or\n      swap1\n      sstore\n      pop\n      swap2\n      0x20\n      add\n      swap2\n      swap1\n      0x01\n      add\n      swap1\n      jump(tag_80)\n    tag_81:\n    tag_79:\n      pop\n      swap1\n      pop\n      tag_82\n      swap2\n      swap1\n      tag_83\n      jump\t// in\n    tag_82:\n      pop\n      swap1\n      jump\t// out\n    tag_83:\n    tag_84:\n      dup1\n      dup3\n      gt\n      iszero\n      tag_85\n      jumpi\n      0x00\n      dup2\n      0x00\n      swap1\n      sstore\n      pop\n      0x01\n      add\n      jump(tag_84)\n    tag_85:\n      pop\n      swap1\n      jump\t// out\n        /* \"#utility.yul\":88:205   */\n    tag_87:\n        /* \"#utility.yul\":197:198   */\n      0x00\n        /* \"#utility.yul\":194:195   */\n      dup1\n        /* \"#utility.yul\":187:199   */\n      revert\n        /* \"#utility.yul\":334:460   */\n    tag_89:\n        /* \"#utility.yul\":371:378   */\n      0x00\n        /* \"#utility.yul\":411:453   */\n      0xffffffffffffffffffffffffffffffffffffffff\n        /* \"#utility.yul\":404:409   */\n      dup3\n        /* \"#utility.yul\":400:454   */\n      and\n        /* \"#utility.yul\":389:454   */\n      swap1\n      pop\n        /* \"#utility.yul\":334:460   */\n      swap2\n      swap1\n      pop\n      jump\t// out\n        /* \"#utility.yul\":466:562   */\n    tag_90:\n        /* \"#utility.yul\":503:510   */\n      0x00\n        /* \"#utility.yul\":532:556   */\n      tag_123\n        /* \"#utility.yul\":550:555   */\n      dup3\n        /* \"#utility.yul\":532:556   */\n      tag_89\n      jump\t// in\n    tag_123:\n        /* \"#utility.yul\":521:556   */\n      swap1\n      pop\n        /* \"#utility.yul\":466:562   */\n      swap2\n      swap1\n      pop\n      jump\t// out\n        /* \"#utility.yul\":568:690   */\n    tag_91:\n        /* \"#utility.yul\":641:665   */\n      tag_125\n        /* \"#utility.yul\":659:664   */\n      dup2\n        /* \"#utility.yul\":641:665   */\n      tag_90\n      jump\t// in\n    tag_125:\n        /* \"#utility.yul\":634:639   */\n      dup2\n        /* \"#utility.yul\":631:666   */\n      eq\n        /* \"#utility.yul\":621:684   */\n      tag_126\n      jumpi\n        /* \"#utility.yul\":680:681   */\n      0x00\n        /* \"#utility.yul\":677:678   */\n      dup1\n        /* \"#utility.yul\":670:682   */\n      revert\n        /* \"#utility.yul\":621:684   */\n    tag_126:\n        /* \"#utility.yul\":568:690   */\n      pop\n      jump\t// out\n        /* \"#utility.yul\":696:835   */\n    tag_92:\n        /* \"#utility.yul\":742:747   */\n      0x00\n        /* \"#utility.yul\":780:786   */\n      dup2\n        /* \"#utility.yul\":767:787   */\n      calldataload\n        /* \"#utility.yul\":758:787   */\n      swap1\n      pop\n        /* \"#utility.yul\":796:829   */\n      tag_128\n        /* \"#utility.yul\":823:828   */\n      dup2\n        /* \"#utility.yul\":796:829   */\n      tag_91\n      jump\t// in\n    tag_128:\n        /* \"#utility.yul\":696:835   */\n      swap3\n      swap2\n      pop\n      pop\n      jump\t// out\n        /* \"#utility.yul\":841:1170   */\n    tag_14:\n        /* \"#utility.yul\":900:906   */\n      0x00\n        /* \"#utility.yul\":949:951   */\n      0x20\n        /* \"#utility.yul\":937:946   */\n      dup3\n        /* \"#utility.yul\":928:935   */\n      dup5\n        /* \"#utility.yul\":924:947   */\n      sub\n        /* \"#utility.yul\":920:952   */\n      slt\n        /* \"#utility.yul\":917:1036   */\n      iszero\n      tag_130\n      jumpi\n        /* \"#utility.yul\":955:1034   */\n      tag_131\n      tag_87\n      jump\t// in\n    tag_131:\n        /* \"#utility.yul\":917:1036   */\n    tag_130:\n        /* \"#utility.yul\":1075:1076   */\n      0x00\n        /* \"#utility.yul\":1100:1153   */\n      tag_132\n        /* \"#utility.yul\":1145:1152   */\n      dup5\n        /* \"#utility.yul\":1136:1142   */\n      dup3\n        /* \"#utility.yul\":1125:1134   */\n      dup6\n        /* \"#utility.yul\":1121:1143   */\n      add\n        /* \"#utility.yul\":1100:1153   */\n      tag_92\n      jump\t// in\n    tag_132:\n        /* \"#utility.yul\":1090:1153   */\n      swap2\n      pop\n        /* \"#utility.yul\":1046:1163   */\n      pop\n        /* \"#utility.yul\":841:1170   */\n      swap3\n      swap2\n      pop\n      pop\n      jump\t// out\n        /* \"#utility.yul\":1176:1253   */\n    tag_93:\n        /* \"#utility.yul\":1213:1220   */\n      0x00\n        /* \"#utility.yul\":1242:1247   */\n      dup2\n        /* \"#utility.yul\":1231:1247   */\n      swap1\n      pop\n        /* \"#utility.yul\":1176:1253   */\n      swap2\n      swap1\n      pop\n      jump\t// out\n        /* \"#utility.yul\":1259:1377   */\n    tag_94:\n        /* \"#utility.yul\":1346:1370   */\n      tag_135\n        /* \"#utility.yul\":1364:1369   */\n      dup2\n        /* \"#utility.yul\":1346:1370   */\n      tag_93\n      jump\t// in\n    tag_135:\n        /* \"#utility.yul\":1341:1344   */\n      dup3\n        /* \"#utility.yul\":1334:1371   */\n      mstore\n        /* \"#utility.yul\":1259:1377   */\n      pop\n      pop\n      jump\t// out\n        /* \"#utility.yul\":1383:1605   */\n    tag_17:\n        /* \"#utility.yul\":1476:1480   */\n      0x00\n        /* \"#utility.yul\":1514:1516   */\n      0x20\n        /* \"#utility.yul\":1503:1512   */\n      dup3\n        /* \"#utility.yul\":1499:1517   */\n      add\n        /* \"#utility.yul\":1491:1517   */\n      swap1\n      pop\n        /* \"#utility.yul\":1527:1598   */\n      tag_137\n        /* \"#utility.yul\":1595:1596   */\n      0x00\n        /* \"#utility.yul\":1584:1593   */\n      dup4\n        /* \"#utility.yul\":1580:1597   */\n      add\n        /* \"#utility.yul\":1571:1577   */\n      dup5\n        /* \"#utility.yul\":1527:1598   */\n      tag_94\n      jump\t// in\n    tag_137:\n        /* \"#utility.yul\":1383:1605   */\n      swap3\n      swap2\n      pop\n      pop\n      jump\t// out\n        /* \"#utility.yul\":1611:1729   */\n    tag_95:\n        /* \"#utility.yul\":1698:1722   */\n      tag_139\n        /* \"#utility.yul\":1716:1721   */\n      dup2\n        /* \"#utility.yul\":1698:1722   */\n      tag_90\n      jump\t// in\n    tag_139:\n        /* \"#utility.yul\":1693:1696   */\n      dup3\n        /* \"#utility.yul\":1686:1723   */\n      mstore\n        /* \"#utility.yul\":1611:1729   */\n      pop\n      pop\n      jump\t// out\n        /* \"#utility.yul\":1735:1957   */\n    tag_24:\n        /* \"#utility.yul\":1828:1832   */\n      0x00\n        /* \"#utility.yul\":1866:1868   */\n      0x20\n        /* \"#utility.yul\":1855:1864   */\n      dup3\n        /* \"#utility.yul\":1851:1869   */\n      add\n        /* \"#utility.yul\":1843:1869   */\n      swap1\n      pop\n        /* \"#utility.yul\":1879:1950   */\n      tag_141\n        /* \"#utility.yul\":1947:1948   */\n      0x00\n        /* \"#utility.yul\":1936:1945   */\n      dup4\n        /* \"#utility.yul\":1932:1949   */\n      add\n        /* \"#utility.yul\":1923:1929   */\n      dup5\n        /* \"#utility.yul\":1879:1950   */\n      tag_95\n      jump\t// in\n    tag_141:\n        /* \"#utility.yul\":1735:1957   */\n      swap3\n      swap2\n      pop\n      pop\n      jump\t// out\n        /* \"#utility.yul\":1963:2085   */\n    tag_96:\n        /* \"#utility.yul\":2036:2060   */\n      tag_143\n        /* \"#utility.yul\":2054:2059   */\n      dup2\n        /* \"#utility.yul\":2036:2060   */\n      tag_93\n      jump\t// in\n    tag_143:\n        /* \"#utility.yul\":2029:2034   */\n      dup2\n        /* \"#utility.yul\":2026:2061   */\n      eq\n        /* \"#utility.yul\":2016:2079   */\n      tag_144\n      jumpi\n        /* \"#utility.yul\":2075:2076   */\n      0x00\n        /* \"#utility.yul\":2072:2073   */\n      dup1\n        /* \"#utility.yul\":2065:2077   */\n      revert\n        /* \"#utility.yul\":2016:2079   */\n    tag_144:\n        /* \"#utility.yul\":1963:2085   */\n      pop\n      jump\t// out\n        /* \"#utility.yul\":2091:2230   */\n    tag_97:\n        /* \"#utility.yul\":2137:2142   */\n      0x00\n        /* \"#utility.yul\":2175:2181   */\n      dup2\n        /* \"#utility.yul\":2162:2182   */\n      calldataload\n        /* \"#utility.yul\":2153:2182   */\n      swap1\n      pop\n        /* \"#utility.yul\":2191:2224   */\n      tag_146\n        /* \"#utility.yul\":2218:2223   */\n      dup2\n        /* \"#utility.yul\":2191:2224   */\n      tag_96\n      jump\t// in\n    tag_146:\n        /* \"#utility.yul\":2091:2230   */\n      swap3\n      swap2\n      pop\n      pop\n      jump\t// out\n        /* \"#utility.yul\":2236:2565   */\n    tag_28:\n        /* \"#utility.yul\":2295:2301   */\n      0x00\n        /* \"#utility.yul\":2344:2346   */\n      0x20\n        /* \"#utility.yul\":2332:2341   */\n      dup3\n        /* \"#utility.yul\":2323:2330   */\n      dup5\n        /* \"#utility.yul\":2319:2342   */\n      sub\n        /* \"#utility.yul\":2315:2347   */\n      slt\n        /* \"#utility.yul\":2312:2431   */\n      iszero\n      tag_148\n      jumpi\n        /* \"#utility.yul\":2350:2429   */\n      tag_149\n      tag_87\n      jump\t// in\n    tag_149:\n        /* \"#utility.yul\":2312:2431   */\n    tag_148:\n        /* \"#utility.yul\":2470:2471   */\n      0x00\n        /* \"#utility.yul\":2495:2548   */\n      tag_150\n        /* \"#utility.yul\":2540:2547   */\n      dup5\n        /* \"#utility.yul\":2531:2537   */\n      dup3\n        /* \"#utility.yul\":2520:2529   */\n      dup6\n        /* \"#utility.yul\":2516:2538   */\n      add\n        /* \"#utility.yul\":2495:2548   */\n      tag_97\n      jump\t// in\n    tag_150:\n        /* \"#utility.yul\":2485:2548   */\n      swap2\n      pop\n        /* \"#utility.yul\":2441:2558   */\n      pop\n        /* \"#utility.yul\":2236:2565   */\n      swap3\n      swap2\n      pop\n      pop\n      jump\t// out\n        /* \"#utility.yul\":2571:2740   */\n    tag_98:\n        /* \"#utility.yul\":2655:2666   */\n      0x00\n        /* \"#utility.yul\":2689:2695   */\n      dup3\n        /* \"#utility.yul\":2684:2687   */\n      dup3\n        /* \"#utility.yul\":2677:2696   */\n      mstore\n        /* \"#utility.yul\":2729:2733   */\n      0x20\n        /* \"#utility.yul\":2724:2727   */\n      dup3\n        /* \"#utility.yul\":2720:2734   */\n      add\n        /* \"#utility.yul\":2705:2734   */\n      swap1\n      pop\n        /* \"#utility.yul\":2571:2740   */\n      swap3\n      swap2\n      pop\n      pop\n      jump\t// out\n        /* \"#utility.yul\":2746:2918   */\n    tag_99:\n        /* \"#utility.yul\":2886:2910   */\n      0x53656e646572206973206e6f74206f776e657221212100000000000000000000\n        /* \"#utility.yul\":2882:2883   */\n      0x00\n        /* \"#utility.yul\":2874:2880   */\n      dup3\n        /* \"#utility.yul\":2870:2884   */\n      add\n        /* \"#utility.yul\":2863:2911   */\n      mstore\n        /* \"#utility.yul\":2746:2918   */\n      pop\n      jump\t// out\n        /* \"#utility.yul\":2924:3290   */\n    tag_100:\n        /* \"#utility.yul\":3066:3069   */\n      0x00\n        /* \"#utility.yul\":3087:3154   */\n      tag_154\n        /* \"#utility.yul\":3151:3153   */\n      0x16\n        /* \"#utility.yul\":3146:3149   */\n      dup4\n        /* \"#utility.yul\":3087:3154   */\n      tag_98\n      jump\t// in\n    tag_154:\n        /* \"#utility.yul\":3080:3154   */\n      swap2\n      pop\n        /* \"#utility.yul\":3163:3256   */\n      tag_155\n        /* \"#utility.yul\":3252:3255   */\n      dup3\n        /* \"#utility.yul\":3163:3256   */\n      tag_99\n      jump\t// in\n    tag_155:\n        /* \"#utility.yul\":3281:3283   */\n      0x20\n        /* \"#utility.yul\":3276:3279   */\n      dup3\n        /* \"#utility.yul\":3272:3284   */\n      add\n        /* \"#utility.yul\":3265:3284   */\n      swap1\n      pop\n        /* \"#utility.yul\":2924:3290   */\n      swap2\n      swap1\n      pop\n      jump\t// out\n        /* \"#utility.yul\":3296:3715   */\n    tag_38:\n        /* \"#utility.yul\":3462:3466   */\n      0x00\n        /* \"#utility.yul\":3500:3502   */\n      0x20\n        /* \"#utility.yul\":3489:3498   */\n      dup3\n        /* \"#utility.yul\":3485:3503   */\n      add\n        /* \"#utility.yul\":3477:3503   */\n      swap1\n      pop\n        /* \"#utility.yul\":3549:3558   */\n      dup2\n        /* \"#utility.yul\":3543:3547   */\n      dup2\n        /* \"#utility.yul\":3539:3559   */\n      sub\n        /* \"#utility.yul\":3535:3536   */\n      0x00\n        /* \"#utility.yul\":3524:3533   */\n      dup4\n        /* \"#utility.yul\":3520:3537   */\n      add\n        /* \"#utility.yul\":3513:3560   */\n      mstore\n        /* \"#utility.yul\":3577:3708   */\n      tag_157\n        /* \"#utility.yul\":3703:3707   */\n      dup2\n        /* \"#utility.yul\":3577:3708   */\n      tag_100\n      jump\t// in\n    tag_157:\n        /* \"#utility.yul\":3569:3708   */\n      swap1\n      pop\n        /* \"#utility.yul\":3296:3715   */\n      swap2\n      swap1\n      pop\n      jump\t// out\n        /* \"#utility.yul\":3721:3901   */\n    tag_42:\n        /* \"#utility.yul\":3769:3846   */\n      0x4e487b7100000000000000000000000000000000000000000000000000000000\n        /* \"#utility.yul\":3766:3767   */\n      0x00\n        /* \"#utility.yul\":3759:3847   */\n      mstore\n        /* \"#utility.yul\":3866:3870   */\n      0x41\n        /* \"#utility.yul\":3863:3864   */\n      0x04\n        /* \"#utility.yul\":3856:3871   */\n      mstore\n        /* \"#utility.yul\":3890:3894   */\n      0x24\n        /* \"#utility.yul\":3887:3888   */\n      0x00\n        /* \"#utility.yul\":3880:3895   */\n      revert\n        /* \"#utility.yul\":3907:4054   */\n    tag_101:\n        /* \"#utility.yul\":4008:4019   */\n      0x00\n        /* \"#utility.yul\":4045:4048   */\n      dup2\n        /* \"#utility.yul\":4030:4048   */\n      swap1\n      pop\n        /* \"#utility.yul\":3907:4054   */\n      swap3\n      swap2\n      pop\n      pop\n      jump\t// out\n        /* \"#utility.yul\":4060:4174   */\n    tag_102:\n      pop\n      jump\t// out\n        /* \"#utility.yul\":4180:4578   */\n    tag_103:\n        /* \"#utility.yul\":4339:4342   */\n      0x00\n        /* \"#utility.yul\":4360:4443   */\n      tag_162\n        /* \"#utility.yul\":4441:4442   */\n      0x00\n        /* \"#utility.yul\":4436:4439   */\n      dup4\n        /* \"#utility.yul\":4360:4443   */\n      tag_101\n      jump\t// in\n    tag_162:\n        /* \"#utility.yul\":4353:4443   */\n      swap2\n      pop\n        /* \"#utility.yul\":4452:4545   */\n      tag_163\n        /* \"#utility.yul\":4541:4544   */\n      dup3\n        /* \"#utility.yul\":4452:4545   */\n      tag_102\n      jump\t// in\n    tag_163:\n        /* \"#utility.yul\":4570:4571   */\n      0x00\n        /* \"#utility.yul\":4565:4568   */\n      dup3\n        /* \"#utility.yul\":4561:4572   */\n      add\n        /* \"#utility.yul\":4554:4572   */\n      swap1\n      pop\n        /* \"#utility.yul\":4180:4578   */\n      swap2\n      swap1\n      pop\n      jump\t// out\n        /* \"#utility.yul\":4584:4963   */\n    tag_47:\n        /* \"#utility.yul\":4768:4771   */\n      0x00\n        /* \"#utility.yul\":4790:4937   */\n      tag_165\n        /* \"#utility.yul\":4933:4936   */\n      dup3\n        /* \"#utility.yul\":4790:4937   */\n      tag_103\n      jump\t// in\n    tag_165:\n        /* \"#utility.yul\":4783:4937   */\n      swap2\n      pop\n        /* \"#utility.yul\":4954:4957   */\n      dup2\n        /* \"#utility.yul\":4947:4957   */\n      swap1\n      pop\n        /* \"#utility.yul\":4584:4963   */\n      swap2\n      swap1\n      pop\n      jump\t// out\n        /* \"#utility.yul\":4969:5130   */\n    tag_104:\n        /* \"#utility.yul\":5109:5122   */\n      0x43616c6c206661696c6564000000000000000000000000000000000000000000\n        /* \"#utility.yul\":5105:5106   */\n      0x00\n        /* \"#utility.yul\":5097:5103   */\n      dup3\n        /* \"#utility.yul\":5093:5107   */\n      add\n        /* \"#utility.yul\":5086:5123   */\n      mstore\n        /* \"#utility.yul\":4969:5130   */\n      pop\n      jump\t// out\n        /* \"#utility.yul\":5136:5502   */\n    tag_105:\n        /* \"#utility.yul\":5278:5281   */\n      0x00\n        /* \"#utility.yul\":5299:5366   */\n      tag_168\n        /* \"#utility.yul\":5363:5365   */\n      0x0b\n        /* \"#utility.yul\":5358:5361   */\n      dup4\n        /* \"#utility.yul\":5299:5366   */\n      tag_98\n      jump\t// in\n    tag_168:\n        /* \"#utility.yul\":5292:5366   */\n      swap2\n      pop\n        /* \"#utility.yul\":5375:5468   */\n      tag_169\n        /* \"#utility.yul\":5464:5467   */\n      dup3\n        /* \"#utility.yul\":5375:5468   */\n      tag_104\n      jump\t// in\n    tag_169:\n        /* \"#utility.yul\":5493:5495   */\n      0x20\n        /* \"#utility.yul\":5488:5491   */\n      dup3\n        /* \"#utility.yul\":5484:5496   */\n      add\n        /* \"#utility.yul\":5477:5496   */\n      swap1\n      pop\n        /* \"#utility.yul\":5136:5502   */\n      swap2\n      swap1\n      pop\n      jump\t// out\n        /* \"#utility.yul\":5508:5927   */\n    tag_53:\n        /* \"#utility.yul\":5674:5678   */\n      0x00\n        /* \"#utility.yul\":5712:5714   */\n      0x20\n        /* \"#utility.yul\":5701:5710   */\n      dup3\n        /* \"#utility.yul\":5697:5715   */\n      add\n        /* \"#utility.yul\":5689:5715   */\n      swap1\n      pop\n        /* \"#utility.yul\":5761:5770   */\n      dup2\n        /* \"#utility.yul\":5755:5759   */\n      dup2\n        /* \"#utility.yul\":5751:5771   */\n      sub\n        /* \"#utility.yul\":5747:5748   */\n      0x00\n        /* \"#utility.yul\":5736:5745   */\n      dup4\n        /* \"#utility.yul\":5732:5749   */\n      add\n        /* \"#utility.yul\":5725:5772   */\n      mstore\n        /* \"#utility.yul\":5789:5920   */\n      tag_171\n        /* \"#utility.yul\":5915:5919   */\n      dup2\n        /* \"#utility.yul\":5789:5920   */\n      tag_105\n      jump\t// in\n    tag_171:\n        /* \"#utility.yul\":5781:5920   */\n      swap1\n      pop\n        /* \"#utility.yul\":5508:5927   */\n      swap2\n      swap1\n      pop\n      jump\t// out\n        /* \"#utility.yul\":5933:6104   */\n    tag_106:\n        /* \"#utility.yul\":6073:6096   */\n      0x4469646e27742073656e6420656e6f7567682121210000000000000000000000\n        /* \"#utility.yul\":6069:6070   */\n      0x00\n        /* \"#utility.yul\":6061:6067   */\n      dup3\n        /* \"#utility.yul\":6057:6071   */\n      add\n        /* \"#utility.yul\":6050:6097   */\n      mstore\n        /* \"#utility.yul\":5933:6104   */\n      pop\n      jump\t// out\n        /* \"#utility.yul\":6110:6476   */\n    tag_107:\n        /* \"#utility.yul\":6252:6255   */\n      0x00\n        /* \"#utility.yul\":6273:6340   */\n      tag_174\n        /* \"#utility.yul\":6337:6339   */\n      0x15\n        /* \"#utility.yul\":6332:6335   */\n      dup4\n        /* \"#utility.yul\":6273:6340   */\n      tag_98\n      jump\t// in\n    tag_174:\n        /* \"#utility.yul\":6266:6340   */\n      swap2\n      pop\n        /* \"#utility.yul\":6349:6442   */\n      tag_175\n        /* \"#utility.yul\":6438:6441   */\n      dup3\n        /* \"#utility.yul\":6349:6442   */\n      tag_106\n      jump\t// in\n    tag_175:\n        /* \"#utility.yul\":6467:6469   */\n      0x20\n        /* \"#utility.yul\":6462:6465   */\n      dup3\n        /* \"#utility.yul\":6458:6470   */\n      add\n        /* \"#utility.yul\":6451:6470   */\n      swap1\n      pop\n        /* \"#utility.yul\":6110:6476   */\n      swap2\n      swap1\n      pop\n      jump\t// out\n        /* \"#utility.yul\":6482:6901   */\n    tag_60:\n        /* \"#utility.yul\":6648:6652   */\n      0x00\n        /* \"#utility.yul\":6686:6688   */\n      0x20\n        /* \"#utility.yul\":6675:6684   */\n      dup3\n        /* \"#utility.yul\":6671:6689   */\n      add\n        /* \"#utility.yul\":6663:6689   */\n      swap1\n      pop\n        /* \"#utility.yul\":6735:6744   */\n      dup2\n        /* \"#utility.yul\":6729:6733   */\n      dup2\n        /* \"#utility.yul\":6725:6745   */\n      sub\n        /* \"#utility.yul\":6721:6722   */\n      0x00\n        /* \"#utility.yul\":6710:6719   */\n      dup4\n        /* \"#utility.yul\":6706:6723   */\n      add\n        /* \"#utility.yul\":6699:6746   */\n      mstore\n        /* \"#utility.yul\":6763:6894   */\n      tag_177\n        /* \"#utility.yul\":6889:6893   */\n      dup2\n        /* \"#utility.yul\":6763:6894   */\n      tag_107\n      jump\t// in\n    tag_177:\n        /* \"#utility.yul\":6755:6894   */\n      swap1\n      pop\n        /* \"#utility.yul\":6482:6901   */\n      swap2\n      swap1\n      pop\n      jump\t// out\n        /* \"#utility.yul\":6907:7087   */\n    tag_108:\n        /* \"#utility.yul\":6955:7032   */\n      0x4e487b7100000000000000000000000000000000000000000000000000000000\n        /* \"#utility.yul\":6952:6953   */\n      0x00\n        /* \"#utility.yul\":6945:7033   */\n      mstore\n        /* \"#utility.yul\":7052:7056   */\n      0x11\n        /* \"#utility.yul\":7049:7050   */\n      0x04\n        /* \"#utility.yul\":7042:7057   */\n      mstore\n        /* \"#utility.yul\":7076:7080   */\n      0x24\n        /* \"#utility.yul\":7073:7074   */\n      0x00\n        /* \"#utility.yul\":7066:7081   */\n      revert\n        /* \"#utility.yul\":7093:7441   */\n    tag_68:\n        /* \"#utility.yul\":7133:7140   */\n      0x00\n        /* \"#utility.yul\":7156:7176   */\n      tag_180\n        /* \"#utility.yul\":7174:7175   */\n      dup3\n        /* \"#utility.yul\":7156:7176   */\n      tag_93\n      jump\t// in\n    tag_180:\n        /* \"#utility.yul\":7151:7176   */\n      swap2\n      pop\n        /* \"#utility.yul\":7190:7210   */\n      tag_181\n        /* \"#utility.yul\":7208:7209   */\n      dup4\n        /* \"#utility.yul\":7190:7210   */\n      tag_93\n      jump\t// in\n    tag_181:\n        /* \"#utility.yul\":7185:7210   */\n      swap3\n      pop\n        /* \"#utility.yul\":7378:7379   */\n      dup2\n        /* \"#utility.yul\":7310:7376   */\n      0xffffffffffffffffffffffffffffffffffffffffffffffffffffffffffffffff\n        /* \"#utility.yul\":7306:7380   */\n      div\n        /* \"#utility.yul\":7303:7304   */\n      dup4\n        /* \"#utility.yul\":7300:7381   */\n      gt\n        /* \"#utility.yul\":7295:7296   */\n      dup3\n        /* \"#utility.yul\":7288:7297   */\n      iszero\n        /* \"#utility.yul\":7281:7298   */\n      iszero\n        /* \"#utility.yul\":7277:7382   */\n      and\n        /* \"#utility.yul\":7274:7405   */\n      iszero\n      tag_182\n      jumpi\n        /* \"#utility.yul\":7385:7403   */\n      tag_183\n      tag_108\n      jump\t// in\n    tag_183:\n        /* \"#utility.yul\":7274:7405   */\n    tag_182:\n        /* \"#utility.yul\":7433:7434   */\n      dup3\n        /* \"#utility.yul\":7430:7431   */\n      dup3\n        /* \"#utility.yul\":7426:7435   */\n      mul\n        /* \"#utility.yul\":7415:7435   */\n      swap1\n      pop\n        /* \"#utility.yul\":7093:7441   */\n      swap3\n      swap2\n      pop\n      pop\n      jump\t// out\n        /* \"#utility.yul\":7447:7627   */\n    tag_109:\n        /* \"#utility.yul\":7495:7572   */\n      0x4e487b7100000000000000000000000000000000000000000000000000000000\n        /* \"#utility.yul\":7492:7493   */\n      0x00\n        /* \"#utility.yul\":7485:7573   */\n      mstore\n        /* \"#utility.yul\":7592:7596   */\n      0x12\n        /* \"#utility.yul\":7589:7590   */\n      0x04\n        /* \"#utility.yul\":7582:7597   */\n      mstore\n        /* \"#utility.yul\":7616:7620   */\n      0x24\n        /* \"#utility.yul\":7613:7614   */\n      0x00\n        /* \"#utility.yul\":7606:7621   */\n      revert\n        /* \"#utility.yul\":7633:7818   */\n    tag_70:\n        /* \"#utility.yul\":7673:7674   */\n      0x00\n        /* \"#utility.yul\":7690:7710   */\n      tag_186\n        /* \"#utility.yul\":7708:7709   */\n      dup3\n        /* \"#utility.yul\":7690:7710   */\n      tag_93\n      jump\t// in\n    tag_186:\n        /* \"#utility.yul\":7685:7710   */\n      swap2\n      pop\n        /* \"#utility.yul\":7724:7744   */\n      tag_187\n        /* \"#utility.yul\":7742:7743   */\n      dup4\n        /* \"#utility.yul\":7724:7744   */\n      tag_93\n      jump\t// in\n    tag_187:\n        /* \"#utility.yul\":7719:7744   */\n      swap3\n      pop\n        /* \"#utility.yul\":7763:7764   */\n      dup3\n        /* \"#utility.yul\":7753:7788   */\n      tag_188\n      jumpi\n        /* \"#utility.yul\":7768:7786   */\n      tag_189\n      tag_109\n      jump\t// in\n    tag_189:\n        /* \"#utility.yul\":7753:7788   */\n    tag_188:\n        /* \"#utility.yul\":7810:7811   */\n      dup3\n        /* \"#utility.yul\":7807:7808   */\n      dup3\n        /* \"#utility.yul\":7803:7812   */\n      div\n        /* \"#utility.yul\":7798:7812   */\n      swap1\n      pop\n        /* \"#utility.yul\":7633:7818   */\n      swap3\n      swap2\n      pop\n      pop\n      jump\t// out\n        /* \"#utility.yul\":7824:7929   */\n    tag_110:\n        /* \"#utility.yul\":7860:7867   */\n      0x00\n        /* \"#utility.yul\":7900:7922   */\n      0xffffffffffffffffffff\n        /* \"#utility.yul\":7893:7898   */\n      dup3\n        /* \"#utility.yul\":7889:7923   */\n      and\n        /* \"#utility.yul\":7878:7923   */\n      swap1\n      pop\n        /* \"#utility.yul\":7824:7929   */\n      swap2\n      swap1\n      pop\n      jump\t// out\n        /* \"#utility.yul\":7935:8055   */\n    tag_111:\n        /* \"#utility.yul\":8007:8030   */\n      tag_192\n        /* \"#utility.yul\":8024:8029   */\n      dup2\n        /* \"#utility.yul\":8007:8030   */\n      tag_110\n      jump\t// in\n    tag_192:\n        /* \"#utility.yul\":8000:8005   */\n      dup2\n        /* \"#utility.yul\":7997:8031   */\n      eq\n        /* \"#utility.yul\":7987:8049   */\n      tag_193\n      jumpi\n        /* \"#utility.yul\":8045:8046   */\n      0x00\n        /* \"#utility.yul\":8042:8043   */\n      dup1\n        /* \"#utility.yul\":8035:8047   */\n      revert\n        /* \"#utility.yul\":7987:8049   */\n    tag_193:\n        /* \"#utility.yul\":7935:8055   */\n      pop\n      jump\t// out\n        /* \"#utility.yul\":8061:8202   */\n    tag_112:\n        /* \"#utility.yul\":8117:8122   */\n      0x00\n        /* \"#utility.yul\":8148:8154   */\n      dup2\n        /* \"#utility.yul\":8142:8155   */\n      mload\n        /* \"#utility.yul\":8133:8155   */\n      swap1\n      pop\n        /* \"#utility.yul\":8164:8196   */\n      tag_195\n        /* \"#utility.yul\":8190:8195   */\n      dup2\n        /* \"#utility.yul\":8164:8196   */\n      tag_111\n      jump\t// in\n    tag_195:\n        /* \"#utility.yul\":8061:8202   */\n      swap3\n      swap2\n      pop\n      pop\n      jump\t// out\n        /* \"#utility.yul\":8208:8284   */\n    tag_113:\n        /* \"#utility.yul\":8244:8251   */\n      0x00\n        /* \"#utility.yul\":8273:8278   */\n      dup2\n        /* \"#utility.yul\":8262:8278   */\n      swap1\n      pop\n        /* \"#utility.yul\":8208:8284   */\n      swap2\n      swap1\n      pop\n      jump\t// out\n        /* \"#utility.yul\":8290:8410   */\n    tag_114:\n        /* \"#utility.yul\":8362:8385   */\n      tag_198\n        /* \"#utility.yul\":8379:8384   */\n      dup2\n        /* \"#utility.yul\":8362:8385   */\n      tag_113\n      jump\t// in\n    tag_198:\n        /* \"#utility.yul\":8355:8360   */\n      dup2\n        /* \"#utility.yul\":8352:8386   */\n      eq\n        /* \"#utility.yul\":8342:8404   */\n      tag_199\n      jumpi\n        /* \"#utility.yul\":8400:8401   */\n      0x00\n        /* \"#utility.yul\":8397:8398   */\n      dup1\n        /* \"#utility.yul\":8390:8402   */\n      revert\n        /* \"#utility.yul\":8342:8404   */\n    tag_199:\n        /* \"#utility.yul\":8290:8410   */\n      pop\n      jump\t// out\n        /* \"#utility.yul\":8416:8557   */\n    tag_115:\n        /* \"#utility.yul\":8472:8477   */\n      0x00\n        /* \"#utility.yul\":8503:8509   */\n      dup2\n        /* \"#utility.yul\":8497:8510   */\n      mload\n        /* \"#utility.yul\":8488:8510   */\n      swap1\n      pop\n        /* \"#utility.yul\":8519:8551   */\n      tag_201\n        /* \"#utility.yul\":8545:8550   */\n      dup2\n        /* \"#utility.yul\":8519:8551   */\n      tag_114\n      jump\t// in\n    tag_201:\n        /* \"#utility.yul\":8416:8557   */\n      swap3\n      swap2\n      pop\n      pop\n      jump\t// out\n        /* \"#utility.yul\":8563:8706   */\n    tag_116:\n        /* \"#utility.yul\":8620:8625   */\n      0x00\n        /* \"#utility.yul\":8651:8657   */\n      dup2\n        /* \"#utility.yul\":8645:8658   */\n      mload\n        /* \"#utility.yul\":8636:8658   */\n      swap1\n      pop\n        /* \"#utility.yul\":8667:8700   */\n      tag_203\n        /* \"#utility.yul\":8694:8699   */\n      dup2\n        /* \"#utility.yul\":8667:8700   */\n      tag_96\n      jump\t// in\n    tag_203:\n        /* \"#utility.yul\":8563:8706   */\n      swap3\n      swap2\n      pop\n      pop\n      jump\t// out\n        /* \"#utility.yul\":8712:9683   */\n    tag_76:\n        /* \"#utility.yul\":8815:8821   */\n      0x00\n        /* \"#utility.yul\":8823:8829   */\n      dup1\n        /* \"#utility.yul\":8831:8837   */\n      0x00\n        /* \"#utility.yul\":8839:8845   */\n      dup1\n        /* \"#utility.yul\":8847:8853   */\n      0x00\n        /* \"#utility.yul\":8896:8899   */\n      0xa0\n        /* \"#utility.yul\":8884:8893   */\n      dup7\n        /* \"#utility.yul\":8875:8882   */\n      dup9\n        /* \"#utility.yul\":8871:8894   */\n      sub\n        /* \"#utility.yul\":8867:8900   */\n      slt\n        /* \"#utility.yul\":8864:8984   */\n      iszero\n      tag_205\n      jumpi\n        /* \"#utility.yul\":8903:8982   */\n      tag_206\n      tag_87\n      jump\t// in\n    tag_206:\n        /* \"#utility.yul\":8864:8984   */\n    tag_205:\n        /* \"#utility.yul\":9023:9024   */\n      0x00\n        /* \"#utility.yul\":9048:9111   */\n      tag_207\n        /* \"#utility.yul\":9103:9110   */\n      dup9\n        /* \"#utility.yul\":9094:9100   */\n      dup3\n        /* \"#utility.yul\":9083:9092   */\n      dup10\n        /* \"#utility.yul\":9079:9101   */\n      add\n        /* \"#utility.yul\":9048:9111   */\n      tag_112\n      jump\t// in\n    tag_207:\n        /* \"#utility.yul\":9038:9111   */\n      swap6\n      pop\n        /* \"#utility.yul\":8994:9121   */\n      pop\n        /* \"#utility.yul\":9160:9162   */\n      0x20\n        /* \"#utility.yul\":9186:9249   */\n      tag_208\n        /* \"#utility.yul\":9241:9248   */\n      dup9\n        /* \"#utility.yul\":9232:9238   */\n      dup3\n        /* \"#utility.yul\":9221:9230   */\n      dup10\n        /* \"#utility.yul\":9217:9239   */\n      add\n        /* \"#utility.yul\":9186:9249   */\n      tag_115\n      jump\t// in\n    tag_208:\n        /* \"#utility.yul\":9176:9249   */\n      swap5\n      pop\n        /* \"#utility.yul\":9131:9259   */\n      pop\n        /* \"#utility.yul\":9298:9300   */\n      0x40\n        /* \"#utility.yul\":9324:9388   */\n      tag_209\n        /* \"#utility.yul\":9380:9387   */\n      dup9\n        /* \"#utility.yul\":9371:9377   */\n      dup3\n        /* \"#utility.yul\":9360:9369   */\n      dup10\n        /* \"#utility.yul\":9356:9378   */\n      add\n        /* \"#utility.yul\":9324:9388   */\n      tag_116\n      jump\t// in\n    tag_209:\n        /* \"#utility.yul\":9314:9388   */\n      swap4\n      pop\n        /* \"#utility.yul\":9269:9398   */\n      pop\n        /* \"#utility.yul\":9437:9439   */\n      0x60\n        /* \"#utility.yul\":9463:9527   */\n      tag_210\n        /* \"#utility.yul\":9519:9526   */\n      dup9\n        /* \"#utility.yul\":9510:9516   */\n      dup3\n        /* \"#utility.yul\":9499:9508   */\n      dup10\n        /* \"#utility.yul\":9495:9517   */\n      add\n        /* \"#utility.yul\":9463:9527   */\n      tag_116\n      jump\t// in\n    tag_210:\n        /* \"#utility.yul\":9453:9527   */\n      swap3\n      pop\n        /* \"#utility.yul\":9408:9537   */\n      pop\n        /* \"#utility.yul\":9576:9579   */\n      0x80\n        /* \"#utility.yul\":9603:9666   */\n      tag_211\n        /* \"#utility.yul\":9658:9665   */\n      dup9\n        /* \"#utility.yul\":9649:9655   */\n      dup3\n        /* \"#utility.yul\":9638:9647   */\n      dup10\n        /* \"#utility.yul\":9634:9656   */\n      add\n        /* \"#utility.yul\":9603:9666   */\n      tag_112\n      jump\t// in\n    tag_211:\n        /* \"#utility.yul\":9593:9666   */\n      swap2\n      pop\n        /* \"#utility.yul\":9547:9676   */\n      pop\n        /* \"#utility.yul\":8712:9683   */\n      swap3\n      swap6\n      pop\n      swap3\n      swap6\n      swap1\n      swap4\n      pop\n      jump\t// out\n        /* \"#utility.yul\":9689:10680   */\n    tag_78:\n        /* \"#utility.yul\":9728:9735   */\n      0x00\n        /* \"#utility.yul\":9751:9770   */\n      tag_213\n        /* \"#utility.yul\":9768:9769   */\n      dup3\n        /* \"#utility.yul\":9751:9770   */\n      tag_113\n      jump\t// in\n    tag_213:\n        /* \"#utility.yul\":9746:9770   */\n      swap2\n      pop\n        /* \"#utility.yul\":9784:9803   */\n      tag_214\n        /* \"#utility.yul\":9801:9802   */\n      dup4\n        /* \"#utility.yul\":9784:9803   */\n      tag_113\n      jump\t// in\n    tag_214:\n        /* \"#utility.yul\":9779:9803   */\n      swap3\n      pop\n        /* \"#utility.yul\":9985:9986   */\n      dup3\n        /* \"#utility.yul\":9917:9983   */\n      0x7fffffffffffffffffffffffffffffffffffffffffffffffffffffffffffffff\n        /* \"#utility.yul\":9913:9987   */\n      div\n        /* \"#utility.yul\":9910:9911   */\n      dup3\n        /* \"#utility.yul\":9907:9988   */\n      gt\n        /* \"#utility.yul\":9902:9903   */\n      0x00\n        /* \"#utility.yul\":9899:9900   */\n      dup5\n        /* \"#utility.yul\":9895:9904   */\n      sgt\n        /* \"#utility.yul\":9891:9892   */\n      0x00\n        /* \"#utility.yul\":9888:9889   */\n      dup5\n        /* \"#utility.yul\":9884:9893   */\n      sgt\n        /* \"#utility.yul\":9880:9905   */\n      and\n        /* \"#utility.yul\":9876:9989   */\n      and\n        /* \"#utility.yul\":9873:10012   */\n      iszero\n      tag_215\n      jumpi\n        /* \"#utility.yul\":9992:10010   */\n      tag_216\n      tag_108\n      jump\t// in\n    tag_216:\n        /* \"#utility.yul\":9873:10012   */\n    tag_215:\n        /* \"#utility.yul\":10196:10197   */\n      dup2\n        /* \"#utility.yul\":10128:10194   */\n      0x8000000000000000000000000000000000000000000000000000000000000000\n        /* \"#utility.yul\":10123:10198   */\n      sdiv\n        /* \"#utility.yul\":10120:10121   */\n      dup4\n        /* \"#utility.yul\":10116:10199   */\n      slt\n        /* \"#utility.yul\":10111:10112   */\n      0x00\n        /* \"#utility.yul\":10108:10109   */\n      dup5\n        /* \"#utility.yul\":10104:10113   */\n      slt\n        /* \"#utility.yul\":10100:10101   */\n      0x00\n        /* \"#utility.yul\":10097:10098   */\n      dup5\n        /* \"#utility.yul\":10093:10102   */\n      sgt\n        /* \"#utility.yul\":10089:10114   */\n      and\n        /* \"#utility.yul\":10085:10200   */\n      and\n        /* \"#utility.yul\":10082:10223   */\n      iszero\n      tag_217\n      jumpi\n        /* \"#utility.yul\":10203:10221   */\n      tag_218\n      tag_108\n      jump\t// in\n    tag_218:\n        /* \"#utility.yul\":10082:10223   */\n    tag_217:\n        /* \"#utility.yul\":10407:10408   */\n      dup3\n        /* \"#utility.yul\":10339:10405   */\n      0x8000000000000000000000000000000000000000000000000000000000000000\n        /* \"#utility.yul\":10334:10409   */\n      sdiv\n        /* \"#utility.yul\":10331:10332   */\n      dup3\n        /* \"#utility.yul\":10327:10410   */\n      slt\n        /* \"#utility.yul\":10322:10323   */\n      0x00\n        /* \"#utility.yul\":10319:10320   */\n      dup5\n        /* \"#utility.yul\":10315:10324   */\n      sgt\n        /* \"#utility.yul\":10311:10312   */\n      0x00\n        /* \"#utility.yul\":10308:10309   */\n      dup5\n        /* \"#utility.yul\":10304:10313   */\n      slt\n        /* \"#utility.yul\":10300:10325   */\n      and\n        /* \"#utility.yul\":10296:10411   */\n      and\n        /* \"#utility.yul\":10293:10434   */\n      iszero\n      tag_219\n      jumpi\n        /* \"#utility.yul\":10414:10432   */\n      tag_220\n      tag_108\n      jump\t// in\n    tag_220:\n        /* \"#utility.yul\":10293:10434   */\n    tag_219:\n        /* \"#utility.yul\":10617:10618   */\n      dup3\n        /* \"#utility.yul\":10549:10615   */\n      0x7fffffffffffffffffffffffffffffffffffffffffffffffffffffffffffffff\n        /* \"#utility.yul\":10544:10619   */\n      sdiv\n        /* \"#utility.yul\":10541:10542   */\n      dup3\n        /* \"#utility.yul\":10537:10620   */\n      slt\n        /* \"#utility.yul\":10532:10533   */\n      0x00\n        /* \"#utility.yul\":10529:10530   */\n      dup5\n        /* \"#utility.yul\":10525:10534   */\n      slt\n        /* \"#utility.yul\":10521:10522   */\n      0x00\n        /* \"#utility.yul\":10518:10519   */\n      dup5\n        /* \"#utility.yul\":10514:10523   */\n      slt\n        /* \"#utility.yul\":10510:10535   */\n      and\n        /* \"#utility.yul\":10506:10621   */\n      and\n        /* \"#utility.yul\":10503:10644   */\n      iszero\n      tag_221\n      jumpi\n        /* \"#utility.yul\":10624:10642   */\n      tag_222\n      tag_108\n      jump\t// in\n    tag_222:\n        /* \"#utility.yul\":10503:10644   */\n    tag_221:\n        /* \"#utility.yul\":10672:10673   */\n      dup3\n        /* \"#utility.yul\":10669:10670   */\n      dup3\n        /* \"#utility.yul\":10665:10674   */\n      mul\n        /* \"#utility.yul\":10654:10674   */\n      swap1\n      pop\n        /* \"#utility.yul\":9689:10680   */\n      swap3\n      swap2\n      pop\n      pop\n      jump\t// out\n\n    auxdata: 0xa264697066735822122057abcf0e3d030fc307e99931189bf344fbb5e4dd461276f1687153df70dd1f2064736f6c63430008080033\n}\n",
				"bytecode": {
					"linkReferences": {},
					"object": "60a060405234801561001057600080fd5b503373ffffffffffffffffffffffffffffffffffffffff1660808173ffffffffffffffffffffffffffffffffffffffff1660601b8152505060805160601c610c5f61006d6000396000818161014d01526104090152610c5f6000f3fe6080604052600436106100555760003560e01c80633ccfd60b1461005a5780633e47d6f314610071578063b60d4288146100ae578063dba6335f146100b8578063dc0d3dff146100e3578063f1b7c0ef14610120575b600080fd5b34801561006657600080fd5b5061006f61014b565b005b34801561007d57600080fd5b5061009860048036038101906100939190610673565b6102e8565b6040516100a591906106b9565b60405180910390f35b6100b6610300565b005b3480156100c457600080fd5b506100cd610407565b6040516100da91906106e3565b60405180910390f35b3480156100ef57600080fd5b5061010a6004803603810190610105919061072a565b61042b565b60405161011791906106e3565b60405180910390f35b34801561012c57600080fd5b5061013561046a565b60405161014291906106b9565b60405180910390f35b7f000000000000000000000000000000000000000000000000000000000000000073ffffffffffffffffffffffffffffffffffffffff163373ffffffffffffffffffffffffffffffffffffffff16146101d9576040517f08c379a00000000000000000000000000000000000000000000000000000000081526004016101d0906107b4565b60405180910390fd5b600067ffffffffffffffff8111156101f4576101f36107d4565b5b6040519080825280602002602001820160405280156102225781602001602082028036833780820191505090505b5060009080519060200190610238929190610569565b5060003373ffffffffffffffffffffffffffffffffffffffff164760405161025f90610834565b60006040518083038185875af1925050503d806000811461029c576040519150601f19603f3d011682016040523d82523d6000602084013e6102a1565b606091505b50509050806102e5576040517f08c379a00000000000000000000000000000000000000000000000000000000081526004016102dc90610895565b60405180910390fd5b50565b60016020528060005260406000206000915090505481565b61030934610477565b506802b5e3af16b188000061031d34610477565b101561035e576040517f08c379a000000000000000000000000000000000000000000000000000000000815260040161035590610901565b60405180910390fd5b6000339080600181540180825580915050600190039060005260206000200160009091909190916101000a81548173ffffffffffffffffffffffffffffffffffffffff021916908373ffffffffffffffffffffffffffffffffffffffff16021790555034600160003373ffffffffffffffffffffffffffffffffffffffff1673ffffffffffffffffffffffffffffffffffffffff16815260200190815260200160002081905550565b7f000000000000000000000000000000000000000000000000000000000000000081565b6000818154811061043b57600080fd5b906000526020600020016000915054906101000a900473ffffffffffffffffffffffffffffffffffffffff1681565b6802b5e3af16b188000081565b6000806104826104b1565b90506000670de0b6b3a7640000848361049b9190610950565b6104a591906109d9565b90508092505050919050565b600080738a753747a1fa494ec906ce90e9f37563a8af630e905060008173ffffffffffffffffffffffffffffffffffffffff1663feaf968c6040518163ffffffff1660e01b815260040160a06040518083038186803b15801561051357600080fd5b505afa158015610527573d6000803e3d6000fd5b505050506040513d601f19601f8201168201806040525081019061054b9190610a97565b5050509150506402540be400816105629190610b12565b9250505090565b8280548282559060005260206000209081019282156105e2579160200282015b828111156105e15782518260006101000a81548173ffffffffffffffffffffffffffffffffffffffff021916908373ffffffffffffffffffffffffffffffffffffffff16021790555091602001919060010190610589565b5b5090506105ef91906105f3565b5090565b5b8082111561060c5760008160009055506001016105f4565b5090565b600080fd5b600073ffffffffffffffffffffffffffffffffffffffff82169050919050565b600061064082610615565b9050919050565b61065081610635565b811461065b57600080fd5b50565b60008135905061066d81610647565b92915050565b60006020828403121561068957610688610610565b5b60006106978482850161065e565b91505092915050565b6000819050919050565b6106b3816106a0565b82525050565b60006020820190506106ce60008301846106aa565b92915050565b6106dd81610635565b82525050565b60006020820190506106f860008301846106d4565b92915050565b610707816106a0565b811461071257600080fd5b50565b600081359050610724816106fe565b92915050565b6000602082840312156107405761073f610610565b5b600061074e84828501610715565b91505092915050565b600082825260208201905092915050565b7f53656e646572206973206e6f74206f776e657221212100000000000000000000600082015250565b600061079e601683610757565b91506107a982610768565b602082019050919050565b600060208201905081810360008301526107cd81610791565b9050919050565b7f4e487b7100000000000000000000000000000000000000000000000000000000600052604160045260246000fd5b600081905092915050565b50565b600061081e600083610803565b91506108298261080e565b600082019050919050565b600061083f82610811565b9150819050919050565b7f43616c6c206661696c6564000000000000000000000000000000000000000000600082015250565b600061087f600b83610757565b915061088a82610849565b602082019050919050565b600060208201905081810360008301526108ae81610872565b9050919050565b7f4469646e27742073656e6420656e6f7567682121210000000000000000000000600082015250565b60006108eb601583610757565b91506108f6826108b5565b602082019050919050565b6000602082019050818103600083015261091a816108de565b9050919050565b7f4e487b7100000000000000000000000000000000000000000000000000000000600052601160045260246000fd5b600061095b826106a0565b9150610966836106a0565b9250817fffffffffffffffffffffffffffffffffffffffffffffffffffffffffffffffff048311821515161561099f5761099e610921565b5b828202905092915050565b7f4e487b7100000000000000000000000000000000000000000000000000000000600052601260045260246000fd5b60006109e4826106a0565b91506109ef836106a0565b9250826109ff576109fe6109aa565b5b828204905092915050565b600069ffffffffffffffffffff82169050919050565b610a2981610a0a565b8114610a3457600080fd5b50565b600081519050610a4681610a20565b92915050565b6000819050919050565b610a5f81610a4c565b8114610a6a57600080fd5b50565b600081519050610a7c81610a56565b92915050565b600081519050610a91816106fe565b92915050565b600080600080600060a08688031215610ab357610ab2610610565b5b6000610ac188828901610a37565b9550506020610ad288828901610a6d565b9450506040610ae388828901610a82565b9350506060610af488828901610a82565b9250506080610b0588828901610a37565b9150509295509295909350565b6000610b1d82610a4c565b9150610b2883610a4c565b9250827f7fffffffffffffffffffffffffffffffffffffffffffffffffffffffffffffff0482116000841360008413161615610b6757610b66610921565b5b817f80000000000000000000000000000000000000000000000000000000000000000583126000841260008413161615610ba457610ba3610921565b5b827f80000000000000000000000000000000000000000000000000000000000000000582126000841360008412161615610be157610be0610921565b5b827f7fffffffffffffffffffffffffffffffffffffffffffffffffffffffffffffff0582126000841260008412161615610c1e57610c1d610921565b5b82820290509291505056fea264697066735822122057abcf0e3d030fc307e99931189bf344fbb5e4dd461276f1687153df70dd1f2064736f6c63430008080033",
					"opcodes": "PUSH1 0xA0 PUSH1 0x40 MSTORE CALLVALUE DUP1 ISZERO PUSH2 0x10 JUMPI PUSH1 0x0 DUP1 REVERT JUMPDEST POP CALLER PUSH20 0xFFFFFFFFFFFFFFFFFFFFFFFFFFFFFFFFFFFFFFFF AND PUSH1 0x80 DUP2 PUSH20 0xFFFFFFFFFFFFFFFFFFFFFFFFFFFFFFFFFFFFFFFF AND PUSH1 0x60 SHL DUP2 MSTORE POP POP PUSH1 0x80 MLOAD PUSH1 0x60 SHR PUSH2 0xC5F PUSH2 0x6D PUSH1 0x0 CODECOPY PUSH1 0x0 DUP2 DUP2 PUSH2 0x14D ADD MSTORE PUSH2 0x409 ADD MSTORE PUSH2 0xC5F PUSH1 0x0 RETURN INVALID PUSH1 0x80 PUSH1 0x40 MSTORE PUSH1 0x4 CALLDATASIZE LT PUSH2 0x55 JUMPI PUSH1 0x0 CALLDATALOAD PUSH1 0xE0 SHR DUP1 PUSH4 0x3CCFD60B EQ PUSH2 0x5A JUMPI DUP1 PUSH4 0x3E47D6F3 EQ PUSH2 0x71 JUMPI DUP1 PUSH4 0xB60D4288 EQ PUSH2 0xAE JUMPI DUP1 PUSH4 0xDBA6335F EQ PUSH2 0xB8 JUMPI DUP1 PUSH4 0xDC0D3DFF EQ PUSH2 0xE3 JUMPI DUP1 PUSH4 0xF1B7C0EF EQ PUSH2 0x120 JUMPI JUMPDEST PUSH1 0x0 DUP1 REVERT JUMPDEST CALLVALUE DUP1 ISZERO PUSH2 0x66 JUMPI PUSH1 0x0 DUP1 REVERT JUMPDEST POP PUSH2 0x6F PUSH2 0x14B JUMP JUMPDEST STOP JUMPDEST CALLVALUE DUP1 ISZERO PUSH2 0x7D JUMPI PUSH1 0x0 DUP1 REVERT JUMPDEST POP PUSH2 0x98 PUSH1 0x4 DUP1 CALLDATASIZE SUB DUP2 ADD SWAP1 PUSH2 0x93 SWAP2 SWAP1 PUSH2 0x673 JUMP JUMPDEST PUSH2 0x2E8 JUMP JUMPDEST PUSH1 0x40 MLOAD PUSH2 0xA5 SWAP2 SWAP1 PUSH2 0x6B9 JUMP JUMPDEST PUSH1 0x40 MLOAD DUP1 SWAP2 SUB SWAP1 RETURN JUMPDEST PUSH2 0xB6 PUSH2 0x300 JUMP JUMPDEST STOP JUMPDEST CALLVALUE DUP1 ISZERO PUSH2 0xC4 JUMPI PUSH1 0x0 DUP1 REVERT JUMPDEST POP PUSH2 0xCD PUSH2 0x407 JUMP JUMPDEST PUSH1 0x40 MLOAD PUSH2 0xDA SWAP2 SWAP1 PUSH2 0x6E3 JUMP JUMPDEST PUSH1 0x40 MLOAD DUP1 SWAP2 SUB SWAP1 RETURN JUMPDEST CALLVALUE DUP1 ISZERO PUSH2 0xEF JUMPI PUSH1 0x0 DUP1 REVERT JUMPDEST POP PUSH2 0x10A PUSH1 0x4 DUP1 CALLDATASIZE SUB DUP2 ADD SWAP1 PUSH2 0x105 SWAP2 SWAP1 PUSH2 0x72A JUMP JUMPDEST PUSH2 0x42B JUMP JUMPDEST PUSH1 0x40 MLOAD PUSH2 0x117 SWAP2 SWAP1 PUSH2 0x6E3 JUMP JUMPDEST PUSH1 0x40 MLOAD DUP1 SWAP2 SUB SWAP1 RETURN JUMPDEST CALLVALUE DUP1 ISZERO PUSH2 0x12C JUMPI PUSH1 0x0 DUP1 REVERT JUMPDEST POP PUSH2 0x135 PUSH2 0x46A JUMP JUMPDEST PUSH1 0x40 MLOAD PUSH2 0x142 SWAP2 SWAP1 PUSH2 0x6B9 JUMP JUMPDEST PUSH1 0x40 MLOAD DUP1 SWAP2 SUB SWAP1 RETURN JUMPDEST PUSH32 0x0 PUSH20 0xFFFFFFFFFFFFFFFFFFFFFFFFFFFFFFFFFFFFFFFF AND CALLER PUSH20 0xFFFFFFFFFFFFFFFFFFFFFFFFFFFFFFFFFFFFFFFF AND EQ PUSH2 0x1D9 JUMPI PUSH1 0x40 MLOAD PUSH32 0x8C379A000000000000000000000000000000000000000000000000000000000 DUP2 MSTORE PUSH1 0x4 ADD PUSH2 0x1D0 SWAP1 PUSH2 0x7B4 JUMP JUMPDEST PUSH1 0x40 MLOAD DUP1 SWAP2 SUB SWAP1 REVERT JUMPDEST PUSH1 0x0 PUSH8 0xFFFFFFFFFFFFFFFF DUP2 GT ISZERO PUSH2 0x1F4 JUMPI PUSH2 0x1F3 PUSH2 0x7D4 JUMP JUMPDEST JUMPDEST PUSH1 0x40 MLOAD SWAP1 DUP1 DUP3 MSTORE DUP1 PUSH1 0x20 MUL PUSH1 0x20 ADD DUP3 ADD PUSH1 0x40 MSTORE DUP1 ISZERO PUSH2 0x222 JUMPI DUP2 PUSH1 0x20 ADD PUSH1 0x20 DUP3 MUL DUP1 CALLDATASIZE DUP4 CALLDATACOPY DUP1 DUP3 ADD SWAP2 POP POP SWAP1 POP JUMPDEST POP PUSH1 0x0 SWAP1 DUP1 MLOAD SWAP1 PUSH1 0x20 ADD SWAP1 PUSH2 0x238 SWAP3 SWAP2 SWAP1 PUSH2 0x569 JUMP JUMPDEST POP PUSH1 0x0 CALLER PUSH20 0xFFFFFFFFFFFFFFFFFFFFFFFFFFFFFFFFFFFFFFFF AND SELFBALANCE PUSH1 0x40 MLOAD PUSH2 0x25F SWAP1 PUSH2 0x834 JUMP JUMPDEST PUSH1 0x0 PUSH1 0x40 MLOAD DUP1 DUP4 SUB DUP2 DUP6 DUP8 GAS CALL SWAP3 POP POP POP RETURNDATASIZE DUP1 PUSH1 0x0 DUP2 EQ PUSH2 0x29C JUMPI PUSH1 0x40 MLOAD SWAP2 POP PUSH1 0x1F NOT PUSH1 0x3F RETURNDATASIZE ADD AND DUP3 ADD PUSH1 0x40 MSTORE RETURNDATASIZE DUP3 MSTORE RETURNDATASIZE PUSH1 0x0 PUSH1 0x20 DUP5 ADD RETURNDATACOPY PUSH2 0x2A1 JUMP JUMPDEST PUSH1 0x60 SWAP2 POP JUMPDEST POP POP SWAP1 POP DUP1 PUSH2 0x2E5 JUMPI PUSH1 0x40 MLOAD PUSH32 0x8C379A000000000000000000000000000000000000000000000000000000000 DUP2 MSTORE PUSH1 0x4 ADD PUSH2 0x2DC SWAP1 PUSH2 0x895 JUMP JUMPDEST PUSH1 0x40 MLOAD DUP1 SWAP2 SUB SWAP1 REVERT JUMPDEST POP JUMP JUMPDEST PUSH1 0x1 PUSH1 0x20 MSTORE DUP1 PUSH1 0x0 MSTORE PUSH1 0x40 PUSH1 0x0 KECCAK256 PUSH1 0x0 SWAP2 POP SWAP1 POP SLOAD DUP2 JUMP JUMPDEST PUSH2 0x309 CALLVALUE PUSH2 0x477 JUMP JUMPDEST POP PUSH9 0x2B5E3AF16B1880000 PUSH2 0x31D CALLVALUE PUSH2 0x477 JUMP JUMPDEST LT ISZERO PUSH2 0x35E JUMPI PUSH1 0x40 MLOAD PUSH32 0x8C379A000000000000000000000000000000000000000000000000000000000 DUP2 MSTORE PUSH1 0x4 ADD PUSH2 0x355 SWAP1 PUSH2 0x901 JUMP JUMPDEST PUSH1 0x40 MLOAD DUP1 SWAP2 SUB SWAP1 REVERT JUMPDEST PUSH1 0x0 CALLER SWAP1 DUP1 PUSH1 0x1 DUP2 SLOAD ADD DUP1 DUP3 SSTORE DUP1 SWAP2 POP POP PUSH1 0x1 SWAP1 SUB SWAP1 PUSH1 0x0 MSTORE PUSH1 0x20 PUSH1 0x0 KECCAK256 ADD PUSH1 0x0 SWAP1 SWAP2 SWAP1 SWAP2 SWAP1 SWAP2 PUSH2 0x100 EXP DUP2 SLOAD DUP2 PUSH20 0xFFFFFFFFFFFFFFFFFFFFFFFFFFFFFFFFFFFFFFFF MUL NOT AND SWAP1 DUP4 PUSH20 0xFFFFFFFFFFFFFFFFFFFFFFFFFFFFFFFFFFFFFFFF AND MUL OR SWAP1 SSTORE POP CALLVALUE PUSH1 0x1 PUSH1 0x0 CALLER PUSH20 0xFFFFFFFFFFFFFFFFFFFFFFFFFFFFFFFFFFFFFFFF AND PUSH20 0xFFFFFFFFFFFFFFFFFFFFFFFFFFFFFFFFFFFFFFFF AND DUP2 MSTORE PUSH1 0x20 ADD SWAP1 DUP2 MSTORE PUSH1 0x20 ADD PUSH1 0x0 KECCAK256 DUP2 SWAP1 SSTORE POP JUMP JUMPDEST PUSH32 0x0 DUP2 JUMP JUMPDEST PUSH1 0x0 DUP2 DUP2 SLOAD DUP2 LT PUSH2 0x43B JUMPI PUSH1 0x0 DUP1 REVERT JUMPDEST SWAP1 PUSH1 0x0 MSTORE PUSH1 0x20 PUSH1 0x0 KECCAK256 ADD PUSH1 0x0 SWAP2 POP SLOAD SWAP1 PUSH2 0x100 EXP SWAP1 DIV PUSH20 0xFFFFFFFFFFFFFFFFFFFFFFFFFFFFFFFFFFFFFFFF AND DUP2 JUMP JUMPDEST PUSH9 0x2B5E3AF16B1880000 DUP2 JUMP JUMPDEST PUSH1 0x0 DUP1 PUSH2 0x482 PUSH2 0x4B1 JUMP JUMPDEST SWAP1 POP PUSH1 0x0 PUSH8 0xDE0B6B3A7640000 DUP5 DUP4 PUSH2 0x49B SWAP2 SWAP1 PUSH2 0x950 JUMP JUMPDEST PUSH2 0x4A5 SWAP2 SWAP1 PUSH2 0x9D9 JUMP JUMPDEST SWAP1 POP DUP1 SWAP3 POP POP POP SWAP2 SWAP1 POP JUMP JUMPDEST PUSH1 0x0 DUP1 PUSH20 0x8A753747A1FA494EC906CE90E9F37563A8AF630E SWAP1 POP PUSH1 0x0 DUP2 PUSH20 0xFFFFFFFFFFFFFFFFFFFFFFFFFFFFFFFFFFFFFFFF AND PUSH4 0xFEAF968C PUSH1 0x40 MLOAD DUP2 PUSH4 0xFFFFFFFF AND PUSH1 0xE0 SHL DUP2 MSTORE PUSH1 0x4 ADD PUSH1 0xA0 PUSH1 0x40 MLOAD DUP1 DUP4 SUB DUP2 DUP7 DUP1 EXTCODESIZE ISZERO DUP1 ISZERO PUSH2 0x513 JUMPI PUSH1 0x0 DUP1 REVERT JUMPDEST POP GAS STATICCALL ISZERO DUP1 ISZERO PUSH2 0x527 JUMPI RETURNDATASIZE PUSH1 0x0 DUP1 RETURNDATACOPY RETURNDATASIZE PUSH1 0x0 REVERT JUMPDEST POP POP POP POP PUSH1 0x40 MLOAD RETURNDATASIZE PUSH1 0x1F NOT PUSH1 0x1F DUP3 ADD AND DUP3 ADD DUP1 PUSH1 0x40 MSTORE POP DUP2 ADD SWAP1 PUSH2 0x54B SWAP2 SWAP1 PUSH2 0xA97 JUMP JUMPDEST POP POP POP SWAP2 POP POP PUSH5 0x2540BE400 DUP2 PUSH2 0x562 SWAP2 SWAP1 PUSH2 0xB12 JUMP JUMPDEST SWAP3 POP POP POP SWAP1 JUMP JUMPDEST DUP3 DUP1 SLOAD DUP3 DUP3 SSTORE SWAP1 PUSH1 0x0 MSTORE PUSH1 0x20 PUSH1 0x0 KECCAK256 SWAP1 DUP2 ADD SWAP3 DUP3 ISZERO PUSH2 0x5E2 JUMPI SWAP2 PUSH1 0x20 MUL DUP3 ADD JUMPDEST DUP3 DUP2 GT ISZERO PUSH2 0x5E1 JUMPI DUP3 MLOAD DUP3 PUSH1 0x0 PUSH2 0x100 EXP DUP2 SLOAD DUP2 PUSH20 0xFFFFFFFFFFFFFFFFFFFFFFFFFFFFFFFFFFFFFFFF MUL NOT AND SWAP1 DUP4 PUSH20 0xFFFFFFFFFFFFFFFFFFFFFFFFFFFFFFFFFFFFFFFF AND MUL OR SWAP1 SSTORE POP SWAP2 PUSH1 0x20 ADD SWAP2 SWAP1 PUSH1 0x1 ADD SWAP1 PUSH2 0x589 JUMP JUMPDEST JUMPDEST POP SWAP1 POP PUSH2 0x5EF SWAP2 SWAP1 PUSH2 0x5F3 JUMP JUMPDEST POP SWAP1 JUMP JUMPDEST JUMPDEST DUP1 DUP3 GT ISZERO PUSH2 0x60C JUMPI PUSH1 0x0 DUP2 PUSH1 0x0 SWAP1 SSTORE POP PUSH1 0x1 ADD PUSH2 0x5F4 JUMP JUMPDEST POP SWAP1 JUMP JUMPDEST PUSH1 0x0 DUP1 REVERT JUMPDEST PUSH1 0x0 PUSH20 0xFFFFFFFFFFFFFFFFFFFFFFFFFFFFFFFFFFFFFFFF DUP3 AND SWAP1 POP SWAP2 SWAP1 POP JUMP JUMPDEST PUSH1 0x0 PUSH2 0x640 DUP3 PUSH2 0x615 JUMP JUMPDEST SWAP1 POP SWAP2 SWAP1 POP JUMP JUMPDEST PUSH2 0x650 DUP2 PUSH2 0x635 JUMP JUMPDEST DUP2 EQ PUSH2 0x65B JUMPI PUSH1 0x0 DUP1 REVERT JUMPDEST POP JUMP JUMPDEST PUSH1 0x0 DUP2 CALLDATALOAD SWAP1 POP PUSH2 0x66D DUP2 PUSH2 0x647 JUMP JUMPDEST SWAP3 SWAP2 POP POP JUMP JUMPDEST PUSH1 0x0 PUSH1 0x20 DUP3 DUP5 SUB SLT ISZERO PUSH2 0x689 JUMPI PUSH2 0x688 PUSH2 0x610 JUMP JUMPDEST JUMPDEST PUSH1 0x0 PUSH2 0x697 DUP5 DUP3 DUP6 ADD PUSH2 0x65E JUMP JUMPDEST SWAP2 POP POP SWAP3 SWAP2 POP POP JUMP JUMPDEST PUSH1 0x0 DUP2 SWAP1 POP SWAP2 SWAP1 POP JUMP JUMPDEST PUSH2 0x6B3 DUP2 PUSH2 0x6A0 JUMP JUMPDEST DUP3 MSTORE POP POP JUMP JUMPDEST PUSH1 0x0 PUSH1 0x20 DUP3 ADD SWAP1 POP PUSH2 0x6CE PUSH1 0x0 DUP4 ADD DUP5 PUSH2 0x6AA JUMP JUMPDEST SWAP3 SWAP2 POP POP JUMP JUMPDEST PUSH2 0x6DD DUP2 PUSH2 0x635 JUMP JUMPDEST DUP3 MSTORE POP POP JUMP JUMPDEST PUSH1 0x0 PUSH1 0x20 DUP3 ADD SWAP1 POP PUSH2 0x6F8 PUSH1 0x0 DUP4 ADD DUP5 PUSH2 0x6D4 JUMP JUMPDEST SWAP3 SWAP2 POP POP JUMP JUMPDEST PUSH2 0x707 DUP2 PUSH2 0x6A0 JUMP JUMPDEST DUP2 EQ PUSH2 0x712 JUMPI PUSH1 0x0 DUP1 REVERT JUMPDEST POP JUMP JUMPDEST PUSH1 0x0 DUP2 CALLDATALOAD SWAP1 POP PUSH2 0x724 DUP2 PUSH2 0x6FE JUMP JUMPDEST SWAP3 SWAP2 POP POP JUMP JUMPDEST PUSH1 0x0 PUSH1 0x20 DUP3 DUP5 SUB SLT ISZERO PUSH2 0x740 JUMPI PUSH2 0x73F PUSH2 0x610 JUMP JUMPDEST JUMPDEST PUSH1 0x0 PUSH2 0x74E DUP5 DUP3 DUP6 ADD PUSH2 0x715 JUMP JUMPDEST SWAP2 POP POP SWAP3 SWAP2 POP POP JUMP JUMPDEST PUSH1 0x0 DUP3 DUP3 MSTORE PUSH1 0x20 DUP3 ADD SWAP1 POP SWAP3 SWAP2 POP POP JUMP JUMPDEST PUSH32 0x53656E646572206973206E6F74206F776E657221212100000000000000000000 PUSH1 0x0 DUP3 ADD MSTORE POP JUMP JUMPDEST PUSH1 0x0 PUSH2 0x79E PUSH1 0x16 DUP4 PUSH2 0x757 JUMP JUMPDEST SWAP2 POP PUSH2 0x7A9 DUP3 PUSH2 0x768 JUMP JUMPDEST PUSH1 0x20 DUP3 ADD SWAP1 POP SWAP2 SWAP1 POP JUMP JUMPDEST PUSH1 0x0 PUSH1 0x20 DUP3 ADD SWAP1 POP DUP2 DUP2 SUB PUSH1 0x0 DUP4 ADD MSTORE PUSH2 0x7CD DUP2 PUSH2 0x791 JUMP JUMPDEST SWAP1 POP SWAP2 SWAP1 POP JUMP JUMPDEST PUSH32 0x4E487B7100000000000000000000000000000000000000000000000000000000 PUSH1 0x0 MSTORE PUSH1 0x41 PUSH1 0x4 MSTORE PUSH1 0x24 PUSH1 0x0 REVERT JUMPDEST PUSH1 0x0 DUP2 SWAP1 POP SWAP3 SWAP2 POP POP JUMP JUMPDEST POP JUMP JUMPDEST PUSH1 0x0 PUSH2 0x81E PUSH1 0x0 DUP4 PUSH2 0x803 JUMP JUMPDEST SWAP2 POP PUSH2 0x829 DUP3 PUSH2 0x80E JUMP JUMPDEST PUSH1 0x0 DUP3 ADD SWAP1 POP SWAP2 SWAP1 POP JUMP JUMPDEST PUSH1 0x0 PUSH2 0x83F DUP3 PUSH2 0x811 JUMP JUMPDEST SWAP2 POP DUP2 SWAP1 POP SWAP2 SWAP1 POP JUMP JUMPDEST PUSH32 0x43616C6C206661696C6564000000000000000000000000000000000000000000 PUSH1 0x0 DUP3 ADD MSTORE POP JUMP JUMPDEST PUSH1 0x0 PUSH2 0x87F PUSH1 0xB DUP4 PUSH2 0x757 JUMP JUMPDEST SWAP2 POP PUSH2 0x88A DUP3 PUSH2 0x849 JUMP JUMPDEST PUSH1 0x20 DUP3 ADD SWAP1 POP SWAP2 SWAP1 POP JUMP JUMPDEST PUSH1 0x0 PUSH1 0x20 DUP3 ADD SWAP1 POP DUP2 DUP2 SUB PUSH1 0x0 DUP4 ADD MSTORE PUSH2 0x8AE DUP2 PUSH2 0x872 JUMP JUMPDEST SWAP1 POP SWAP2 SWAP1 POP JUMP JUMPDEST PUSH32 0x4469646E27742073656E6420656E6F7567682121210000000000000000000000 PUSH1 0x0 DUP3 ADD MSTORE POP JUMP JUMPDEST PUSH1 0x0 PUSH2 0x8EB PUSH1 0x15 DUP4 PUSH2 0x757 JUMP JUMPDEST SWAP2 POP PUSH2 0x8F6 DUP3 PUSH2 0x8B5 JUMP JUMPDEST PUSH1 0x20 DUP3 ADD SWAP1 POP SWAP2 SWAP1 POP JUMP JUMPDEST PUSH1 0x0 PUSH1 0x20 DUP3 ADD SWAP1 POP DUP2 DUP2 SUB PUSH1 0x0 DUP4 ADD MSTORE PUSH2 0x91A DUP2 PUSH2 0x8DE JUMP JUMPDEST SWAP1 POP SWAP2 SWAP1 POP JUMP JUMPDEST PUSH32 0x4E487B7100000000000000000000000000000000000000000000000000000000 PUSH1 0x0 MSTORE PUSH1 0x11 PUSH1 0x4 MSTORE PUSH1 0x24 PUSH1 0x0 REVERT JUMPDEST PUSH1 0x0 PUSH2 0x95B DUP3 PUSH2 0x6A0 JUMP JUMPDEST SWAP2 POP PUSH2 0x966 DUP4 PUSH2 0x6A0 JUMP JUMPDEST SWAP3 POP DUP2 PUSH32 0xFFFFFFFFFFFFFFFFFFFFFFFFFFFFFFFFFFFFFFFFFFFFFFFFFFFFFFFFFFFFFFFF DIV DUP4 GT DUP3 ISZERO ISZERO AND ISZERO PUSH2 0x99F JUMPI PUSH2 0x99E PUSH2 0x921 JUMP JUMPDEST JUMPDEST DUP3 DUP3 MUL SWAP1 POP SWAP3 SWAP2 POP POP JUMP JUMPDEST PUSH32 0x4E487B7100000000000000000000000000000000000000000000000000000000 PUSH1 0x0 MSTORE PUSH1 0x12 PUSH1 0x4 MSTORE PUSH1 0x24 PUSH1 0x0 REVERT JUMPDEST PUSH1 0x0 PUSH2 0x9E4 DUP3 PUSH2 0x6A0 JUMP JUMPDEST SWAP2 POP PUSH2 0x9EF DUP4 PUSH2 0x6A0 JUMP JUMPDEST SWAP3 POP DUP3 PUSH2 0x9FF JUMPI PUSH2 0x9FE PUSH2 0x9AA JUMP JUMPDEST JUMPDEST DUP3 DUP3 DIV SWAP1 POP SWAP3 SWAP2 POP POP JUMP JUMPDEST PUSH1 0x0 PUSH10 0xFFFFFFFFFFFFFFFFFFFF DUP3 AND SWAP1 POP SWAP2 SWAP1 POP JUMP JUMPDEST PUSH2 0xA29 DUP2 PUSH2 0xA0A JUMP JUMPDEST DUP2 EQ PUSH2 0xA34 JUMPI PUSH1 0x0 DUP1 REVERT JUMPDEST POP JUMP JUMPDEST PUSH1 0x0 DUP2 MLOAD SWAP1 POP PUSH2 0xA46 DUP2 PUSH2 0xA20 JUMP JUMPDEST SWAP3 SWAP2 POP POP JUMP JUMPDEST PUSH1 0x0 DUP2 SWAP1 POP SWAP2 SWAP1 POP JUMP JUMPDEST PUSH2 0xA5F DUP2 PUSH2 0xA4C JUMP JUMPDEST DUP2 EQ PUSH2 0xA6A JUMPI PUSH1 0x0 DUP1 REVERT JUMPDEST POP JUMP JUMPDEST PUSH1 0x0 DUP2 MLOAD SWAP1 POP PUSH2 0xA7C DUP2 PUSH2 0xA56 JUMP JUMPDEST SWAP3 SWAP2 POP POP JUMP JUMPDEST PUSH1 0x0 DUP2 MLOAD SWAP1 POP PUSH2 0xA91 DUP2 PUSH2 0x6FE JUMP JUMPDEST SWAP3 SWAP2 POP POP JUMP JUMPDEST PUSH1 0x0 DUP1 PUSH1 0x0 DUP1 PUSH1 0x0 PUSH1 0xA0 DUP7 DUP9 SUB SLT ISZERO PUSH2 0xAB3 JUMPI PUSH2 0xAB2 PUSH2 0x610 JUMP JUMPDEST JUMPDEST PUSH1 0x0 PUSH2 0xAC1 DUP9 DUP3 DUP10 ADD PUSH2 0xA37 JUMP JUMPDEST SWAP6 POP POP PUSH1 0x20 PUSH2 0xAD2 DUP9 DUP3 DUP10 ADD PUSH2 0xA6D JUMP JUMPDEST SWAP5 POP POP PUSH1 0x40 PUSH2 0xAE3 DUP9 DUP3 DUP10 ADD PUSH2 0xA82 JUMP JUMPDEST SWAP4 POP POP PUSH1 0x60 PUSH2 0xAF4 DUP9 DUP3 DUP10 ADD PUSH2 0xA82 JUMP JUMPDEST SWAP3 POP POP PUSH1 0x80 PUSH2 0xB05 DUP9 DUP3 DUP10 ADD PUSH2 0xA37 JUMP JUMPDEST SWAP2 POP POP SWAP3 SWAP6 POP SWAP3 SWAP6 SWAP1 SWAP4 POP JUMP JUMPDEST PUSH1 0x0 PUSH2 0xB1D DUP3 PUSH2 0xA4C JUMP JUMPDEST SWAP2 POP PUSH2 0xB28 DUP4 PUSH2 0xA4C JUMP JUMPDEST SWAP3 POP DUP3 PUSH32 0x7FFFFFFFFFFFFFFFFFFFFFFFFFFFFFFFFFFFFFFFFFFFFFFFFFFFFFFFFFFFFFFF DIV DUP3 GT PUSH1 0x0 DUP5 SGT PUSH1 0x0 DUP5 SGT AND AND ISZERO PUSH2 0xB67 JUMPI PUSH2 0xB66 PUSH2 0x921 JUMP JUMPDEST JUMPDEST DUP2 PUSH32 0x8000000000000000000000000000000000000000000000000000000000000000 SDIV DUP4 SLT PUSH1 0x0 DUP5 SLT PUSH1 0x0 DUP5 SGT AND AND ISZERO PUSH2 0xBA4 JUMPI PUSH2 0xBA3 PUSH2 0x921 JUMP JUMPDEST JUMPDEST DUP3 PUSH32 0x8000000000000000000000000000000000000000000000000000000000000000 SDIV DUP3 SLT PUSH1 0x0 DUP5 SGT PUSH1 0x0 DUP5 SLT AND AND ISZERO PUSH2 0xBE1 JUMPI PUSH2 0xBE0 PUSH2 0x921 JUMP JUMPDEST JUMPDEST DUP3 PUSH32 0x7FFFFFFFFFFFFFFFFFFFFFFFFFFFFFFFFFFFFFFFFFFFFFFFFFFFFFFFFFFFFFFF SDIV DUP3 SLT PUSH1 0x0 DUP5 SLT PUSH1 0x0 DUP5 SLT AND AND ISZERO PUSH2 0xC1E JUMPI PUSH2 0xC1D PUSH2 0x921 JUMP JUMPDEST JUMPDEST DUP3 DUP3 MUL SWAP1 POP SWAP3 SWAP2 POP POP JUMP INVALID LOG2 PUSH5 0x6970667358 0x22 SLT KECCAK256 JUMPI 0xAB 0xCF 0xE RETURNDATASIZE SUB 0xF 0xC3 SMOD 0xE9 SWAP10 BALANCE XOR SWAP12 RETURN DIFFICULTY 0xFB 0xB5 0xE4 0xDD CHAINID SLT PUSH23 0xF1687153DF70DD1F2064736F6C63430008080033000000 "
				},
				"gasEstimates": {
					"creation": {
						"codeDepositCost": "633400",
						"executionCost": "infinite",
						"totalCost": "infinite"
					},
					"external": {
						"addressToAmountFunded(address)": "2814",
						"fund()": "infinite",
						"funders(uint256)": "5022",
						"i_owner()": "infinite",
						"minimunUSD()": "417",
						"withdraw()": "infinite"
					}
				},
				"methodIdentifiers": {
					"addressToAmountFunded(address)": "3e47d6f3",
					"fund()": "b60d4288",
					"funders(uint256)": "dc0d3dff",
					"i_owner()": "dba6335f",
					"minimunUSD()": "f1b7c0ef",
					"withdraw()": "3ccfd60b"
				}
			},
			"storageLayout": {
				"storage": [
					{
						"astId": 59,
						"contract": "contracts/FundMe.sol:FundMe",
						"label": "funders",
						"offset": 0,
						"slot": "0",
						"type": "t_array(t_address)dyn_storage"
					},
					{
						"astId": 63,
						"contract": "contracts/FundMe.sol:FundMe",
						"label": "addressToAmountFunded",
						"offset": 0,
						"slot": "1",
						"type": "t_mapping(t_address,t_uint256)"
					}
				],
				"types": {
					"t_address": {
						"encoding": "inplace",
						"label": "address",
						"numberOfBytes": "20"
					},
					"t_array(t_address)dyn_storage": {
						"base": "t_address",
						"encoding": "dynamic_array",
						"label": "address[]",
						"numberOfBytes": "32"
					},
					"t_mapping(t_address,t_uint256)": {
						"encoding": "mapping",
						"key": "t_address",
						"label": "mapping(address => uint256)",
						"numberOfBytes": "32",
						"value": "t_uint256"
					},
					"t_uint256": {
						"encoding": "inplace",
						"label": "uint256",
						"numberOfBytes": "32"
					}
				}
			},
			"userdoc": {
				"kind": "user",
				"methods": {},
				"version": 1
			}
		}
	}
}