{
	"contracts/FundMe.sol": {
		"FundMe": {
			"abi": [
				{
					"inputs": [],
					"name": "fund",
					"outputs": [],
					"stateMutability": "payable",
					"type": "function"
				},
				{
					"inputs": [],
					"name": "minimunUSD",
					"outputs": [
						{
							"internalType": "uint256",
							"name": "",
							"type": "uint256"
						}
					],
					"stateMutability": "view",
					"type": "function"
				}
			],
			"devdoc": {
				"kind": "dev",
				"methods": {},
				"version": 1
			},
			"evm": {
				"assembly": "    /* \"contracts/FundMe.sol\":240:907  contract FundMe {... */\n  mstore(0x40, 0x80)\n    /* \"contracts/FundMe.sol\":291:293  50 */\n  0x32\n    /* \"contracts/FundMe.sol\":263:293  uint256 public minimunUSD = 50 */\n  0x00\n  sstore\n    /* \"contracts/FundMe.sol\":240:907  contract FundMe {... */\n  callvalue\n  dup1\n  iszero\n  tag_1\n  jumpi\n  0x00\n  dup1\n  revert\ntag_1:\n  pop\n  dataSize(sub_0)\n  dup1\n  dataOffset(sub_0)\n  0x00\n  codecopy\n  0x00\n  return\nstop\n\nsub_0: assembly {\n        /* \"contracts/FundMe.sol\":240:907  contract FundMe {... */\n      mstore(0x40, 0x80)\n      jumpi(tag_1, lt(calldatasize, 0x04))\n      shr(0xe0, calldataload(0x00))\n      dup1\n      0xb60d4288\n      eq\n      tag_2\n      jumpi\n      dup1\n      0xf1b7c0ef\n      eq\n      tag_3\n      jumpi\n    tag_1:\n      0x00\n      dup1\n      revert\n        /* \"contracts/FundMe.sol\":300:866  function fund() public payable {... */\n    tag_2:\n      tag_4\n      tag_5\n      jump\t// in\n    tag_4:\n      stop\n        /* \"contracts/FundMe.sol\":263:293  uint256 public minimunUSD = 50 */\n    tag_3:\n      callvalue\n      dup1\n      iszero\n      tag_6\n      jumpi\n      0x00\n      dup1\n      revert\n    tag_6:\n      pop\n      tag_7\n      tag_8\n      jump\t// in\n    tag_7:\n      mload(0x40)\n      tag_9\n      swap2\n      swap1\n      tag_10\n      jump\t// in\n    tag_9:\n      mload(0x40)\n      dup1\n      swap2\n      sub\n      swap1\n      return\n        /* \"contracts/FundMe.sol\":300:866  function fund() public payable {... */\n    tag_5:\n        /* \"contracts/FundMe.sol\":533:543  minimunUSD */\n      sload(0x00)\n        /* \"contracts/FundMe.sol\":521:530  msg.value */\n      callvalue\n        /* \"contracts/FundMe.sol\":521:543  msg.value > minimunUSD */\n      gt\n        /* \"contracts/FundMe.sol\":513:569  require(msg.value > minimunUSD, \"Didn't send enough!!!\") */\n      tag_12\n      jumpi\n      mload(0x40)\n      0x08c379a000000000000000000000000000000000000000000000000000000000\n      dup2\n      mstore\n      0x04\n      add\n      tag_13\n      swap1\n      tag_14\n      jump\t// in\n    tag_13:\n      mload(0x40)\n      dup1\n      swap2\n      sub\n      swap1\n      revert\n    tag_12:\n        /* \"contracts/FundMe.sol\":300:866  function fund() public payable {... */\n      jump\t// out\n        /* \"contracts/FundMe.sol\":263:293  uint256 public minimunUSD = 50 */\n    tag_8:\n      sload(0x00)\n      dup2\n      jump\t// out\n        /* \"#utility.yul\":7:84   */\n    tag_15:\n        /* \"#utility.yul\":44:51   */\n      0x00\n        /* \"#utility.yul\":73:78   */\n      dup2\n        /* \"#utility.yul\":62:78   */\n      swap1\n      pop\n        /* \"#utility.yul\":7:84   */\n      swap2\n      swap1\n      pop\n      jump\t// out\n        /* \"#utility.yul\":90:208   */\n    tag_16:\n        /* \"#utility.yul\":177:201   */\n      tag_23\n        /* \"#utility.yul\":195:200   */\n      dup2\n        /* \"#utility.yul\":177:201   */\n      tag_15\n      jump\t// in\n    tag_23:\n        /* \"#utility.yul\":172:175   */\n      dup3\n        /* \"#utility.yul\":165:202   */\n      mstore\n        /* \"#utility.yul\":90:208   */\n      pop\n      pop\n      jump\t// out\n        /* \"#utility.yul\":214:436   */\n    tag_10:\n        /* \"#utility.yul\":307:311   */\n      0x00\n        /* \"#utility.yul\":345:347   */\n      0x20\n        /* \"#utility.yul\":334:343   */\n      dup3\n        /* \"#utility.yul\":330:348   */\n      add\n        /* \"#utility.yul\":322:348   */\n      swap1\n      pop\n        /* \"#utility.yul\":358:429   */\n      tag_25\n        /* \"#utility.yul\":426:427   */\n      0x00\n        /* \"#utility.yul\":415:424   */\n      dup4\n        /* \"#utility.yul\":411:428   */\n      add\n        /* \"#utility.yul\":402:408   */\n      dup5\n        /* \"#utility.yul\":358:429   */\n      tag_16\n      jump\t// in\n    tag_25:\n        /* \"#utility.yul\":214:436   */\n      swap3\n      swap2\n      pop\n      pop\n      jump\t// out\n        /* \"#utility.yul\":442:611   */\n    tag_17:\n        /* \"#utility.yul\":526:537   */\n      0x00\n        /* \"#utility.yul\":560:566   */\n      dup3\n        /* \"#utility.yul\":555:558   */\n      dup3\n        /* \"#utility.yul\":548:567   */\n      mstore\n        /* \"#utility.yul\":600:604   */\n      0x20\n        /* \"#utility.yul\":595:598   */\n      dup3\n        /* \"#utility.yul\":591:605   */\n      add\n        /* \"#utility.yul\":576:605   */\n      swap1\n      pop\n        /* \"#utility.yul\":442:611   */\n      swap3\n      swap2\n      pop\n      pop\n      jump\t// out\n        /* \"#utility.yul\":617:788   */\n    tag_18:\n        /* \"#utility.yul\":757:780   */\n      0x4469646e27742073656e6420656e6f7567682121210000000000000000000000\n        /* \"#utility.yul\":753:754   */\n      0x00\n        /* \"#utility.yul\":745:751   */\n      dup3\n        /* \"#utility.yul\":741:755   */\n      add\n        /* \"#utility.yul\":734:781   */\n      mstore\n        /* \"#utility.yul\":617:788   */\n      pop\n      jump\t// out\n        /* \"#utility.yul\":794:1160   */\n    tag_19:\n        /* \"#utility.yul\":936:939   */\n      0x00\n        /* \"#utility.yul\":957:1024   */\n      tag_29\n        /* \"#utility.yul\":1021:1023   */\n      0x15\n        /* \"#utility.yul\":1016:1019   */\n      dup4\n        /* \"#utility.yul\":957:1024   */\n      tag_17\n      jump\t// in\n    tag_29:\n        /* \"#utility.yul\":950:1024   */\n      swap2\n      pop\n        /* \"#utility.yul\":1033:1126   */\n      tag_30\n        /* \"#utility.yul\":1122:1125   */\n      dup3\n        /* \"#utility.yul\":1033:1126   */\n      tag_18\n      jump\t// in\n    tag_30:\n        /* \"#utility.yul\":1151:1153   */\n      0x20\n        /* \"#utility.yul\":1146:1149   */\n      dup3\n        /* \"#utility.yul\":1142:1154   */\n      add\n        /* \"#utility.yul\":1135:1154   */\n      swap1\n      pop\n        /* \"#utility.yul\":794:1160   */\n      swap2\n      swap1\n      pop\n      jump\t// out\n        /* \"#utility.yul\":1166:1585   */\n    tag_14:\n        /* \"#utility.yul\":1332:1336   */\n      0x00\n        /* \"#utility.yul\":1370:1372   */\n      0x20\n        /* \"#utility.yul\":1359:1368   */\n      dup3\n        /* \"#utility.yul\":1355:1373   */\n      add\n        /* \"#utility.yul\":1347:1373   */\n      swap1\n      pop\n        /* \"#utility.yul\":1419:1428   */\n      dup2\n        /* \"#utility.yul\":1413:1417   */\n      dup2\n        /* \"#utility.yul\":1409:1429   */\n      sub\n        /* \"#utility.yul\":1405:1406   */\n      0x00\n        /* \"#utility.yul\":1394:1403   */\n      dup4\n        /* \"#utility.yul\":1390:1407   */\n      add\n        /* \"#utility.yul\":1383:1430   */\n      mstore\n        /* \"#utility.yul\":1447:1578   */\n      tag_32\n        /* \"#utility.yul\":1573:1577   */\n      dup2\n        /* \"#utility.yul\":1447:1578   */\n      tag_19\n      jump\t// in\n    tag_32:\n        /* \"#utility.yul\":1439:1578   */\n      swap1\n      pop\n        /* \"#utility.yul\":1166:1585   */\n      swap2\n      swap1\n      pop\n      jump\t// out\n\n    auxdata: 0xa2646970667358221220924f60604f2191f3c68164bdfdd7745a21cacb03ee317f5da1a9c31de7e479aa64736f6c63430008080033\n}\n",
				"bytecode": {
					"linkReferences": {},
					"object": "6080604052603260005534801561001557600080fd5b50610196806100256000396000f3fe6080604052600436106100295760003560e01c8063b60d42881461002e578063f1b7c0ef14610038575b600080fd5b610036610063565b005b34801561004457600080fd5b5061004d6100a9565b60405161005a91906100c8565b60405180910390f35b60005434116100a7576040517f08c379a000000000000000000000000000000000000000000000000000000000815260040161009e90610140565b60405180910390fd5b565b60005481565b6000819050919050565b6100c2816100af565b82525050565b60006020820190506100dd60008301846100b9565b92915050565b600082825260208201905092915050565b7f4469646e27742073656e6420656e6f7567682121210000000000000000000000600082015250565b600061012a6015836100e3565b9150610135826100f4565b602082019050919050565b600060208201905081810360008301526101598161011d565b905091905056fea2646970667358221220924f60604f2191f3c68164bdfdd7745a21cacb03ee317f5da1a9c31de7e479aa64736f6c63430008080033",
					"opcodes": "PUSH1 0x80 PUSH1 0x40 MSTORE PUSH1 0x32 PUSH1 0x0 SSTORE CALLVALUE DUP1 ISZERO PUSH2 0x15 JUMPI PUSH1 0x0 DUP1 REVERT JUMPDEST POP PUSH2 0x196 DUP1 PUSH2 0x25 PUSH1 0x0 CODECOPY PUSH1 0x0 RETURN INVALID PUSH1 0x80 PUSH1 0x40 MSTORE PUSH1 0x4 CALLDATASIZE LT PUSH2 0x29 JUMPI PUSH1 0x0 CALLDATALOAD PUSH1 0xE0 SHR DUP1 PUSH4 0xB60D4288 EQ PUSH2 0x2E JUMPI DUP1 PUSH4 0xF1B7C0EF EQ PUSH2 0x38 JUMPI JUMPDEST PUSH1 0x0 DUP1 REVERT JUMPDEST PUSH2 0x36 PUSH2 0x63 JUMP JUMPDEST STOP JUMPDEST CALLVALUE DUP1 ISZERO PUSH2 0x44 JUMPI PUSH1 0x0 DUP1 REVERT JUMPDEST POP PUSH2 0x4D PUSH2 0xA9 JUMP JUMPDEST PUSH1 0x40 MLOAD PUSH2 0x5A SWAP2 SWAP1 PUSH2 0xC8 JUMP JUMPDEST PUSH1 0x40 MLOAD DUP1 SWAP2 SUB SWAP1 RETURN JUMPDEST PUSH1 0x0 SLOAD CALLVALUE GT PUSH2 0xA7 JUMPI PUSH1 0x40 MLOAD PUSH32 0x8C379A000000000000000000000000000000000000000000000000000000000 DUP2 MSTORE PUSH1 0x4 ADD PUSH2 0x9E SWAP1 PUSH2 0x140 JUMP JUMPDEST PUSH1 0x40 MLOAD DUP1 SWAP2 SUB SWAP1 REVERT JUMPDEST JUMP JUMPDEST PUSH1 0x0 SLOAD DUP2 JUMP JUMPDEST PUSH1 0x0 DUP2 SWAP1 POP SWAP2 SWAP1 POP JUMP JUMPDEST PUSH2 0xC2 DUP2 PUSH2 0xAF JUMP JUMPDEST DUP3 MSTORE POP POP JUMP JUMPDEST PUSH1 0x0 PUSH1 0x20 DUP3 ADD SWAP1 POP PUSH2 0xDD PUSH1 0x0 DUP4 ADD DUP5 PUSH2 0xB9 JUMP JUMPDEST SWAP3 SWAP2 POP POP JUMP JUMPDEST PUSH1 0x0 DUP3 DUP3 MSTORE PUSH1 0x20 DUP3 ADD SWAP1 POP SWAP3 SWAP2 POP POP JUMP JUMPDEST PUSH32 0x4469646E27742073656E6420656E6F7567682121210000000000000000000000 PUSH1 0x0 DUP3 ADD MSTORE POP JUMP JUMPDEST PUSH1 0x0 PUSH2 0x12A PUSH1 0x15 DUP4 PUSH2 0xE3 JUMP JUMPDEST SWAP2 POP PUSH2 0x135 DUP3 PUSH2 0xF4 JUMP JUMPDEST PUSH1 0x20 DUP3 ADD SWAP1 POP SWAP2 SWAP1 POP JUMP JUMPDEST PUSH1 0x0 PUSH1 0x20 DUP3 ADD SWAP1 POP DUP2 DUP2 SUB PUSH1 0x0 DUP4 ADD MSTORE PUSH2 0x159 DUP2 PUSH2 0x11D JUMP JUMPDEST SWAP1 POP SWAP2 SWAP1 POP JUMP INVALID LOG2 PUSH5 0x6970667358 0x22 SLT KECCAK256 SWAP3 0x4F PUSH1 0x60 0x4F 0x21 SWAP2 RETURN 0xC6 DUP2 PUSH5 0xBDFDD7745A 0x21 0xCA 0xCB SUB 0xEE BALANCE PUSH32 0x5DA1A9C31DE7E479AA64736F6C63430008080033000000000000000000000000 "
				},
				"gasEstimates": {
					"creation": {
						"codeDepositCost": "81200",
						"executionCost": "22235",
						"totalCost": "103435"
					},
					"external": {
						"fund()": "2509",
						"minimunUSD()": "2429"
					}
				},
				"methodIdentifiers": {
					"fund()": "b60d4288",
					"minimunUSD()": "f1b7c0ef"
				}
			},
			"storageLayout": {
				"storage": [
					{
						"astId": 4,
						"contract": "contracts/FundMe.sol:FundMe",
						"label": "minimunUSD",
						"offset": 0,
						"slot": "0",
						"type": "t_uint256"
					}
				],
				"types": {
					"t_uint256": {
						"encoding": "inplace",
						"label": "uint256",
						"numberOfBytes": "32"
					}
				}
			},
			"userdoc": {
				"kind": "user",
				"methods": {},
				"version": 1
			}
		}
	}
}