{
	"contracts/FundMe.sol": {
		"FundMe": {
			"abi": [
				{
					"inputs": [
						{
							"internalType": "address",
							"name": "",
							"type": "address"
						}
					],
					"name": "addressToAmountFunded",
					"outputs": [
						{
							"internalType": "uint256",
							"name": "",
							"type": "uint256"
						}
					],
					"stateMutability": "view",
					"type": "function"
				},
				{
					"inputs": [],
					"name": "fund",
					"outputs": [],
					"stateMutability": "payable",
					"type": "function"
				},
				{
					"inputs": [
						{
							"internalType": "uint256",
							"name": "",
							"type": "uint256"
						}
					],
					"name": "funders",
					"outputs": [
						{
							"internalType": "address",
							"name": "",
							"type": "address"
						}
					],
					"stateMutability": "view",
					"type": "function"
				},
				{
					"inputs": [],
					"name": "minimunUSD",
					"outputs": [
						{
							"internalType": "uint256",
							"name": "",
							"type": "uint256"
						}
					],
					"stateMutability": "view",
					"type": "function"
				},
				{
					"inputs": [],
					"name": "withdraw",
					"outputs": [],
					"stateMutability": "nonpayable",
					"type": "function"
				}
			],
			"devdoc": {
				"kind": "dev",
				"methods": {},
				"version": 1
			},
			"evm": {
				"assembly": "    /* \"contracts/FundMe.sol\":272:2029  contract FundMe {... */\n  mstore(0x40, 0x80)\n    /* \"contracts/FundMe.sol\":550:559  50 * 1e18 */\n  0x02b5e3af16b1880000\n    /* \"contracts/FundMe.sol\":522:559  uint256 public minimunUSD = 50 * 1e18 */\n  0x00\n  sstore\n    /* \"contracts/FundMe.sol\":272:2029  contract FundMe {... */\n  callvalue\n  dup1\n  iszero\n  tag_1\n  jumpi\n  0x00\n  dup1\n  revert\ntag_1:\n  pop\n  dataSize(sub_0)\n  dup1\n  dataOffset(sub_0)\n  0x00\n  codecopy\n  0x00\n  return\nstop\n\nsub_0: assembly {\n        /* \"contracts/FundMe.sol\":272:2029  contract FundMe {... */\n      mstore(0x40, 0x80)\n      jumpi(tag_1, lt(calldatasize, 0x04))\n      shr(0xe0, calldataload(0x00))\n      dup1\n      0x3ccfd60b\n      eq\n      tag_2\n      jumpi\n      dup1\n      0x3e47d6f3\n      eq\n      tag_3\n      jumpi\n      dup1\n      0xb60d4288\n      eq\n      tag_4\n      jumpi\n      dup1\n      0xdc0d3dff\n      eq\n      tag_5\n      jumpi\n      dup1\n      0xf1b7c0ef\n      eq\n      tag_6\n      jumpi\n    tag_1:\n      0x00\n      dup1\n      revert\n        /* \"contracts/FundMe.sol\":1899:2027  function withdraw() public {... */\n    tag_2:\n      callvalue\n      dup1\n      iszero\n      tag_7\n      jumpi\n      0x00\n      dup1\n      revert\n    tag_7:\n      pop\n      tag_8\n      tag_9\n      jump\t// in\n    tag_8:\n      stop\n        /* \"contracts/FundMe.sol\":736:792  mapping(address => uint256) public addressToAmountFunded */\n    tag_3:\n      callvalue\n      dup1\n      iszero\n      tag_10\n      jumpi\n      0x00\n      dup1\n      revert\n    tag_10:\n      pop\n      tag_11\n      0x04\n      dup1\n      calldatasize\n      sub\n      dup2\n      add\n      swap1\n      tag_12\n      swap2\n      swap1\n      tag_13\n      jump\t// in\n    tag_12:\n      tag_14\n      jump\t// in\n    tag_11:\n      mload(0x40)\n      tag_15\n      swap2\n      swap1\n      tag_16\n      jump\t// in\n    tag_15:\n      mload(0x40)\n      dup1\n      swap2\n      sub\n      swap1\n      return\n        /* \"contracts/FundMe.sol\":899:1893  function fund() public payable {... */\n    tag_4:\n      tag_17\n      tag_18\n      jump\t// in\n    tag_17:\n      stop\n        /* \"contracts/FundMe.sol\":603:627  address[] public funders */\n    tag_5:\n      callvalue\n      dup1\n      iszero\n      tag_19\n      jumpi\n      0x00\n      dup1\n      revert\n    tag_19:\n      pop\n      tag_20\n      0x04\n      dup1\n      calldatasize\n      sub\n      dup2\n      add\n      swap1\n      tag_21\n      swap2\n      swap1\n      tag_22\n      jump\t// in\n    tag_21:\n      tag_23\n      jump\t// in\n    tag_20:\n      mload(0x40)\n      tag_24\n      swap2\n      swap1\n      tag_25\n      jump\t// in\n    tag_24:\n      mload(0x40)\n      dup1\n      swap2\n      sub\n      swap1\n      return\n        /* \"contracts/FundMe.sol\":522:559  uint256 public minimunUSD = 50 * 1e18 */\n    tag_6:\n      callvalue\n      dup1\n      iszero\n      tag_26\n      jumpi\n      0x00\n      dup1\n      revert\n    tag_26:\n      pop\n      tag_27\n      tag_28\n      jump\t// in\n    tag_27:\n      mload(0x40)\n      tag_29\n      swap2\n      swap1\n      tag_16\n      jump\t// in\n    tag_29:\n      mload(0x40)\n      dup1\n      swap2\n      sub\n      swap1\n      return\n        /* \"contracts/FundMe.sol\":1899:2027  function withdraw() public {... */\n    tag_9:\n        /* \"contracts/FundMe.sol\":1940:1959  uint256 funderIndex */\n      0x00\n        /* \"contracts/FundMe.sol\":1936:2021  for(uint256 funderIndex = 0; funderIndex < funders.length; funderIndex++){... */\n    tag_31:\n        /* \"contracts/FundMe.sol\":1979:1986  funders */\n      0x01\n        /* \"contracts/FundMe.sol\":1979:1993  funders.length */\n      dup1\n      sload\n      swap1\n      pop\n        /* \"contracts/FundMe.sol\":1965:1976  funderIndex */\n      dup2\n        /* \"contracts/FundMe.sol\":1965:1993  funderIndex < funders.length */\n      lt\n        /* \"contracts/FundMe.sol\":1936:2021  for(uint256 funderIndex = 0; funderIndex < funders.length; funderIndex++){... */\n      iszero\n      tag_32\n      jumpi\n        /* \"contracts/FundMe.sol\":1995:2008  funderIndex++ */\n      dup1\n      dup1\n      tag_34\n      swap1\n      tag_35\n      jump\t// in\n    tag_34:\n      swap2\n      pop\n      pop\n        /* \"contracts/FundMe.sol\":1936:2021  for(uint256 funderIndex = 0; funderIndex < funders.length; funderIndex++){... */\n      jump(tag_31)\n    tag_32:\n      pop\n        /* \"contracts/FundMe.sol\":1899:2027  function withdraw() public {... */\n      jump\t// out\n        /* \"contracts/FundMe.sol\":736:792  mapping(address => uint256) public addressToAmountFunded */\n    tag_14:\n      mstore(0x20, 0x02)\n      dup1\n      0x00\n      mstore\n      keccak256(0x00, 0x40)\n      0x00\n      swap2\n      pop\n      swap1\n      pop\n      sload\n      dup2\n      jump\t// out\n        /* \"contracts/FundMe.sol\":899:1893  function fund() public payable {... */\n    tag_18:\n        /* \"contracts/FundMe.sol\":1108:1137  msg.value.getConversionRate() */\n      tag_37\n        /* \"contracts/FundMe.sol\":1108:1117  msg.value */\n      callvalue\n        /* \"contracts/FundMe.sol\":1108:1135  msg.value.getConversionRate */\n      tag_38\n        /* \"contracts/FundMe.sol\":1108:1137  msg.value.getConversionRate() */\n      jump\t// in\n    tag_37:\n      pop\n        /* \"contracts/FundMe.sol\":1235:1245  minimunUSD */\n      sload(0x00)\n        /* \"contracts/FundMe.sol\":1202:1231  msg.value.getConversionRate() */\n      tag_39\n        /* \"contracts/FundMe.sol\":1202:1211  msg.value */\n      callvalue\n        /* \"contracts/FundMe.sol\":1202:1229  msg.value.getConversionRate */\n      tag_38\n        /* \"contracts/FundMe.sol\":1202:1231  msg.value.getConversionRate() */\n      jump\t// in\n    tag_39:\n        /* \"contracts/FundMe.sol\":1202:1245  msg.value.getConversionRate() >= minimunUSD */\n      lt\n      iszero\n        /* \"contracts/FundMe.sol\":1194:1271  require(msg.value.getConversionRate() >= minimunUSD, \"Didn't send enough!!!\") */\n      tag_40\n      jumpi\n      mload(0x40)\n      0x08c379a000000000000000000000000000000000000000000000000000000000\n      dup2\n      mstore\n      0x04\n      add\n      tag_41\n      swap1\n      tag_42\n      jump\t// in\n    tag_41:\n      mload(0x40)\n      dup1\n      swap2\n      sub\n      swap1\n      revert\n    tag_40:\n        /* \"contracts/FundMe.sol\":1590:1597  funders */\n      0x01\n        /* \"contracts/FundMe.sol\":1603:1613  msg.sender */\n      caller\n        /* \"contracts/FundMe.sol\":1590:1614  funders.push(msg.sender) */\n      swap1\n      dup1\n      0x01\n      dup2\n      sload\n      add\n      dup1\n      dup3\n      sstore\n      dup1\n      swap2\n      pop\n      pop\n      0x01\n      swap1\n      sub\n      swap1\n      0x00\n      mstore\n      keccak256(0x00, 0x20)\n      add\n      0x00\n      swap1\n      swap2\n      swap1\n      swap2\n      swap1\n      swap2\n      0x0100\n      exp\n      dup2\n      sload\n      dup2\n      0xffffffffffffffffffffffffffffffffffffffff\n      mul\n      not\n      and\n      swap1\n      dup4\n      0xffffffffffffffffffffffffffffffffffffffff\n      and\n      mul\n      or\n      swap1\n      sstore\n      pop\n        /* \"contracts/FundMe.sol\":1768:1777  msg.value */\n      callvalue\n        /* \"contracts/FundMe.sol\":1732:1753  addressToAmountFunded */\n      0x02\n        /* \"contracts/FundMe.sol\":1732:1765  addressToAmountFunded[msg.sender] */\n      0x00\n        /* \"contracts/FundMe.sol\":1754:1764  msg.sender */\n      caller\n        /* \"contracts/FundMe.sol\":1732:1765  addressToAmountFunded[msg.sender] */\n      0xffffffffffffffffffffffffffffffffffffffff\n      and\n      0xffffffffffffffffffffffffffffffffffffffff\n      and\n      dup2\n      mstore\n      0x20\n      add\n      swap1\n      dup2\n      mstore\n      0x20\n      add\n      0x00\n      keccak256\n        /* \"contracts/FundMe.sol\":1732:1777  addressToAmountFunded[msg.sender] = msg.value */\n      dup2\n      swap1\n      sstore\n      pop\n        /* \"contracts/FundMe.sol\":899:1893  function fund() public payable {... */\n      jump\t// out\n        /* \"contracts/FundMe.sol\":603:627  address[] public funders */\n    tag_23:\n      0x01\n      dup2\n      dup2\n      sload\n      dup2\n      lt\n      tag_44\n      jumpi\n      0x00\n      dup1\n      revert\n    tag_44:\n      swap1\n      0x00\n      mstore\n      keccak256(0x00, 0x20)\n      add\n      0x00\n      swap2\n      pop\n      sload\n      swap1\n      0x0100\n      exp\n      swap1\n      div\n      0xffffffffffffffffffffffffffffffffffffffff\n      and\n      dup2\n      jump\t// out\n        /* \"contracts/FundMe.sol\":522:559  uint256 public minimunUSD = 50 * 1e18 */\n    tag_28:\n      sload(0x00)\n      dup2\n      jump\t// out\n        /* \"contracts/PriceConverter.sol\":846:1474  function getConversionRate(uint256 ethAmount) internal view returns (uint256) {... */\n    tag_38:\n        /* \"contracts/PriceConverter.sol\":915:922  uint256 */\n      0x00\n        /* \"contracts/PriceConverter.sol\":1031:1047  uint256 ethPrice */\n      dup1\n        /* \"contracts/PriceConverter.sol\":1050:1060  getPrice() */\n      tag_47\n        /* \"contracts/PriceConverter.sol\":1050:1058  getPrice */\n      tag_48\n        /* \"contracts/PriceConverter.sol\":1050:1060  getPrice() */\n      jump\t// in\n    tag_47:\n        /* \"contracts/PriceConverter.sol\":1031:1060  uint256 ethPrice = getPrice() */\n      swap1\n      pop\n        /* \"contracts/PriceConverter.sol\":1179:1201  uint256 ethAmountInUsd */\n      0x00\n        /* \"contracts/PriceConverter.sol\":1229:1233  1e18 */\n      0x0de0b6b3a7640000\n        /* \"contracts/PriceConverter.sol\":1216:1225  ethAmount */\n      dup5\n        /* \"contracts/PriceConverter.sol\":1205:1213  ethPrice */\n      dup4\n        /* \"contracts/PriceConverter.sol\":1205:1225  ethPrice * ethAmount */\n      tag_49\n      swap2\n      swap1\n      tag_50\n      jump\t// in\n    tag_49:\n        /* \"contracts/PriceConverter.sol\":1204:1233  (ethPrice * ethAmount) / 1e18 */\n      tag_51\n      swap2\n      swap1\n      tag_52\n      jump\t// in\n    tag_51:\n        /* \"contracts/PriceConverter.sol\":1179:1233  uint256 ethAmountInUsd = (ethPrice * ethAmount) / 1e18 */\n      swap1\n      pop\n        /* \"contracts/PriceConverter.sol\":1453:1467  ethAmountInUsd */\n      dup1\n        /* \"contracts/PriceConverter.sol\":1446:1467  return ethAmountInUsd */\n      swap3\n      pop\n      pop\n      pop\n        /* \"contracts/PriceConverter.sol\":846:1474  function getConversionRate(uint256 ethAmount) internal view returns (uint256) {... */\n      swap2\n      swap1\n      pop\n      jump\t// out\n        /* \"contracts/PriceConverter.sol\":231:627  function getPrice() internal view returns(uint256) {... */\n    tag_48:\n        /* \"contracts/PriceConverter.sol\":273:280  uint256 */\n      0x00\n        /* \"contracts/PriceConverter.sol\":292:323  AggregatorV3Interface priceFeed */\n      dup1\n        /* \"contracts/PriceConverter.sol\":348:390  0x8A753747A1Fa494EC906cE90E9f37563A8AF630e */\n      0x8a753747a1fa494ec906ce90e9f37563a8af630e\n        /* \"contracts/PriceConverter.sol\":292:391  AggregatorV3Interface priceFeed = AggregatorV3Interface(0x8A753747A1Fa494EC906cE90E9f37563A8AF630e) */\n      swap1\n      pop\n        /* \"contracts/PriceConverter.sol\":403:415  int256 price */\n      0x00\n        /* \"contracts/PriceConverter.sol\":422:431  priceFeed */\n      dup2\n        /* \"contracts/PriceConverter.sol\":422:447  priceFeed.latestRoundData */\n      0xffffffffffffffffffffffffffffffffffffffff\n      and\n      0xfeaf968c\n        /* \"contracts/PriceConverter.sol\":422:449  priceFeed.latestRoundData() */\n      mload(0x40)\n      dup2\n      0xffffffff\n      and\n      0xe0\n      shl\n      dup2\n      mstore\n      0x04\n      add\n      0xa0\n      mload(0x40)\n      dup1\n      dup4\n      sub\n      dup2\n      dup7\n      dup1\n      extcodesize\n      iszero\n      dup1\n      iszero\n      tag_54\n      jumpi\n      0x00\n      dup1\n      revert\n    tag_54:\n      pop\n      gas\n      staticcall\n      iszero\n      dup1\n      iszero\n      tag_56\n      jumpi\n      returndatasize\n      0x00\n      dup1\n      returndatacopy\n      revert(0x00, returndatasize)\n    tag_56:\n      pop\n      pop\n      pop\n      pop\n      mload(0x40)\n      returndatasize\n      not(0x1f)\n      0x1f\n      dup3\n      add\n      and\n      dup3\n      add\n      dup1\n      0x40\n      mstore\n      pop\n      dup2\n      add\n      swap1\n      tag_57\n      swap2\n      swap1\n      tag_58\n      jump\t// in\n    tag_57:\n        /* \"contracts/PriceConverter.sol\":401:449  (,int256 price,,,) = priceFeed.latestRoundData() */\n      pop\n      pop\n      pop\n      swap2\n      pop\n      pop\n        /* \"contracts/PriceConverter.sol\":537:541  1e10 */\n      0x02540be400\n        /* \"contracts/PriceConverter.sol\":529:534  price */\n      dup2\n        /* \"contracts/PriceConverter.sol\":529:541  price * 1e10 */\n      tag_59\n      swap2\n      swap1\n      tag_60\n      jump\t// in\n    tag_59:\n        /* \"contracts/PriceConverter.sol\":514:542  return uint256(price * 1e10) */\n      swap3\n      pop\n      pop\n      pop\n        /* \"contracts/PriceConverter.sol\":231:627  function getPrice() internal view returns(uint256) {... */\n      swap1\n      jump\t// out\n        /* \"#utility.yul\":88:205   */\n    tag_62:\n        /* \"#utility.yul\":197:198   */\n      0x00\n        /* \"#utility.yul\":194:195   */\n      dup1\n        /* \"#utility.yul\":187:199   */\n      revert\n        /* \"#utility.yul\":334:460   */\n    tag_64:\n        /* \"#utility.yul\":371:378   */\n      0x00\n        /* \"#utility.yul\":411:453   */\n      0xffffffffffffffffffffffffffffffffffffffff\n        /* \"#utility.yul\":404:409   */\n      dup3\n        /* \"#utility.yul\":400:454   */\n      and\n        /* \"#utility.yul\":389:454   */\n      swap1\n      pop\n        /* \"#utility.yul\":334:460   */\n      swap2\n      swap1\n      pop\n      jump\t// out\n        /* \"#utility.yul\":466:562   */\n    tag_65:\n        /* \"#utility.yul\":503:510   */\n      0x00\n        /* \"#utility.yul\":532:556   */\n      tag_91\n        /* \"#utility.yul\":550:555   */\n      dup3\n        /* \"#utility.yul\":532:556   */\n      tag_64\n      jump\t// in\n    tag_91:\n        /* \"#utility.yul\":521:556   */\n      swap1\n      pop\n        /* \"#utility.yul\":466:562   */\n      swap2\n      swap1\n      pop\n      jump\t// out\n        /* \"#utility.yul\":568:690   */\n    tag_66:\n        /* \"#utility.yul\":641:665   */\n      tag_93\n        /* \"#utility.yul\":659:664   */\n      dup2\n        /* \"#utility.yul\":641:665   */\n      tag_65\n      jump\t// in\n    tag_93:\n        /* \"#utility.yul\":634:639   */\n      dup2\n        /* \"#utility.yul\":631:666   */\n      eq\n        /* \"#utility.yul\":621:684   */\n      tag_94\n      jumpi\n        /* \"#utility.yul\":680:681   */\n      0x00\n        /* \"#utility.yul\":677:678   */\n      dup1\n        /* \"#utility.yul\":670:682   */\n      revert\n        /* \"#utility.yul\":621:684   */\n    tag_94:\n        /* \"#utility.yul\":568:690   */\n      pop\n      jump\t// out\n        /* \"#utility.yul\":696:835   */\n    tag_67:\n        /* \"#utility.yul\":742:747   */\n      0x00\n        /* \"#utility.yul\":780:786   */\n      dup2\n        /* \"#utility.yul\":767:787   */\n      calldataload\n        /* \"#utility.yul\":758:787   */\n      swap1\n      pop\n        /* \"#utility.yul\":796:829   */\n      tag_96\n        /* \"#utility.yul\":823:828   */\n      dup2\n        /* \"#utility.yul\":796:829   */\n      tag_66\n      jump\t// in\n    tag_96:\n        /* \"#utility.yul\":696:835   */\n      swap3\n      swap2\n      pop\n      pop\n      jump\t// out\n        /* \"#utility.yul\":841:1170   */\n    tag_13:\n        /* \"#utility.yul\":900:906   */\n      0x00\n        /* \"#utility.yul\":949:951   */\n      0x20\n        /* \"#utility.yul\":937:946   */\n      dup3\n        /* \"#utility.yul\":928:935   */\n      dup5\n        /* \"#utility.yul\":924:947   */\n      sub\n        /* \"#utility.yul\":920:952   */\n      slt\n        /* \"#utility.yul\":917:1036   */\n      iszero\n      tag_98\n      jumpi\n        /* \"#utility.yul\":955:1034   */\n      tag_99\n      tag_62\n      jump\t// in\n    tag_99:\n        /* \"#utility.yul\":917:1036   */\n    tag_98:\n        /* \"#utility.yul\":1075:1076   */\n      0x00\n        /* \"#utility.yul\":1100:1153   */\n      tag_100\n        /* \"#utility.yul\":1145:1152   */\n      dup5\n        /* \"#utility.yul\":1136:1142   */\n      dup3\n        /* \"#utility.yul\":1125:1134   */\n      dup6\n        /* \"#utility.yul\":1121:1143   */\n      add\n        /* \"#utility.yul\":1100:1153   */\n      tag_67\n      jump\t// in\n    tag_100:\n        /* \"#utility.yul\":1090:1153   */\n      swap2\n      pop\n        /* \"#utility.yul\":1046:1163   */\n      pop\n        /* \"#utility.yul\":841:1170   */\n      swap3\n      swap2\n      pop\n      pop\n      jump\t// out\n        /* \"#utility.yul\":1176:1253   */\n    tag_68:\n        /* \"#utility.yul\":1213:1220   */\n      0x00\n        /* \"#utility.yul\":1242:1247   */\n      dup2\n        /* \"#utility.yul\":1231:1247   */\n      swap1\n      pop\n        /* \"#utility.yul\":1176:1253   */\n      swap2\n      swap1\n      pop\n      jump\t// out\n        /* \"#utility.yul\":1259:1377   */\n    tag_69:\n        /* \"#utility.yul\":1346:1370   */\n      tag_103\n        /* \"#utility.yul\":1364:1369   */\n      dup2\n        /* \"#utility.yul\":1346:1370   */\n      tag_68\n      jump\t// in\n    tag_103:\n        /* \"#utility.yul\":1341:1344   */\n      dup3\n        /* \"#utility.yul\":1334:1371   */\n      mstore\n        /* \"#utility.yul\":1259:1377   */\n      pop\n      pop\n      jump\t// out\n        /* \"#utility.yul\":1383:1605   */\n    tag_16:\n        /* \"#utility.yul\":1476:1480   */\n      0x00\n        /* \"#utility.yul\":1514:1516   */\n      0x20\n        /* \"#utility.yul\":1503:1512   */\n      dup3\n        /* \"#utility.yul\":1499:1517   */\n      add\n        /* \"#utility.yul\":1491:1517   */\n      swap1\n      pop\n        /* \"#utility.yul\":1527:1598   */\n      tag_105\n        /* \"#utility.yul\":1595:1596   */\n      0x00\n        /* \"#utility.yul\":1584:1593   */\n      dup4\n        /* \"#utility.yul\":1580:1597   */\n      add\n        /* \"#utility.yul\":1571:1577   */\n      dup5\n        /* \"#utility.yul\":1527:1598   */\n      tag_69\n      jump\t// in\n    tag_105:\n        /* \"#utility.yul\":1383:1605   */\n      swap3\n      swap2\n      pop\n      pop\n      jump\t// out\n        /* \"#utility.yul\":1611:1733   */\n    tag_70:\n        /* \"#utility.yul\":1684:1708   */\n      tag_107\n        /* \"#utility.yul\":1702:1707   */\n      dup2\n        /* \"#utility.yul\":1684:1708   */\n      tag_68\n      jump\t// in\n    tag_107:\n        /* \"#utility.yul\":1677:1682   */\n      dup2\n        /* \"#utility.yul\":1674:1709   */\n      eq\n        /* \"#utility.yul\":1664:1727   */\n      tag_108\n      jumpi\n        /* \"#utility.yul\":1723:1724   */\n      0x00\n        /* \"#utility.yul\":1720:1721   */\n      dup1\n        /* \"#utility.yul\":1713:1725   */\n      revert\n        /* \"#utility.yul\":1664:1727   */\n    tag_108:\n        /* \"#utility.yul\":1611:1733   */\n      pop\n      jump\t// out\n        /* \"#utility.yul\":1739:1878   */\n    tag_71:\n        /* \"#utility.yul\":1785:1790   */\n      0x00\n        /* \"#utility.yul\":1823:1829   */\n      dup2\n        /* \"#utility.yul\":1810:1830   */\n      calldataload\n        /* \"#utility.yul\":1801:1830   */\n      swap1\n      pop\n        /* \"#utility.yul\":1839:1872   */\n      tag_110\n        /* \"#utility.yul\":1866:1871   */\n      dup2\n        /* \"#utility.yul\":1839:1872   */\n      tag_70\n      jump\t// in\n    tag_110:\n        /* \"#utility.yul\":1739:1878   */\n      swap3\n      swap2\n      pop\n      pop\n      jump\t// out\n        /* \"#utility.yul\":1884:2213   */\n    tag_22:\n        /* \"#utility.yul\":1943:1949   */\n      0x00\n        /* \"#utility.yul\":1992:1994   */\n      0x20\n        /* \"#utility.yul\":1980:1989   */\n      dup3\n        /* \"#utility.yul\":1971:1978   */\n      dup5\n        /* \"#utility.yul\":1967:1990   */\n      sub\n        /* \"#utility.yul\":1963:1995   */\n      slt\n        /* \"#utility.yul\":1960:2079   */\n      iszero\n      tag_112\n      jumpi\n        /* \"#utility.yul\":1998:2077   */\n      tag_113\n      tag_62\n      jump\t// in\n    tag_113:\n        /* \"#utility.yul\":1960:2079   */\n    tag_112:\n        /* \"#utility.yul\":2118:2119   */\n      0x00\n        /* \"#utility.yul\":2143:2196   */\n      tag_114\n        /* \"#utility.yul\":2188:2195   */\n      dup5\n        /* \"#utility.yul\":2179:2185   */\n      dup3\n        /* \"#utility.yul\":2168:2177   */\n      dup6\n        /* \"#utility.yul\":2164:2186   */\n      add\n        /* \"#utility.yul\":2143:2196   */\n      tag_71\n      jump\t// in\n    tag_114:\n        /* \"#utility.yul\":2133:2196   */\n      swap2\n      pop\n        /* \"#utility.yul\":2089:2206   */\n      pop\n        /* \"#utility.yul\":1884:2213   */\n      swap3\n      swap2\n      pop\n      pop\n      jump\t// out\n        /* \"#utility.yul\":2219:2337   */\n    tag_72:\n        /* \"#utility.yul\":2306:2330   */\n      tag_116\n        /* \"#utility.yul\":2324:2329   */\n      dup2\n        /* \"#utility.yul\":2306:2330   */\n      tag_65\n      jump\t// in\n    tag_116:\n        /* \"#utility.yul\":2301:2304   */\n      dup3\n        /* \"#utility.yul\":2294:2331   */\n      mstore\n        /* \"#utility.yul\":2219:2337   */\n      pop\n      pop\n      jump\t// out\n        /* \"#utility.yul\":2343:2565   */\n    tag_25:\n        /* \"#utility.yul\":2436:2440   */\n      0x00\n        /* \"#utility.yul\":2474:2476   */\n      0x20\n        /* \"#utility.yul\":2463:2472   */\n      dup3\n        /* \"#utility.yul\":2459:2477   */\n      add\n        /* \"#utility.yul\":2451:2477   */\n      swap1\n      pop\n        /* \"#utility.yul\":2487:2558   */\n      tag_118\n        /* \"#utility.yul\":2555:2556   */\n      0x00\n        /* \"#utility.yul\":2544:2553   */\n      dup4\n        /* \"#utility.yul\":2540:2557   */\n      add\n        /* \"#utility.yul\":2531:2537   */\n      dup5\n        /* \"#utility.yul\":2487:2558   */\n      tag_72\n      jump\t// in\n    tag_118:\n        /* \"#utility.yul\":2343:2565   */\n      swap3\n      swap2\n      pop\n      pop\n      jump\t// out\n        /* \"#utility.yul\":2571:2751   */\n    tag_73:\n        /* \"#utility.yul\":2619:2696   */\n      0x4e487b7100000000000000000000000000000000000000000000000000000000\n        /* \"#utility.yul\":2616:2617   */\n      0x00\n        /* \"#utility.yul\":2609:2697   */\n      mstore\n        /* \"#utility.yul\":2716:2720   */\n      0x11\n        /* \"#utility.yul\":2713:2714   */\n      0x04\n        /* \"#utility.yul\":2706:2721   */\n      mstore\n        /* \"#utility.yul\":2740:2744   */\n      0x24\n        /* \"#utility.yul\":2737:2738   */\n      0x00\n        /* \"#utility.yul\":2730:2745   */\n      revert\n        /* \"#utility.yul\":2757:2990   */\n    tag_35:\n        /* \"#utility.yul\":2796:2799   */\n      0x00\n        /* \"#utility.yul\":2819:2843   */\n      tag_121\n        /* \"#utility.yul\":2837:2842   */\n      dup3\n        /* \"#utility.yul\":2819:2843   */\n      tag_68\n      jump\t// in\n    tag_121:\n        /* \"#utility.yul\":2810:2843   */\n      swap2\n      pop\n        /* \"#utility.yul\":2865:2931   */\n      0xffffffffffffffffffffffffffffffffffffffffffffffffffffffffffffffff\n        /* \"#utility.yul\":2858:2863   */\n      dup3\n        /* \"#utility.yul\":2855:2932   */\n      eq\n        /* \"#utility.yul\":2852:2955   */\n      iszero\n      tag_122\n      jumpi\n        /* \"#utility.yul\":2935:2953   */\n      tag_123\n      tag_73\n      jump\t// in\n    tag_123:\n        /* \"#utility.yul\":2852:2955   */\n    tag_122:\n        /* \"#utility.yul\":2982:2983   */\n      0x01\n        /* \"#utility.yul\":2975:2980   */\n      dup3\n        /* \"#utility.yul\":2971:2984   */\n      add\n        /* \"#utility.yul\":2964:2984   */\n      swap1\n      pop\n        /* \"#utility.yul\":2757:2990   */\n      swap2\n      swap1\n      pop\n      jump\t// out\n        /* \"#utility.yul\":2996:3165   */\n    tag_74:\n        /* \"#utility.yul\":3080:3091   */\n      0x00\n        /* \"#utility.yul\":3114:3120   */\n      dup3\n        /* \"#utility.yul\":3109:3112   */\n      dup3\n        /* \"#utility.yul\":3102:3121   */\n      mstore\n        /* \"#utility.yul\":3154:3158   */\n      0x20\n        /* \"#utility.yul\":3149:3152   */\n      dup3\n        /* \"#utility.yul\":3145:3159   */\n      add\n        /* \"#utility.yul\":3130:3159   */\n      swap1\n      pop\n        /* \"#utility.yul\":2996:3165   */\n      swap3\n      swap2\n      pop\n      pop\n      jump\t// out\n        /* \"#utility.yul\":3171:3342   */\n    tag_75:\n        /* \"#utility.yul\":3311:3334   */\n      0x4469646e27742073656e6420656e6f7567682121210000000000000000000000\n        /* \"#utility.yul\":3307:3308   */\n      0x00\n        /* \"#utility.yul\":3299:3305   */\n      dup3\n        /* \"#utility.yul\":3295:3309   */\n      add\n        /* \"#utility.yul\":3288:3335   */\n      mstore\n        /* \"#utility.yul\":3171:3342   */\n      pop\n      jump\t// out\n        /* \"#utility.yul\":3348:3714   */\n    tag_76:\n        /* \"#utility.yul\":3490:3493   */\n      0x00\n        /* \"#utility.yul\":3511:3578   */\n      tag_127\n        /* \"#utility.yul\":3575:3577   */\n      0x15\n        /* \"#utility.yul\":3570:3573   */\n      dup4\n        /* \"#utility.yul\":3511:3578   */\n      tag_74\n      jump\t// in\n    tag_127:\n        /* \"#utility.yul\":3504:3578   */\n      swap2\n      pop\n        /* \"#utility.yul\":3587:3680   */\n      tag_128\n        /* \"#utility.yul\":3676:3679   */\n      dup3\n        /* \"#utility.yul\":3587:3680   */\n      tag_75\n      jump\t// in\n    tag_128:\n        /* \"#utility.yul\":3705:3707   */\n      0x20\n        /* \"#utility.yul\":3700:3703   */\n      dup3\n        /* \"#utility.yul\":3696:3708   */\n      add\n        /* \"#utility.yul\":3689:3708   */\n      swap1\n      pop\n        /* \"#utility.yul\":3348:3714   */\n      swap2\n      swap1\n      pop\n      jump\t// out\n        /* \"#utility.yul\":3720:4139   */\n    tag_42:\n        /* \"#utility.yul\":3886:3890   */\n      0x00\n        /* \"#utility.yul\":3924:3926   */\n      0x20\n        /* \"#utility.yul\":3913:3922   */\n      dup3\n        /* \"#utility.yul\":3909:3927   */\n      add\n        /* \"#utility.yul\":3901:3927   */\n      swap1\n      pop\n        /* \"#utility.yul\":3973:3982   */\n      dup2\n        /* \"#utility.yul\":3967:3971   */\n      dup2\n        /* \"#utility.yul\":3963:3983   */\n      sub\n        /* \"#utility.yul\":3959:3960   */\n      0x00\n        /* \"#utility.yul\":3948:3957   */\n      dup4\n        /* \"#utility.yul\":3944:3961   */\n      add\n        /* \"#utility.yul\":3937:3984   */\n      mstore\n        /* \"#utility.yul\":4001:4132   */\n      tag_130\n        /* \"#utility.yul\":4127:4131   */\n      dup2\n        /* \"#utility.yul\":4001:4132   */\n      tag_76\n      jump\t// in\n    tag_130:\n        /* \"#utility.yul\":3993:4132   */\n      swap1\n      pop\n        /* \"#utility.yul\":3720:4139   */\n      swap2\n      swap1\n      pop\n      jump\t// out\n        /* \"#utility.yul\":4145:4493   */\n    tag_50:\n        /* \"#utility.yul\":4185:4192   */\n      0x00\n        /* \"#utility.yul\":4208:4228   */\n      tag_132\n        /* \"#utility.yul\":4226:4227   */\n      dup3\n        /* \"#utility.yul\":4208:4228   */\n      tag_68\n      jump\t// in\n    tag_132:\n        /* \"#utility.yul\":4203:4228   */\n      swap2\n      pop\n        /* \"#utility.yul\":4242:4262   */\n      tag_133\n        /* \"#utility.yul\":4260:4261   */\n      dup4\n        /* \"#utility.yul\":4242:4262   */\n      tag_68\n      jump\t// in\n    tag_133:\n        /* \"#utility.yul\":4237:4262   */\n      swap3\n      pop\n        /* \"#utility.yul\":4430:4431   */\n      dup2\n        /* \"#utility.yul\":4362:4428   */\n      0xffffffffffffffffffffffffffffffffffffffffffffffffffffffffffffffff\n        /* \"#utility.yul\":4358:4432   */\n      div\n        /* \"#utility.yul\":4355:4356   */\n      dup4\n        /* \"#utility.yul\":4352:4433   */\n      gt\n        /* \"#utility.yul\":4347:4348   */\n      dup3\n        /* \"#utility.yul\":4340:4349   */\n      iszero\n        /* \"#utility.yul\":4333:4350   */\n      iszero\n        /* \"#utility.yul\":4329:4434   */\n      and\n        /* \"#utility.yul\":4326:4457   */\n      iszero\n      tag_134\n      jumpi\n        /* \"#utility.yul\":4437:4455   */\n      tag_135\n      tag_73\n      jump\t// in\n    tag_135:\n        /* \"#utility.yul\":4326:4457   */\n    tag_134:\n        /* \"#utility.yul\":4485:4486   */\n      dup3\n        /* \"#utility.yul\":4482:4483   */\n      dup3\n        /* \"#utility.yul\":4478:4487   */\n      mul\n        /* \"#utility.yul\":4467:4487   */\n      swap1\n      pop\n        /* \"#utility.yul\":4145:4493   */\n      swap3\n      swap2\n      pop\n      pop\n      jump\t// out\n        /* \"#utility.yul\":4499:4679   */\n    tag_77:\n        /* \"#utility.yul\":4547:4624   */\n      0x4e487b7100000000000000000000000000000000000000000000000000000000\n        /* \"#utility.yul\":4544:4545   */\n      0x00\n        /* \"#utility.yul\":4537:4625   */\n      mstore\n        /* \"#utility.yul\":4644:4648   */\n      0x12\n        /* \"#utility.yul\":4641:4642   */\n      0x04\n        /* \"#utility.yul\":4634:4649   */\n      mstore\n        /* \"#utility.yul\":4668:4672   */\n      0x24\n        /* \"#utility.yul\":4665:4666   */\n      0x00\n        /* \"#utility.yul\":4658:4673   */\n      revert\n        /* \"#utility.yul\":4685:4870   */\n    tag_52:\n        /* \"#utility.yul\":4725:4726   */\n      0x00\n        /* \"#utility.yul\":4742:4762   */\n      tag_138\n        /* \"#utility.yul\":4760:4761   */\n      dup3\n        /* \"#utility.yul\":4742:4762   */\n      tag_68\n      jump\t// in\n    tag_138:\n        /* \"#utility.yul\":4737:4762   */\n      swap2\n      pop\n        /* \"#utility.yul\":4776:4796   */\n      tag_139\n        /* \"#utility.yul\":4794:4795   */\n      dup4\n        /* \"#utility.yul\":4776:4796   */\n      tag_68\n      jump\t// in\n    tag_139:\n        /* \"#utility.yul\":4771:4796   */\n      swap3\n      pop\n        /* \"#utility.yul\":4815:4816   */\n      dup3\n        /* \"#utility.yul\":4805:4840   */\n      tag_140\n      jumpi\n        /* \"#utility.yul\":4820:4838   */\n      tag_141\n      tag_77\n      jump\t// in\n    tag_141:\n        /* \"#utility.yul\":4805:4840   */\n    tag_140:\n        /* \"#utility.yul\":4862:4863   */\n      dup3\n        /* \"#utility.yul\":4859:4860   */\n      dup3\n        /* \"#utility.yul\":4855:4864   */\n      div\n        /* \"#utility.yul\":4850:4864   */\n      swap1\n      pop\n        /* \"#utility.yul\":4685:4870   */\n      swap3\n      swap2\n      pop\n      pop\n      jump\t// out\n        /* \"#utility.yul\":4876:4981   */\n    tag_78:\n        /* \"#utility.yul\":4912:4919   */\n      0x00\n        /* \"#utility.yul\":4952:4974   */\n      0xffffffffffffffffffff\n        /* \"#utility.yul\":4945:4950   */\n      dup3\n        /* \"#utility.yul\":4941:4975   */\n      and\n        /* \"#utility.yul\":4930:4975   */\n      swap1\n      pop\n        /* \"#utility.yul\":4876:4981   */\n      swap2\n      swap1\n      pop\n      jump\t// out\n        /* \"#utility.yul\":4987:5107   */\n    tag_79:\n        /* \"#utility.yul\":5059:5082   */\n      tag_144\n        /* \"#utility.yul\":5076:5081   */\n      dup2\n        /* \"#utility.yul\":5059:5082   */\n      tag_78\n      jump\t// in\n    tag_144:\n        /* \"#utility.yul\":5052:5057   */\n      dup2\n        /* \"#utility.yul\":5049:5083   */\n      eq\n        /* \"#utility.yul\":5039:5101   */\n      tag_145\n      jumpi\n        /* \"#utility.yul\":5097:5098   */\n      0x00\n        /* \"#utility.yul\":5094:5095   */\n      dup1\n        /* \"#utility.yul\":5087:5099   */\n      revert\n        /* \"#utility.yul\":5039:5101   */\n    tag_145:\n        /* \"#utility.yul\":4987:5107   */\n      pop\n      jump\t// out\n        /* \"#utility.yul\":5113:5254   */\n    tag_80:\n        /* \"#utility.yul\":5169:5174   */\n      0x00\n        /* \"#utility.yul\":5200:5206   */\n      dup2\n        /* \"#utility.yul\":5194:5207   */\n      mload\n        /* \"#utility.yul\":5185:5207   */\n      swap1\n      pop\n        /* \"#utility.yul\":5216:5248   */\n      tag_147\n        /* \"#utility.yul\":5242:5247   */\n      dup2\n        /* \"#utility.yul\":5216:5248   */\n      tag_79\n      jump\t// in\n    tag_147:\n        /* \"#utility.yul\":5113:5254   */\n      swap3\n      swap2\n      pop\n      pop\n      jump\t// out\n        /* \"#utility.yul\":5260:5336   */\n    tag_81:\n        /* \"#utility.yul\":5296:5303   */\n      0x00\n        /* \"#utility.yul\":5325:5330   */\n      dup2\n        /* \"#utility.yul\":5314:5330   */\n      swap1\n      pop\n        /* \"#utility.yul\":5260:5336   */\n      swap2\n      swap1\n      pop\n      jump\t// out\n        /* \"#utility.yul\":5342:5462   */\n    tag_82:\n        /* \"#utility.yul\":5414:5437   */\n      tag_150\n        /* \"#utility.yul\":5431:5436   */\n      dup2\n        /* \"#utility.yul\":5414:5437   */\n      tag_81\n      jump\t// in\n    tag_150:\n        /* \"#utility.yul\":5407:5412   */\n      dup2\n        /* \"#utility.yul\":5404:5438   */\n      eq\n        /* \"#utility.yul\":5394:5456   */\n      tag_151\n      jumpi\n        /* \"#utility.yul\":5452:5453   */\n      0x00\n        /* \"#utility.yul\":5449:5450   */\n      dup1\n        /* \"#utility.yul\":5442:5454   */\n      revert\n        /* \"#utility.yul\":5394:5456   */\n    tag_151:\n        /* \"#utility.yul\":5342:5462   */\n      pop\n      jump\t// out\n        /* \"#utility.yul\":5468:5609   */\n    tag_83:\n        /* \"#utility.yul\":5524:5529   */\n      0x00\n        /* \"#utility.yul\":5555:5561   */\n      dup2\n        /* \"#utility.yul\":5549:5562   */\n      mload\n        /* \"#utility.yul\":5540:5562   */\n      swap1\n      pop\n        /* \"#utility.yul\":5571:5603   */\n      tag_153\n        /* \"#utility.yul\":5597:5602   */\n      dup2\n        /* \"#utility.yul\":5571:5603   */\n      tag_82\n      jump\t// in\n    tag_153:\n        /* \"#utility.yul\":5468:5609   */\n      swap3\n      swap2\n      pop\n      pop\n      jump\t// out\n        /* \"#utility.yul\":5615:5758   */\n    tag_84:\n        /* \"#utility.yul\":5672:5677   */\n      0x00\n        /* \"#utility.yul\":5703:5709   */\n      dup2\n        /* \"#utility.yul\":5697:5710   */\n      mload\n        /* \"#utility.yul\":5688:5710   */\n      swap1\n      pop\n        /* \"#utility.yul\":5719:5752   */\n      tag_155\n        /* \"#utility.yul\":5746:5751   */\n      dup2\n        /* \"#utility.yul\":5719:5752   */\n      tag_70\n      jump\t// in\n    tag_155:\n        /* \"#utility.yul\":5615:5758   */\n      swap3\n      swap2\n      pop\n      pop\n      jump\t// out\n        /* \"#utility.yul\":5764:6735   */\n    tag_58:\n        /* \"#utility.yul\":5867:5873   */\n      0x00\n        /* \"#utility.yul\":5875:5881   */\n      dup1\n        /* \"#utility.yul\":5883:5889   */\n      0x00\n        /* \"#utility.yul\":5891:5897   */\n      dup1\n        /* \"#utility.yul\":5899:5905   */\n      0x00\n        /* \"#utility.yul\":5948:5951   */\n      0xa0\n        /* \"#utility.yul\":5936:5945   */\n      dup7\n        /* \"#utility.yul\":5927:5934   */\n      dup9\n        /* \"#utility.yul\":5923:5946   */\n      sub\n        /* \"#utility.yul\":5919:5952   */\n      slt\n        /* \"#utility.yul\":5916:6036   */\n      iszero\n      tag_157\n      jumpi\n        /* \"#utility.yul\":5955:6034   */\n      tag_158\n      tag_62\n      jump\t// in\n    tag_158:\n        /* \"#utility.yul\":5916:6036   */\n    tag_157:\n        /* \"#utility.yul\":6075:6076   */\n      0x00\n        /* \"#utility.yul\":6100:6163   */\n      tag_159\n        /* \"#utility.yul\":6155:6162   */\n      dup9\n        /* \"#utility.yul\":6146:6152   */\n      dup3\n        /* \"#utility.yul\":6135:6144   */\n      dup10\n        /* \"#utility.yul\":6131:6153   */\n      add\n        /* \"#utility.yul\":6100:6163   */\n      tag_80\n      jump\t// in\n    tag_159:\n        /* \"#utility.yul\":6090:6163   */\n      swap6\n      pop\n        /* \"#utility.yul\":6046:6173   */\n      pop\n        /* \"#utility.yul\":6212:6214   */\n      0x20\n        /* \"#utility.yul\":6238:6301   */\n      tag_160\n        /* \"#utility.yul\":6293:6300   */\n      dup9\n        /* \"#utility.yul\":6284:6290   */\n      dup3\n        /* \"#utility.yul\":6273:6282   */\n      dup10\n        /* \"#utility.yul\":6269:6291   */\n      add\n        /* \"#utility.yul\":6238:6301   */\n      tag_83\n      jump\t// in\n    tag_160:\n        /* \"#utility.yul\":6228:6301   */\n      swap5\n      pop\n        /* \"#utility.yul\":6183:6311   */\n      pop\n        /* \"#utility.yul\":6350:6352   */\n      0x40\n        /* \"#utility.yul\":6376:6440   */\n      tag_161\n        /* \"#utility.yul\":6432:6439   */\n      dup9\n        /* \"#utility.yul\":6423:6429   */\n      dup3\n        /* \"#utility.yul\":6412:6421   */\n      dup10\n        /* \"#utility.yul\":6408:6430   */\n      add\n        /* \"#utility.yul\":6376:6440   */\n      tag_84\n      jump\t// in\n    tag_161:\n        /* \"#utility.yul\":6366:6440   */\n      swap4\n      pop\n        /* \"#utility.yul\":6321:6450   */\n      pop\n        /* \"#utility.yul\":6489:6491   */\n      0x60\n        /* \"#utility.yul\":6515:6579   */\n      tag_162\n        /* \"#utility.yul\":6571:6578   */\n      dup9\n        /* \"#utility.yul\":6562:6568   */\n      dup3\n        /* \"#utility.yul\":6551:6560   */\n      dup10\n        /* \"#utility.yul\":6547:6569   */\n      add\n        /* \"#utility.yul\":6515:6579   */\n      tag_84\n      jump\t// in\n    tag_162:\n        /* \"#utility.yul\":6505:6579   */\n      swap3\n      pop\n        /* \"#utility.yul\":6460:6589   */\n      pop\n        /* \"#utility.yul\":6628:6631   */\n      0x80\n        /* \"#utility.yul\":6655:6718   */\n      tag_163\n        /* \"#utility.yul\":6710:6717   */\n      dup9\n        /* \"#utility.yul\":6701:6707   */\n      dup3\n        /* \"#utility.yul\":6690:6699   */\n      dup10\n        /* \"#utility.yul\":6686:6708   */\n      add\n        /* \"#utility.yul\":6655:6718   */\n      tag_80\n      jump\t// in\n    tag_163:\n        /* \"#utility.yul\":6645:6718   */\n      swap2\n      pop\n        /* \"#utility.yul\":6599:6728   */\n      pop\n        /* \"#utility.yul\":5764:6735   */\n      swap3\n      swap6\n      pop\n      swap3\n      swap6\n      swap1\n      swap4\n      pop\n      jump\t// out\n        /* \"#utility.yul\":6741:7732   */\n    tag_60:\n        /* \"#utility.yul\":6780:6787   */\n      0x00\n        /* \"#utility.yul\":6803:6822   */\n      tag_165\n        /* \"#utility.yul\":6820:6821   */\n      dup3\n        /* \"#utility.yul\":6803:6822   */\n      tag_81\n      jump\t// in\n    tag_165:\n        /* \"#utility.yul\":6798:6822   */\n      swap2\n      pop\n        /* \"#utility.yul\":6836:6855   */\n      tag_166\n        /* \"#utility.yul\":6853:6854   */\n      dup4\n        /* \"#utility.yul\":6836:6855   */\n      tag_81\n      jump\t// in\n    tag_166:\n        /* \"#utility.yul\":6831:6855   */\n      swap3\n      pop\n        /* \"#utility.yul\":7037:7038   */\n      dup3\n        /* \"#utility.yul\":6969:7035   */\n      0x7fffffffffffffffffffffffffffffffffffffffffffffffffffffffffffffff\n        /* \"#utility.yul\":6965:7039   */\n      div\n        /* \"#utility.yul\":6962:6963   */\n      dup3\n        /* \"#utility.yul\":6959:7040   */\n      gt\n        /* \"#utility.yul\":6954:6955   */\n      0x00\n        /* \"#utility.yul\":6951:6952   */\n      dup5\n        /* \"#utility.yul\":6947:6956   */\n      sgt\n        /* \"#utility.yul\":6943:6944   */\n      0x00\n        /* \"#utility.yul\":6940:6941   */\n      dup5\n        /* \"#utility.yul\":6936:6945   */\n      sgt\n        /* \"#utility.yul\":6932:6957   */\n      and\n        /* \"#utility.yul\":6928:7041   */\n      and\n        /* \"#utility.yul\":6925:7064   */\n      iszero\n      tag_167\n      jumpi\n        /* \"#utility.yul\":7044:7062   */\n      tag_168\n      tag_73\n      jump\t// in\n    tag_168:\n        /* \"#utility.yul\":6925:7064   */\n    tag_167:\n        /* \"#utility.yul\":7248:7249   */\n      dup2\n        /* \"#utility.yul\":7180:7246   */\n      0x8000000000000000000000000000000000000000000000000000000000000000\n        /* \"#utility.yul\":7175:7250   */\n      sdiv\n        /* \"#utility.yul\":7172:7173   */\n      dup4\n        /* \"#utility.yul\":7168:7251   */\n      slt\n        /* \"#utility.yul\":7163:7164   */\n      0x00\n        /* \"#utility.yul\":7160:7161   */\n      dup5\n        /* \"#utility.yul\":7156:7165   */\n      slt\n        /* \"#utility.yul\":7152:7153   */\n      0x00\n        /* \"#utility.yul\":7149:7150   */\n      dup5\n        /* \"#utility.yul\":7145:7154   */\n      sgt\n        /* \"#utility.yul\":7141:7166   */\n      and\n        /* \"#utility.yul\":7137:7252   */\n      and\n        /* \"#utility.yul\":7134:7275   */\n      iszero\n      tag_169\n      jumpi\n        /* \"#utility.yul\":7255:7273   */\n      tag_170\n      tag_73\n      jump\t// in\n    tag_170:\n        /* \"#utility.yul\":7134:7275   */\n    tag_169:\n        /* \"#utility.yul\":7459:7460   */\n      dup3\n        /* \"#utility.yul\":7391:7457   */\n      0x8000000000000000000000000000000000000000000000000000000000000000\n        /* \"#utility.yul\":7386:7461   */\n      sdiv\n        /* \"#utility.yul\":7383:7384   */\n      dup3\n        /* \"#utility.yul\":7379:7462   */\n      slt\n        /* \"#utility.yul\":7374:7375   */\n      0x00\n        /* \"#utility.yul\":7371:7372   */\n      dup5\n        /* \"#utility.yul\":7367:7376   */\n      sgt\n        /* \"#utility.yul\":7363:7364   */\n      0x00\n        /* \"#utility.yul\":7360:7361   */\n      dup5\n        /* \"#utility.yul\":7356:7365   */\n      slt\n        /* \"#utility.yul\":7352:7377   */\n      and\n        /* \"#utility.yul\":7348:7463   */\n      and\n        /* \"#utility.yul\":7345:7486   */\n      iszero\n      tag_171\n      jumpi\n        /* \"#utility.yul\":7466:7484   */\n      tag_172\n      tag_73\n      jump\t// in\n    tag_172:\n        /* \"#utility.yul\":7345:7486   */\n    tag_171:\n        /* \"#utility.yul\":7669:7670   */\n      dup3\n        /* \"#utility.yul\":7601:7667   */\n      0x7fffffffffffffffffffffffffffffffffffffffffffffffffffffffffffffff\n        /* \"#utility.yul\":7596:7671   */\n      sdiv\n        /* \"#utility.yul\":7593:7594   */\n      dup3\n        /* \"#utility.yul\":7589:7672   */\n      slt\n        /* \"#utility.yul\":7584:7585   */\n      0x00\n        /* \"#utility.yul\":7581:7582   */\n      dup5\n        /* \"#utility.yul\":7577:7586   */\n      slt\n        /* \"#utility.yul\":7573:7574   */\n      0x00\n        /* \"#utility.yul\":7570:7571   */\n      dup5\n        /* \"#utility.yul\":7566:7575   */\n      slt\n        /* \"#utility.yul\":7562:7587   */\n      and\n        /* \"#utility.yul\":7558:7673   */\n      and\n        /* \"#utility.yul\":7555:7696   */\n      iszero\n      tag_173\n      jumpi\n        /* \"#utility.yul\":7676:7694   */\n      tag_174\n      tag_73\n      jump\t// in\n    tag_174:\n        /* \"#utility.yul\":7555:7696   */\n    tag_173:\n        /* \"#utility.yul\":7724:7725   */\n      dup3\n        /* \"#utility.yul\":7721:7722   */\n      dup3\n        /* \"#utility.yul\":7717:7726   */\n      mul\n        /* \"#utility.yul\":7706:7726   */\n      swap1\n      pop\n        /* \"#utility.yul\":6741:7732   */\n      swap3\n      swap2\n      pop\n      pop\n      jump\t// out\n\n    auxdata: 0xa2646970667358221220026b237cc8c45c304c3e1a56260a48c5b508e61e8e1893a8a6d7f52f6025536864736f6c63430008080033\n}\n",
				"bytecode": {
					"linkReferences": {},
					"object": "60806040526802b5e3af16b188000060005534801561001d57600080fd5b506108d58061002d6000396000f3fe60806040526004361061004a5760003560e01c80633ccfd60b1461004f5780633e47d6f314610066578063b60d4288146100a3578063dc0d3dff146100ad578063f1b7c0ef146100ea575b600080fd5b34801561005b57600080fd5b50610064610115565b005b34801561007257600080fd5b5061008d600480360381019061008891906103ed565b61013b565b60405161009a9190610433565b60405180910390f35b6100ab610153565b005b3480156100b957600080fd5b506100d460048036038101906100cf919061047a565b610253565b6040516100e191906104b6565b60405180910390f35b3480156100f657600080fd5b506100ff610292565b60405161010c9190610433565b60405180910390f35b60005b60018054905081101561013857808061013090610500565b915050610118565b50565b60026020528060005260406000206000915090505481565b61015c34610298565b5060005461016934610298565b10156101aa576040517f08c379a00000000000000000000000000000000000000000000000000000000081526004016101a1906105a6565b60405180910390fd5b6001339080600181540180825580915050600190039060005260206000200160009091909190916101000a81548173ffffffffffffffffffffffffffffffffffffffff021916908373ffffffffffffffffffffffffffffffffffffffff16021790555034600260003373ffffffffffffffffffffffffffffffffffffffff1673ffffffffffffffffffffffffffffffffffffffff16815260200190815260200160002081905550565b6001818154811061026357600080fd5b906000526020600020016000915054906101000a900473ffffffffffffffffffffffffffffffffffffffff1681565b60005481565b6000806102a36102d2565b90506000670de0b6b3a764000084836102bc91906105c6565b6102c6919061064f565b90508092505050919050565b600080738a753747a1fa494ec906ce90e9f37563a8af630e905060008173ffffffffffffffffffffffffffffffffffffffff1663feaf968c6040518163ffffffff1660e01b815260040160a06040518083038186803b15801561033457600080fd5b505afa158015610348573d6000803e3d6000fd5b505050506040513d601f19601f8201168201806040525081019061036c919061070d565b5050509150506402540be400816103839190610788565b9250505090565b600080fd5b600073ffffffffffffffffffffffffffffffffffffffff82169050919050565b60006103ba8261038f565b9050919050565b6103ca816103af565b81146103d557600080fd5b50565b6000813590506103e7816103c1565b92915050565b6000602082840312156104035761040261038a565b5b6000610411848285016103d8565b91505092915050565b6000819050919050565b61042d8161041a565b82525050565b60006020820190506104486000830184610424565b92915050565b6104578161041a565b811461046257600080fd5b50565b6000813590506104748161044e565b92915050565b6000602082840312156104905761048f61038a565b5b600061049e84828501610465565b91505092915050565b6104b0816103af565b82525050565b60006020820190506104cb60008301846104a7565b92915050565b7f4e487b7100000000000000000000000000000000000000000000000000000000600052601160045260246000fd5b600061050b8261041a565b91507fffffffffffffffffffffffffffffffffffffffffffffffffffffffffffffffff82141561053e5761053d6104d1565b5b600182019050919050565b600082825260208201905092915050565b7f4469646e27742073656e6420656e6f7567682121210000000000000000000000600082015250565b6000610590601583610549565b915061059b8261055a565b602082019050919050565b600060208201905081810360008301526105bf81610583565b9050919050565b60006105d18261041a565b91506105dc8361041a565b9250817fffffffffffffffffffffffffffffffffffffffffffffffffffffffffffffffff0483118215151615610615576106146104d1565b5b828202905092915050565b7f4e487b7100000000000000000000000000000000000000000000000000000000600052601260045260246000fd5b600061065a8261041a565b91506106658361041a565b92508261067557610674610620565b5b828204905092915050565b600069ffffffffffffffffffff82169050919050565b61069f81610680565b81146106aa57600080fd5b50565b6000815190506106bc81610696565b92915050565b6000819050919050565b6106d5816106c2565b81146106e057600080fd5b50565b6000815190506106f2816106cc565b92915050565b6000815190506107078161044e565b92915050565b600080600080600060a086880312156107295761072861038a565b5b6000610737888289016106ad565b9550506020610748888289016106e3565b9450506040610759888289016106f8565b935050606061076a888289016106f8565b925050608061077b888289016106ad565b9150509295509295909350565b6000610793826106c2565b915061079e836106c2565b9250827f7fffffffffffffffffffffffffffffffffffffffffffffffffffffffffffffff04821160008413600084131616156107dd576107dc6104d1565b5b817f8000000000000000000000000000000000000000000000000000000000000000058312600084126000841316161561081a576108196104d1565b5b827f80000000000000000000000000000000000000000000000000000000000000000582126000841360008412161615610857576108566104d1565b5b827f7fffffffffffffffffffffffffffffffffffffffffffffffffffffffffffffff0582126000841260008412161615610894576108936104d1565b5b82820290509291505056fea2646970667358221220026b237cc8c45c304c3e1a56260a48c5b508e61e8e1893a8a6d7f52f6025536864736f6c63430008080033",
					"opcodes": "PUSH1 0x80 PUSH1 0x40 MSTORE PUSH9 0x2B5E3AF16B1880000 PUSH1 0x0 SSTORE CALLVALUE DUP1 ISZERO PUSH2 0x1D JUMPI PUSH1 0x0 DUP1 REVERT JUMPDEST POP PUSH2 0x8D5 DUP1 PUSH2 0x2D PUSH1 0x0 CODECOPY PUSH1 0x0 RETURN INVALID PUSH1 0x80 PUSH1 0x40 MSTORE PUSH1 0x4 CALLDATASIZE LT PUSH2 0x4A JUMPI PUSH1 0x0 CALLDATALOAD PUSH1 0xE0 SHR DUP1 PUSH4 0x3CCFD60B EQ PUSH2 0x4F JUMPI DUP1 PUSH4 0x3E47D6F3 EQ PUSH2 0x66 JUMPI DUP1 PUSH4 0xB60D4288 EQ PUSH2 0xA3 JUMPI DUP1 PUSH4 0xDC0D3DFF EQ PUSH2 0xAD JUMPI DUP1 PUSH4 0xF1B7C0EF EQ PUSH2 0xEA JUMPI JUMPDEST PUSH1 0x0 DUP1 REVERT JUMPDEST CALLVALUE DUP1 ISZERO PUSH2 0x5B JUMPI PUSH1 0x0 DUP1 REVERT JUMPDEST POP PUSH2 0x64 PUSH2 0x115 JUMP JUMPDEST STOP JUMPDEST CALLVALUE DUP1 ISZERO PUSH2 0x72 JUMPI PUSH1 0x0 DUP1 REVERT JUMPDEST POP PUSH2 0x8D PUSH1 0x4 DUP1 CALLDATASIZE SUB DUP2 ADD SWAP1 PUSH2 0x88 SWAP2 SWAP1 PUSH2 0x3ED JUMP JUMPDEST PUSH2 0x13B JUMP JUMPDEST PUSH1 0x40 MLOAD PUSH2 0x9A SWAP2 SWAP1 PUSH2 0x433 JUMP JUMPDEST PUSH1 0x40 MLOAD DUP1 SWAP2 SUB SWAP1 RETURN JUMPDEST PUSH2 0xAB PUSH2 0x153 JUMP JUMPDEST STOP JUMPDEST CALLVALUE DUP1 ISZERO PUSH2 0xB9 JUMPI PUSH1 0x0 DUP1 REVERT JUMPDEST POP PUSH2 0xD4 PUSH1 0x4 DUP1 CALLDATASIZE SUB DUP2 ADD SWAP1 PUSH2 0xCF SWAP2 SWAP1 PUSH2 0x47A JUMP JUMPDEST PUSH2 0x253 JUMP JUMPDEST PUSH1 0x40 MLOAD PUSH2 0xE1 SWAP2 SWAP1 PUSH2 0x4B6 JUMP JUMPDEST PUSH1 0x40 MLOAD DUP1 SWAP2 SUB SWAP1 RETURN JUMPDEST CALLVALUE DUP1 ISZERO PUSH2 0xF6 JUMPI PUSH1 0x0 DUP1 REVERT JUMPDEST POP PUSH2 0xFF PUSH2 0x292 JUMP JUMPDEST PUSH1 0x40 MLOAD PUSH2 0x10C SWAP2 SWAP1 PUSH2 0x433 JUMP JUMPDEST PUSH1 0x40 MLOAD DUP1 SWAP2 SUB SWAP1 RETURN JUMPDEST PUSH1 0x0 JUMPDEST PUSH1 0x1 DUP1 SLOAD SWAP1 POP DUP2 LT ISZERO PUSH2 0x138 JUMPI DUP1 DUP1 PUSH2 0x130 SWAP1 PUSH2 0x500 JUMP JUMPDEST SWAP2 POP POP PUSH2 0x118 JUMP JUMPDEST POP JUMP JUMPDEST PUSH1 0x2 PUSH1 0x20 MSTORE DUP1 PUSH1 0x0 MSTORE PUSH1 0x40 PUSH1 0x0 KECCAK256 PUSH1 0x0 SWAP2 POP SWAP1 POP SLOAD DUP2 JUMP JUMPDEST PUSH2 0x15C CALLVALUE PUSH2 0x298 JUMP JUMPDEST POP PUSH1 0x0 SLOAD PUSH2 0x169 CALLVALUE PUSH2 0x298 JUMP JUMPDEST LT ISZERO PUSH2 0x1AA JUMPI PUSH1 0x40 MLOAD PUSH32 0x8C379A000000000000000000000000000000000000000000000000000000000 DUP2 MSTORE PUSH1 0x4 ADD PUSH2 0x1A1 SWAP1 PUSH2 0x5A6 JUMP JUMPDEST PUSH1 0x40 MLOAD DUP1 SWAP2 SUB SWAP1 REVERT JUMPDEST PUSH1 0x1 CALLER SWAP1 DUP1 PUSH1 0x1 DUP2 SLOAD ADD DUP1 DUP3 SSTORE DUP1 SWAP2 POP POP PUSH1 0x1 SWAP1 SUB SWAP1 PUSH1 0x0 MSTORE PUSH1 0x20 PUSH1 0x0 KECCAK256 ADD PUSH1 0x0 SWAP1 SWAP2 SWAP1 SWAP2 SWAP1 SWAP2 PUSH2 0x100 EXP DUP2 SLOAD DUP2 PUSH20 0xFFFFFFFFFFFFFFFFFFFFFFFFFFFFFFFFFFFFFFFF MUL NOT AND SWAP1 DUP4 PUSH20 0xFFFFFFFFFFFFFFFFFFFFFFFFFFFFFFFFFFFFFFFF AND MUL OR SWAP1 SSTORE POP CALLVALUE PUSH1 0x2 PUSH1 0x0 CALLER PUSH20 0xFFFFFFFFFFFFFFFFFFFFFFFFFFFFFFFFFFFFFFFF AND PUSH20 0xFFFFFFFFFFFFFFFFFFFFFFFFFFFFFFFFFFFFFFFF AND DUP2 MSTORE PUSH1 0x20 ADD SWAP1 DUP2 MSTORE PUSH1 0x20 ADD PUSH1 0x0 KECCAK256 DUP2 SWAP1 SSTORE POP JUMP JUMPDEST PUSH1 0x1 DUP2 DUP2 SLOAD DUP2 LT PUSH2 0x263 JUMPI PUSH1 0x0 DUP1 REVERT JUMPDEST SWAP1 PUSH1 0x0 MSTORE PUSH1 0x20 PUSH1 0x0 KECCAK256 ADD PUSH1 0x0 SWAP2 POP SLOAD SWAP1 PUSH2 0x100 EXP SWAP1 DIV PUSH20 0xFFFFFFFFFFFFFFFFFFFFFFFFFFFFFFFFFFFFFFFF AND DUP2 JUMP JUMPDEST PUSH1 0x0 SLOAD DUP2 JUMP JUMPDEST PUSH1 0x0 DUP1 PUSH2 0x2A3 PUSH2 0x2D2 JUMP JUMPDEST SWAP1 POP PUSH1 0x0 PUSH8 0xDE0B6B3A7640000 DUP5 DUP4 PUSH2 0x2BC SWAP2 SWAP1 PUSH2 0x5C6 JUMP JUMPDEST PUSH2 0x2C6 SWAP2 SWAP1 PUSH2 0x64F JUMP JUMPDEST SWAP1 POP DUP1 SWAP3 POP POP POP SWAP2 SWAP1 POP JUMP JUMPDEST PUSH1 0x0 DUP1 PUSH20 0x8A753747A1FA494EC906CE90E9F37563A8AF630E SWAP1 POP PUSH1 0x0 DUP2 PUSH20 0xFFFFFFFFFFFFFFFFFFFFFFFFFFFFFFFFFFFFFFFF AND PUSH4 0xFEAF968C PUSH1 0x40 MLOAD DUP2 PUSH4 0xFFFFFFFF AND PUSH1 0xE0 SHL DUP2 MSTORE PUSH1 0x4 ADD PUSH1 0xA0 PUSH1 0x40 MLOAD DUP1 DUP4 SUB DUP2 DUP7 DUP1 EXTCODESIZE ISZERO DUP1 ISZERO PUSH2 0x334 JUMPI PUSH1 0x0 DUP1 REVERT JUMPDEST POP GAS STATICCALL ISZERO DUP1 ISZERO PUSH2 0x348 JUMPI RETURNDATASIZE PUSH1 0x0 DUP1 RETURNDATACOPY RETURNDATASIZE PUSH1 0x0 REVERT JUMPDEST POP POP POP POP PUSH1 0x40 MLOAD RETURNDATASIZE PUSH1 0x1F NOT PUSH1 0x1F DUP3 ADD AND DUP3 ADD DUP1 PUSH1 0x40 MSTORE POP DUP2 ADD SWAP1 PUSH2 0x36C SWAP2 SWAP1 PUSH2 0x70D JUMP JUMPDEST POP POP POP SWAP2 POP POP PUSH5 0x2540BE400 DUP2 PUSH2 0x383 SWAP2 SWAP1 PUSH2 0x788 JUMP JUMPDEST SWAP3 POP POP POP SWAP1 JUMP JUMPDEST PUSH1 0x0 DUP1 REVERT JUMPDEST PUSH1 0x0 PUSH20 0xFFFFFFFFFFFFFFFFFFFFFFFFFFFFFFFFFFFFFFFF DUP3 AND SWAP1 POP SWAP2 SWAP1 POP JUMP JUMPDEST PUSH1 0x0 PUSH2 0x3BA DUP3 PUSH2 0x38F JUMP JUMPDEST SWAP1 POP SWAP2 SWAP1 POP JUMP JUMPDEST PUSH2 0x3CA DUP2 PUSH2 0x3AF JUMP JUMPDEST DUP2 EQ PUSH2 0x3D5 JUMPI PUSH1 0x0 DUP1 REVERT JUMPDEST POP JUMP JUMPDEST PUSH1 0x0 DUP2 CALLDATALOAD SWAP1 POP PUSH2 0x3E7 DUP2 PUSH2 0x3C1 JUMP JUMPDEST SWAP3 SWAP2 POP POP JUMP JUMPDEST PUSH1 0x0 PUSH1 0x20 DUP3 DUP5 SUB SLT ISZERO PUSH2 0x403 JUMPI PUSH2 0x402 PUSH2 0x38A JUMP JUMPDEST JUMPDEST PUSH1 0x0 PUSH2 0x411 DUP5 DUP3 DUP6 ADD PUSH2 0x3D8 JUMP JUMPDEST SWAP2 POP POP SWAP3 SWAP2 POP POP JUMP JUMPDEST PUSH1 0x0 DUP2 SWAP1 POP SWAP2 SWAP1 POP JUMP JUMPDEST PUSH2 0x42D DUP2 PUSH2 0x41A JUMP JUMPDEST DUP3 MSTORE POP POP JUMP JUMPDEST PUSH1 0x0 PUSH1 0x20 DUP3 ADD SWAP1 POP PUSH2 0x448 PUSH1 0x0 DUP4 ADD DUP5 PUSH2 0x424 JUMP JUMPDEST SWAP3 SWAP2 POP POP JUMP JUMPDEST PUSH2 0x457 DUP2 PUSH2 0x41A JUMP JUMPDEST DUP2 EQ PUSH2 0x462 JUMPI PUSH1 0x0 DUP1 REVERT JUMPDEST POP JUMP JUMPDEST PUSH1 0x0 DUP2 CALLDATALOAD SWAP1 POP PUSH2 0x474 DUP2 PUSH2 0x44E JUMP JUMPDEST SWAP3 SWAP2 POP POP JUMP JUMPDEST PUSH1 0x0 PUSH1 0x20 DUP3 DUP5 SUB SLT ISZERO PUSH2 0x490 JUMPI PUSH2 0x48F PUSH2 0x38A JUMP JUMPDEST JUMPDEST PUSH1 0x0 PUSH2 0x49E DUP5 DUP3 DUP6 ADD PUSH2 0x465 JUMP JUMPDEST SWAP2 POP POP SWAP3 SWAP2 POP POP JUMP JUMPDEST PUSH2 0x4B0 DUP2 PUSH2 0x3AF JUMP JUMPDEST DUP3 MSTORE POP POP JUMP JUMPDEST PUSH1 0x0 PUSH1 0x20 DUP3 ADD SWAP1 POP PUSH2 0x4CB PUSH1 0x0 DUP4 ADD DUP5 PUSH2 0x4A7 JUMP JUMPDEST SWAP3 SWAP2 POP POP JUMP JUMPDEST PUSH32 0x4E487B7100000000000000000000000000000000000000000000000000000000 PUSH1 0x0 MSTORE PUSH1 0x11 PUSH1 0x4 MSTORE PUSH1 0x24 PUSH1 0x0 REVERT JUMPDEST PUSH1 0x0 PUSH2 0x50B DUP3 PUSH2 0x41A JUMP JUMPDEST SWAP2 POP PUSH32 0xFFFFFFFFFFFFFFFFFFFFFFFFFFFFFFFFFFFFFFFFFFFFFFFFFFFFFFFFFFFFFFFF DUP3 EQ ISZERO PUSH2 0x53E JUMPI PUSH2 0x53D PUSH2 0x4D1 JUMP JUMPDEST JUMPDEST PUSH1 0x1 DUP3 ADD SWAP1 POP SWAP2 SWAP1 POP JUMP JUMPDEST PUSH1 0x0 DUP3 DUP3 MSTORE PUSH1 0x20 DUP3 ADD SWAP1 POP SWAP3 SWAP2 POP POP JUMP JUMPDEST PUSH32 0x4469646E27742073656E6420656E6F7567682121210000000000000000000000 PUSH1 0x0 DUP3 ADD MSTORE POP JUMP JUMPDEST PUSH1 0x0 PUSH2 0x590 PUSH1 0x15 DUP4 PUSH2 0x549 JUMP JUMPDEST SWAP2 POP PUSH2 0x59B DUP3 PUSH2 0x55A JUMP JUMPDEST PUSH1 0x20 DUP3 ADD SWAP1 POP SWAP2 SWAP1 POP JUMP JUMPDEST PUSH1 0x0 PUSH1 0x20 DUP3 ADD SWAP1 POP DUP2 DUP2 SUB PUSH1 0x0 DUP4 ADD MSTORE PUSH2 0x5BF DUP2 PUSH2 0x583 JUMP JUMPDEST SWAP1 POP SWAP2 SWAP1 POP JUMP JUMPDEST PUSH1 0x0 PUSH2 0x5D1 DUP3 PUSH2 0x41A JUMP JUMPDEST SWAP2 POP PUSH2 0x5DC DUP4 PUSH2 0x41A JUMP JUMPDEST SWAP3 POP DUP2 PUSH32 0xFFFFFFFFFFFFFFFFFFFFFFFFFFFFFFFFFFFFFFFFFFFFFFFFFFFFFFFFFFFFFFFF DIV DUP4 GT DUP3 ISZERO ISZERO AND ISZERO PUSH2 0x615 JUMPI PUSH2 0x614 PUSH2 0x4D1 JUMP JUMPDEST JUMPDEST DUP3 DUP3 MUL SWAP1 POP SWAP3 SWAP2 POP POP JUMP JUMPDEST PUSH32 0x4E487B7100000000000000000000000000000000000000000000000000000000 PUSH1 0x0 MSTORE PUSH1 0x12 PUSH1 0x4 MSTORE PUSH1 0x24 PUSH1 0x0 REVERT JUMPDEST PUSH1 0x0 PUSH2 0x65A DUP3 PUSH2 0x41A JUMP JUMPDEST SWAP2 POP PUSH2 0x665 DUP4 PUSH2 0x41A JUMP JUMPDEST SWAP3 POP DUP3 PUSH2 0x675 JUMPI PUSH2 0x674 PUSH2 0x620 JUMP JUMPDEST JUMPDEST DUP3 DUP3 DIV SWAP1 POP SWAP3 SWAP2 POP POP JUMP JUMPDEST PUSH1 0x0 PUSH10 0xFFFFFFFFFFFFFFFFFFFF DUP3 AND SWAP1 POP SWAP2 SWAP1 POP JUMP JUMPDEST PUSH2 0x69F DUP2 PUSH2 0x680 JUMP JUMPDEST DUP2 EQ PUSH2 0x6AA JUMPI PUSH1 0x0 DUP1 REVERT JUMPDEST POP JUMP JUMPDEST PUSH1 0x0 DUP2 MLOAD SWAP1 POP PUSH2 0x6BC DUP2 PUSH2 0x696 JUMP JUMPDEST SWAP3 SWAP2 POP POP JUMP JUMPDEST PUSH1 0x0 DUP2 SWAP1 POP SWAP2 SWAP1 POP JUMP JUMPDEST PUSH2 0x6D5 DUP2 PUSH2 0x6C2 JUMP JUMPDEST DUP2 EQ PUSH2 0x6E0 JUMPI PUSH1 0x0 DUP1 REVERT JUMPDEST POP JUMP JUMPDEST PUSH1 0x0 DUP2 MLOAD SWAP1 POP PUSH2 0x6F2 DUP2 PUSH2 0x6CC JUMP JUMPDEST SWAP3 SWAP2 POP POP JUMP JUMPDEST PUSH1 0x0 DUP2 MLOAD SWAP1 POP PUSH2 0x707 DUP2 PUSH2 0x44E JUMP JUMPDEST SWAP3 SWAP2 POP POP JUMP JUMPDEST PUSH1 0x0 DUP1 PUSH1 0x0 DUP1 PUSH1 0x0 PUSH1 0xA0 DUP7 DUP9 SUB SLT ISZERO PUSH2 0x729 JUMPI PUSH2 0x728 PUSH2 0x38A JUMP JUMPDEST JUMPDEST PUSH1 0x0 PUSH2 0x737 DUP9 DUP3 DUP10 ADD PUSH2 0x6AD JUMP JUMPDEST SWAP6 POP POP PUSH1 0x20 PUSH2 0x748 DUP9 DUP3 DUP10 ADD PUSH2 0x6E3 JUMP JUMPDEST SWAP5 POP POP PUSH1 0x40 PUSH2 0x759 DUP9 DUP3 DUP10 ADD PUSH2 0x6F8 JUMP JUMPDEST SWAP4 POP POP PUSH1 0x60 PUSH2 0x76A DUP9 DUP3 DUP10 ADD PUSH2 0x6F8 JUMP JUMPDEST SWAP3 POP POP PUSH1 0x80 PUSH2 0x77B DUP9 DUP3 DUP10 ADD PUSH2 0x6AD JUMP JUMPDEST SWAP2 POP POP SWAP3 SWAP6 POP SWAP3 SWAP6 SWAP1 SWAP4 POP JUMP JUMPDEST PUSH1 0x0 PUSH2 0x793 DUP3 PUSH2 0x6C2 JUMP JUMPDEST SWAP2 POP PUSH2 0x79E DUP4 PUSH2 0x6C2 JUMP JUMPDEST SWAP3 POP DUP3 PUSH32 0x7FFFFFFFFFFFFFFFFFFFFFFFFFFFFFFFFFFFFFFFFFFFFFFFFFFFFFFFFFFFFFFF DIV DUP3 GT PUSH1 0x0 DUP5 SGT PUSH1 0x0 DUP5 SGT AND AND ISZERO PUSH2 0x7DD JUMPI PUSH2 0x7DC PUSH2 0x4D1 JUMP JUMPDEST JUMPDEST DUP2 PUSH32 0x8000000000000000000000000000000000000000000000000000000000000000 SDIV DUP4 SLT PUSH1 0x0 DUP5 SLT PUSH1 0x0 DUP5 SGT AND AND ISZERO PUSH2 0x81A JUMPI PUSH2 0x819 PUSH2 0x4D1 JUMP JUMPDEST JUMPDEST DUP3 PUSH32 0x8000000000000000000000000000000000000000000000000000000000000000 SDIV DUP3 SLT PUSH1 0x0 DUP5 SGT PUSH1 0x0 DUP5 SLT AND AND ISZERO PUSH2 0x857 JUMPI PUSH2 0x856 PUSH2 0x4D1 JUMP JUMPDEST JUMPDEST DUP3 PUSH32 0x7FFFFFFFFFFFFFFFFFFFFFFFFFFFFFFFFFFFFFFFFFFFFFFFFFFFFFFFFFFFFFFF SDIV DUP3 SLT PUSH1 0x0 DUP5 SLT PUSH1 0x0 DUP5 SLT AND AND ISZERO PUSH2 0x894 JUMPI PUSH2 0x893 PUSH2 0x4D1 JUMP JUMPDEST JUMPDEST DUP3 DUP3 MUL SWAP1 POP SWAP3 SWAP2 POP POP JUMP INVALID LOG2 PUSH5 0x6970667358 0x22 SLT KECCAK256 MUL PUSH12 0x237CC8C45C304C3E1A56260A BASEFEE 0xC5 0xB5 ADDMOD 0xE6 0x1E DUP15 XOR SWAP4 0xA8 0xA6 0xD7 CREATE2 0x2F PUSH1 0x25 MSTORE8 PUSH9 0x64736F6C6343000808 STOP CALLER "
				},
				"gasEstimates": {
					"creation": {
						"codeDepositCost": "452200",
						"executionCost": "22592",
						"totalCost": "474792"
					},
					"external": {
						"addressToAmountFunded(address)": "2814",
						"fund()": "infinite",
						"funders(uint256)": "5000",
						"minimunUSD()": "2495",
						"withdraw()": "infinite"
					}
				},
				"methodIdentifiers": {
					"addressToAmountFunded(address)": "3e47d6f3",
					"fund()": "b60d4288",
					"funders(uint256)": "dc0d3dff",
					"minimunUSD()": "f1b7c0ef",
					"withdraw()": "3ccfd60b"
				}
			},
			"storageLayout": {
				"storage": [
					{
						"astId": 56,
						"contract": "contracts/FundMe.sol:FundMe",
						"label": "minimunUSD",
						"offset": 0,
						"slot": "0",
						"type": "t_uint256"
					},
					{
						"astId": 59,
						"contract": "contracts/FundMe.sol:FundMe",
						"label": "funders",
						"offset": 0,
						"slot": "1",
						"type": "t_array(t_address)dyn_storage"
					},
					{
						"astId": 63,
						"contract": "contracts/FundMe.sol:FundMe",
						"label": "addressToAmountFunded",
						"offset": 0,
						"slot": "2",
						"type": "t_mapping(t_address,t_uint256)"
					}
				],
				"types": {
					"t_address": {
						"encoding": "inplace",
						"label": "address",
						"numberOfBytes": "20"
					},
					"t_array(t_address)dyn_storage": {
						"base": "t_address",
						"encoding": "dynamic_array",
						"label": "address[]",
						"numberOfBytes": "32"
					},
					"t_mapping(t_address,t_uint256)": {
						"encoding": "mapping",
						"key": "t_address",
						"label": "mapping(address => uint256)",
						"numberOfBytes": "32",
						"value": "t_uint256"
					},
					"t_uint256": {
						"encoding": "inplace",
						"label": "uint256",
						"numberOfBytes": "32"
					}
				}
			},
			"userdoc": {
				"kind": "user",
				"methods": {},
				"version": 1
			}
		}
	}
}